{
	"data": {
		"bytecode": {
			"linkReferences": {
				"remix_tests.sol": {
					"Assert": [
						{
							"length": 20,
							"start": 380
						},
						{
							"length": 20,
							"start": 614
						},
						{
							"length": 20,
							"start": 893
						},
						{
							"length": 20,
							"start": 1031
						},
						{
							"length": 20,
							"start": 1126
						},
						{
							"length": 20,
							"start": 1600
						},
						{
							"length": 20,
							"start": 1722
						},
						{
							"length": 20,
							"start": 1845
						},
						{
							"length": 20,
							"start": 2048
						},
						{
							"length": 20,
							"start": 2225
						},
						{
							"length": 20,
							"start": 2546
						},
						{
							"length": 20,
							"start": 2809
						},
						{
							"length": 20,
							"start": 3033
						}
					]
				}
			},
			"object": "6080604052348015600e575f80fd5b506133238061001c5f395ff3fe608060405260043610610054575f3560e01c80630404be001461005857806351a6b456146100625780637fea0d4b1461006a578063ab3695c31461007e578063e5cfb19a14610086578063fa06b2731461009a575b5f80fd5b6100606100ae565b005b6100606102aa565b348015610075575f80fd5b506100606108f6565b61006061093d565b348015610091575f80fd5b506100606109d4565b3480156100a5575f80fd5b50610060610ac8565b5f546040516316b9c5df60e11b81526001600160a01b0390911690632d738bbe90614e20906100eb9060019066b1a2bc2ec5000090600401610c55565b60206040518083038185885af193505050508015610126575060408051601f3d908101601f1916820190925261012391810190610cea565b60015b6101d857610132610d01565b806308c379a0036101ce5750610146610d5b565b8061015157506101d0565b6040516339df137f60e01b815273__$acbfb1c35000d78352310b16a054a6b106$__906339df137f9061018b906001908590600401610e0d565b602060405180830381865af41580156101a6573d5f803e3d5ffd5b505050506040513d601f19601f820116820180604052508101906101ca9190610e43565b5050565b505b3d5f803e3d5ffd5b50604080516339df137f60e01b81525f60048201526024810191909152603760448201527f54686973206f7065726174696f6e2073686f756c642068617665206661696c6560648201527f64206f6e20612070617573656420636f6e747261637421000000000000000000608482015273__$acbfb1c35000d78352310b16a054a6b106$__906339df137f9060a4015b602060405180830381865af4158015610283573d5f803e3d5ffd5b505050506040513d601f19601f820116820180604052508101906102a79190610e43565b50565b5f546040516316b9c5df60e11b81526001600160a01b0390911690632d738bbe9066470de4df820000906102ec9060019066b1a2bc2ec5000090600401610c55565b60206040518083038185885af193505050508015610327575060408051601f3d908101601f1916820190925261032491810190610cea565b60015b61038957610333610d01565b806308c379a0036101ce5750610347610d5b565b8061035257506101d0565b604051637461658b60e11b815273__$acbfb1c35000d78352310b16a054a6b106$__9063e8c2cb169061018b908490600401610e63565b60405163767392b360e01b815281151560048201526001602482015260606044820152602760648201527f546f6b656e2049442073686f756c6420626520646966666572656e742074686160848201526637103d32b9379760c91b60a482015273__$acbfb1c35000d78352310b16a054a6b106$__9063767392b39060c401602060405180830381865af4158015610423573d5f803e3d5ffd5b505050506040513d601f19601f820116820180604052508101906104479190610e43565b5073__$acbfb1c35000d78352310b16a054a6b106$__63abcd79605f8054906101000a90046001600160a01b03166001600160a01b031663420e84456040518163ffffffff1660e01b8152600401602060405180830381865afa1580156104b0573d5f803e3d5ffd5b505050506040513d601f19601f820116820180604052508101906104d49190610cea565b6040516001600160e01b031960e084901b16815260048101919091526001602482015260606044820152604660648201527f696e697469616c206974656d20636f756e7420646f6573206e6f74206d61746360848201527f68206166746572207075626c697368696e672061206e6577206974656d20617360a4820152651037bbb732b960d11b60c482015260e401602060405180830381865af415801561057e573d5f803e3d5ffd5b505050506040513d601f19601f820116820180604052508101906105a29190610e43565b505f805460405163c7be7a4960e01b8152600481018490526001600160a01b039091169063c7be7a49906024015f60405180830381865afa1580156105e9573d5f803e3d5ffd5b505050506040513d5f823e601f3d908101601f191682016040526106109190810190610f47565b8051604051637461658b60e11b815291925073__$acbfb1c35000d78352310b16a054a6b106$__9163e8c2cb169161064a91600401611026565b602060405180830381865af4158015610665573d5f803e3d5ffd5b505050506040513d601f19601f820116820180604052508101906106899190610e43565b506020810151604051637461658b60e11b815273__$acbfb1c35000d78352310b16a054a6b106$__9163e8c2cb16916106c59190600401611099565b602060405180830381865af41580156106e0573d5f803e3d5ffd5b505050506040513d601f19601f820116820180604052508101906107049190610e43565b506040808201519051637461658b60e11b815273__$acbfb1c35000d78352310b16a054a6b106$__9163e8c2cb1691610740919060040161112b565b602060405180830381865af415801561075b573d5f803e3d5ffd5b505050506040513d601f19601f8201168201806040525081019061077f9190610e43565b5060608181015160405163767392b360e01b81529015156004820152600160248201526044810191909152602260648201527f72657475726e65642073616c6520656e61626c656420697320696e636f72726560848201526118dd60f21b60a482015273__$acbfb1c35000d78352310b16a054a6b106$__9063767392b39060c401602060405180830381865af415801561081c573d5f803e3d5ffd5b505050506040513d601f19601f820116820180604052508101906108409190610e43565b50608081015160405163055e6bcb60e51b8152600481019190915266b1a2bc2ec50000602482015260606044820152601460648201527370726963652073686f756c6420626520302e303560601b608482015273__$acbfb1c35000d78352310b16a054a6b106$__9063abcd79609060a401602060405180830381865af41580156108cd573d5f803e3d5ffd5b505050506040513d601f19601f820116820180604052508101906108f19190610e43565b505050565b60405161090290610c48565b604051809103905ff08015801561091b573d5f803e3d5ffd5b505f80546001600160a01b0319166001600160a01b0392909216919091179055565b5f805460408051638456cb5960e01b815290516001600160a01b0390921692638456cb599260048084019382900301818387803b15801561097c575f80fd5b505af115801561098e573d5f803e3d5ffd5b50505f546040516316b9c5df60e11b81526001600160a01b039091169250632d738bbe915066470de4df820000906100eb9060019066b1a2bc2ec5000090600401610c55565b73__$acbfb1c35000d78352310b16a054a6b106$__63abcd79605f8054906101000a90046001600160a01b03166001600160a01b031663420e84456040518163ffffffff1660e01b8152600401602060405180830381865afa158015610a3c573d5f803e3d5ffd5b505050506040513d601f19601f82011682018060405250810190610a609190610cea565b6040516001600160e01b031960e084901b16815260048101919091525f602482015260606044820152602160648201527f696e697469616c206974656d20636f756e7420646f6573206e6f74206d6174636084820152600d60fb1b60a482015260c401610268565b5f8054604080516306fdde0360e01b8152905173__$acbfb1c35000d78352310b16a054a6b106$__9363e8c2cb16936001600160a01b0316926306fdde0392600480830193928290030181865afa158015610b25573d5f803e3d5ffd5b505050506040513d5f823e601f3d908101601f19168201604052610b4c9190810190611166565b6040518263ffffffff1660e01b8152600401610b689190611198565b602060405180830381865af4158015610b83573d5f803e3d5ffd5b505050506040513d601f19601f82011682018060405250810190610ba79190610e43565b505f8054604080516395d89b4160e01b8152905173__$acbfb1c35000d78352310b16a054a6b106$__9363e8c2cb16936001600160a01b0316926395d89b4192600480830193928290030181865afa158015610c05573d5f803e3d5ffd5b505050506040513d5f823e601f3d908101601f19168201604052610c2c9190810190611166565b6040518263ffffffff1660e01b8152600401610268919061120f565b61206e8061128083390190565b60a081525f610c7860a0830160048152631d195cdd60e21b602082015260400190565b8281036020840152610cae81601781527668747470733a2f2f676f6f676c652e636f6d2f696d673160481b602082015260400190565b90508281036040840152610cd981600a8152690313233343536373839360b41b602082015260400190565b941515606084015250506080015290565b5f60208284031215610cfa575f80fd5b5051919050565b5f60033d1115610d175760045f803e505f5160e01c5b90565b634e487b7160e01b5f52604160045260245ffd5b601f8201601f1916810167ffffffffffffffff81118282101715610d5457610d54610d1a565b6040525050565b5f60443d1015610d685790565b6040513d600319016004823e80513d602482011167ffffffffffffffff82111715610d9257505090565b808201805167ffffffffffffffff811115610dae575050505090565b3d8401600319018282016020011115610dc8575050505090565b610dd760208285010185610d2e565b509392505050565b5f81518084528060208401602086015e5f602082860101526020601f19601f83011685010191505092915050565b8215158152604060208201525f610e276040830184610ddf565b949350505050565b80518015158114610e3e575f80fd5b919050565b5f60208284031215610e53575f80fd5b610e5c82610e2f565b9392505050565b606081525f610e756060830184610ddf565b82810380602085015260018252602d60f81b6020830152604081016040850152506016604082015275141d589b1a5cda1a5b99c81a5d195b4819985a5b195960521b60608201526080810191505092915050565b604051610d1760a082610d2e565b5f82601f830112610ee6575f80fd5b815167ffffffffffffffff811115610f0057610f00610d1a565b604051610f17601f8301601f191660200182610d2e565b818152846020838601011115610f2b575f80fd5b8160208501602083015e5f918101602001919091529392505050565b5f60208284031215610f57575f80fd5b815167ffffffffffffffff811115610f6d575f80fd5b820160a08185031215610f7e575f80fd5b610f86610ec9565b815167ffffffffffffffff811115610f9c575f80fd5b610fa886828501610ed7565b825250602082015167ffffffffffffffff811115610fc4575f80fd5b610fd086828501610ed7565b602083015250604082015167ffffffffffffffff811115610fef575f80fd5b610ffb86828501610ed7565b60408301525061100d60608301610e2f565b6060820152608091820151918101919091529392505050565b606081525f6110386060830184610ddf565b828103602084015261105b8160048152631d195cdd60e21b602082015260400190565b838103604094850152601c81527f72657475726e6564206e616d6520646f6573206e6f74206d61746368000000006020820152929092019392505050565b606081525f6110ab6060830184610ddf565b82810360208401526110e181601781527668747470733a2f2f676f6f676c652e636f6d2f696d673160481b602082015260400190565b90508281036040840152610e2781602381527f72657475726e6564206465736372697074696f6e20646f6573206e6f74206d616020820152620e8c6d60eb1b604082015260600190565b606081525f61113d6060830184610ddf565b82810360208401526110e181600a8152690313233343536373839360b41b602082015260400190565b5f60208284031215611176575f80fd5b815167ffffffffffffffff81111561118c575f80fd5b610e2784828501610ed7565b606081525f6111aa6060830184610ddf565b828103806020850152600b82526a4d61726b6574706c61636560a81b602083015260408101604085015250601860408201527f746f6b656e206e616d6520646964206e6f74206d61746368000000000000000060608201526080810191505092915050565b606081525f6112216060830184610ddf565b828103806020850152600482526304d4b54560e41b602083015260408101604085015250601a60408201527f746f6b656e2073796d626f6c20646964206e6f74206d617463680000000000006060820152608081019150509291505056fe60a06040525f608090815260089061001790826101bc565b50662386f26fc1000060095534801561002e575f80fd5b50336040518060400160405280600b81526020016a4d61726b6574706c61636560a81b8152506040518060400160405280600481526020016304d4b54560e41b815250815f908161007f91906101bc565b50600161008c82826101bc565b5050506001600160a01b0381166100bc57604051631e4fbdf760e01b81525f600482015260240160405180910390fd5b6100c5816100cb565b50610276565b600780546001600160a01b03838116610100818102610100600160a81b031985161790945560405193909204169182907f8be0079c531659141344cd1fd0a4f28419497f9722a3daafe3b4186f6b6457e0905f90a35050565b634e487b7160e01b5f52604160045260245ffd5b600181811c9082168061014c57607f821691505b60208210810361016a57634e487b7160e01b5f52602260045260245ffd5b50919050565b601f8211156101b757805f5260205f20601f840160051c810160208510156101955750805b601f840160051c820191505b818110156101b4575f81556001016101a1565b50505b505050565b81516001600160401b038111156101d5576101d5610124565b6101e9816101e38454610138565b84610170565b6020601f82116001811461021b575f83156102045750848201515b5f19600385901b1c1916600184901b1784556101b4565b5f84815260208120601f198516915b8281101561024a578785015182556020948501946001909201910161022a565b508482101561026757868401515f19600387901b60f8161c191681555b50505050600190811b01905550565b611deb806102835f395ff3fe608060405260043610610195575f3560e01c80636352211e116100e757806395d89b4111610087578063c7be7a4911610062578063c7be7a4914610442578063c87b56dd1461046e578063e985e9c51461048d578063f2fde38b146104ac575f80fd5b806395d89b41146103f0578063a22cb46514610404578063b88d4fde14610423575f80fd5b80638422ab59116100c25780638422ab59146103885780638456cb59146103a75780638da5cb5b146103bb5780638de93222146103dd575f80fd5b80636352211e1461033657806370a0823114610355578063715018a614610374575f80fd5b806330176e1311610152578063420e84451161012d578063420e8445146102cd57806342842e0e146102e157806348006c33146103005780635c975abb1461031f575f80fd5b806330176e13146102865780633dd0a7c6146102a55780633f4ba83a146102b9575f80fd5b806301ffc9a71461019957806306fdde03146101cd578063081812fc146101ee578063095ea7b31461022557806323b872dd146102465780632d738bbe14610265575b5f80fd5b3480156101a4575f80fd5b506101b86101b33660046117db565b6104cb565b60405190151581526020015b60405180910390f35b3480156101d8575f80fd5b506101e16104f5565b6040516101c49190611824565b3480156101f9575f80fd5b5061020d610208366004611836565b610584565b6040516001600160a01b0390911681526020016101c4565b348015610230575f80fd5b5061024461023f366004611863565b6105ab565b005b348015610251575f80fd5b5061024461026036600461188b565b6105ba565b61027861027336600461197d565b610648565b6040519081526020016101c4565b348015610291575f80fd5b506102446102a0366004611a23565b6107fe565b3480156102b0575f80fd5b50600954610278565b3480156102c4575f80fd5b50610244610812565b3480156102d8575f80fd5b50610278610824565b3480156102ec575f80fd5b506102446102fb36600461188b565b610834565b34801561030b575f80fd5b5061024461031a366004611a55565b610853565b34801561032a575f80fd5b5060075460ff166101b8565b348015610341575f80fd5b5061020d610350366004611836565b610903565b348015610360575f80fd5b5061027861036f366004611a7f565b61090d565b34801561037f575f80fd5b50610244610952565b348015610393575f80fd5b506102446103a2366004611836565b610963565b3480156103b2575f80fd5b506102446109e2565b3480156103c6575f80fd5b5060075461010090046001600160a01b031661020d565b6102446103eb366004611863565b6109f2565b3480156103fb575f80fd5b506101e1610a5d565b34801561040f575f80fd5b5061024461041e366004611a98565b610a6c565b34801561042e575f80fd5b5061024461043d366004611ac0565b610a77565b34801561044d575f80fd5b5061046161045c366004611836565b610a8f565b6040516101c49190611b37565b348015610479575f80fd5b506101e1610488366004611836565b610cb2565b348015610498575f80fd5b506101b86104a7366004611bb0565b610db1565b3480156104b7575f80fd5b506102446104c6366004611a7f565b610dde565b5f6001600160e01b03198216632483248360e11b14806104ef57506104ef82610e1b565b92915050565b60605f805461050390611bd8565b80601f016020809104026020016040519081016040528092919081815260200182805461052f90611bd8565b801561057a5780601f106105515761010080835404028352916020019161057a565b820191905f5260205f20905b81548152906001019060200180831161055d57829003601f168201915b5050505050905090565b5f61058e82610e6a565b505f828152600460205260409020546001600160a01b03166104ef565b6105b6828233610ea2565b5050565b6001600160a01b0382166105e857604051633250574960e11b81525f60048201526024015b60405180910390fd5b5f6105f4838333610eaf565b9050836001600160a01b0316816001600160a01b031614610642576040516364283d7b60e01b81526001600160a01b03808616600483015260248201849052821660448201526064016105df565b50505050565b5f610651610fa1565b6009543410156106a35760405162461bcd60e51b815260206004820152601a60248201527f496e73756666696369656e74204554482070726f76696465642100000000000060448201526064016105df565b5f6040518060a0016040528088815260200187815260200186815260200185151581526020018481525090505f42336040516020016106fe92919091825260601b6bffffffffffffffffffffffff1916602082015260340190565b604051602081830303815290604052805190602001205f1c9050805f036107675760405162461bcd60e51b815260206004820152601760248201527f546f6b656e49442063616e6e6f74206265207a65726f2e00000000000000000060448201526064016105df565b6107713382610fc5565b5f818152600a602052604090208251839190819061078f9082611c54565b50602082015160018201906107a49082611c54565b50604082015160028201906107b99082611c54565b50606082015160038201805460ff1916911515919091179055608090910151600490910155600b8054905f6107ed83611d0f565b909155509098975050505050505050565b610806611026565b60086105b68282611c54565b61081a611026565b610822611059565b565b5f61082d610fa1565b50600b5490565b61084e83838360405180602001604052805f815250610a77565b505050565b61085b610fa1565b3361086583610903565b6001600160a01b0316146108e15760405162461bcd60e51b815260206004820152603760248201527f596f75206d75737420626520746865206f776e6572206f66207468697320697460448201527f656d20666f7220697420746f206265206368616e67656400000000000000000060648201526084016105df565b5f918252600a6020526040909120600301805460ff1916911515919091179055565b5f6104ef82610e6a565b5f6001600160a01b038216610937576040516322718ad960e21b81525f60048201526024016105df565b506001600160a01b03165f9081526003602052604090205490565b61095a611026565b6108225f6110ab565b61096b611026565b610973610fa1565b5f600954116109dd5760405162461bcd60e51b815260206004820152603060248201527f546865207075626c697368696e672070726963652073686f756c64206265206760448201526f726561746572207468616e207a65726f60801b60648201526084016105df565b600955565b6109ea611026565b610822611104565b6109fa610fa1565b610a2b6040518060400160405280601081526020016f507572636861736520616e206974656d60801b815250611141565b610a3482611184565b610a3d816111cc565b5f818152600260205260409020546105b6906001600160a01b0316611184565b60606001805461050390611bd8565b6105b6338383611211565b610a828484846105ba565b61064233858585856112af565b610ac16040518060a001604052806060815260200160608152602001606081526020015f151581526020015f81525090565b610ac9610fa1565b5f828152600a602052604090819020815160a08101909252805482908290610af090611bd8565b80601f0160208091040260200160405190810160405280929190818152602001828054610b1c90611bd8565b8015610b675780601f10610b3e57610100808354040283529160200191610b67565b820191905f5260205f20905b815481529060010190602001808311610b4a57829003601f168201915b50505050508152602001600182018054610b8090611bd8565b80601f0160208091040260200160405190810160405280929190818152602001828054610bac90611bd8565b8015610bf75780601f10610bce57610100808354040283529160200191610bf7565b820191905f5260205f20905b815481529060010190602001808311610bda57829003601f168201915b50505050508152602001600282018054610c1090611bd8565b80601f0160208091040260200160405190810160405280929190818152602001828054610c3c90611bd8565b8015610c875780601f10610c5e57610100808354040283529160200191610c87565b820191905f5260205f20905b815481529060010190602001808311610c6a57829003601f168201915b5050509183525050600382015460ff161515602082015260049091015460409091015290505b919050565b6060610cbd82610e6a565b505f8281526006602052604081208054610cd690611bd8565b80601f0160208091040260200160405190810160405280929190818152602001828054610d0290611bd8565b8015610d4d5780601f10610d2457610100808354040283529160200191610d4d565b820191905f5260205f20905b815481529060010190602001808311610d3057829003601f168201915b505050505090505f610d5d6113d7565b905080515f03610d6e575092915050565b815115610da0578082604051602001610d88929190611d4a565b60405160208183030381529060405292505050919050565b610da9846113e6565b949350505050565b6001600160a01b039182165f90815260056020908152604080832093909416825291909152205460ff1690565b610de6611026565b6001600160a01b038116610e0f57604051631e4fbdf760e01b81525f60048201526024016105df565b610e18816110ab565b50565b5f6001600160e01b031982166380ac58cd60e01b1480610e4b57506001600160e01b03198216635b5e139f60e01b145b806104ef57506301ffc9a760e01b6001600160e01b03198316146104ef565b5f818152600260205260408120546001600160a01b0316806104ef57604051637e27328960e01b8152600481018490526024016105df565b61084e838383600161144b565b5f828152600260205260408120546001600160a01b0390811690831615610edb57610edb81848661154f565b6001600160a01b03811615610f1557610ef65f855f8061144b565b6001600160a01b0381165f90815260036020526040902080545f190190555b6001600160a01b03851615610f43576001600160a01b0385165f908152600360205260409020805460010190555b5f8481526002602052604080822080546001600160a01b0319166001600160a01b0389811691821790925591518793918516917fddf252ad1be2c89b69c2b068fc378daa952ba7f163c4a11628f55a4df523b3ef91a4949350505050565b60075460ff16156108225760405163d93c066560e01b815260040160405180910390fd5b6001600160a01b038216610fee57604051633250574960e11b81525f60048201526024016105df565b5f610ffa83835f610eaf565b90506001600160a01b0381161561084e576040516339e3563760e11b81525f60048201526024016105df565b6007546001600160a01b036101009091041633146108225760405163118cdaa760e01b81523360048201526024016105df565b6110616115b3565b6007805460ff191690557f5db9ee0a495bf2e6ff9c91a7834c1ba4fdd244a5e8aa4e537bd38aeae4b073aa335b6040516001600160a01b03909116815260200160405180910390a1565b600780546001600160a01b03838116610100818102610100600160a81b031985161790945560405193909204169182907f8be0079c531659141344cd1fd0a4f28419497f9722a3daafe3b4186f6b6457e0905f90a35050565b61110c610fa1565b6007805460ff191660011790557f62e78cea01bee320cd4e420270b5ea74000d11b0c9f74754ebdbfc544b05a25861108e3390565b610e18816040516024016111559190611824565b60408051601f198184030181529190526020810180516001600160e01b031663104c13eb60e21b1790526115d6565b6040516001600160a01b0382166024820152610e189060440160408051601f198184030181529190526020810180516001600160e01b031663161765e160e11b1790526115d6565b610e18816040516024016111e291815260200190565b60408051601f198184030181529190526020810180516001600160e01b031663f82c50f160e01b1790526115d6565b6001600160a01b03821661124357604051630b61174360e31b81526001600160a01b03831660048201526024016105df565b6001600160a01b038381165f81815260056020908152604080832094871680845294825291829020805460ff191686151590811790915591519182527f17307eab39ab6107e8899845ad3d59bd9653f200f220920489ca2b5937696c31910160405180910390a3505050565b6001600160a01b0383163b156113d057604051630a85bd0160e11b81526001600160a01b0384169063150b7a02906112f1908890889087908790600401611d5e565b6020604051808303815f875af192505050801561132b575060408051601f3d908101601f1916820190925261132891810190611d9a565b60015b611392573d808015611358576040519150601f19603f3d011682016040523d82523d5f602084013e61135d565b606091505b5080515f0361138a57604051633250574960e11b81526001600160a01b03851660048201526024016105df565b805181602001fd5b6001600160e01b03198116630a85bd0160e11b146113ce57604051633250574960e11b81526001600160a01b03851660048201526024016105df565b505b5050505050565b60606008805461050390611bd8565b60606113f182610e6a565b505f6113fb6113d7565b90505f8151116114195760405180602001604052805f815250611444565b80611423846115df565b604051602001611434929190611d4a565b6040516020818303038152906040525b9392505050565b808061145f57506001600160a01b03821615155b15611520575f61146e84610e6a565b90506001600160a01b0383161580159061149a5750826001600160a01b0316816001600160a01b031614155b80156114ad57506114ab8184610db1565b155b156114d65760405163a9fbf51f60e01b81526001600160a01b03841660048201526024016105df565b811561151e5783856001600160a01b0316826001600160a01b03167f8c5be1e5ebec7d5bd14f71427d1e84f3dd0314c0f7b2291e5b200ac8c7c3b92560405160405180910390a45b505b50505f90815260046020526040902080546001600160a01b0319166001600160a01b0392909216919091179055565b61155a83838361166f565b61084e576001600160a01b03831661158857604051637e27328960e01b8152600481018290526024016105df565b60405163177e802f60e01b81526001600160a01b0383166004820152602481018290526044016105df565b60075460ff1661082257604051638dfc202b60e01b815260040160405180910390fd5b610e18816116d0565b60605f6115eb836116ef565b60010190505f8167ffffffffffffffff81111561160a5761160a6118c5565b6040519080825280601f01601f191660200182016040528015611634576020820181803683370190505b5090508181016020015b5f19016f181899199a1a9b1b9c1cb0b131b232b360811b600a86061a8153600a850494508461163e57509392505050565b5f6001600160a01b03831615801590610da95750826001600160a01b0316846001600160a01b031614806116a857506116a88484610db1565b80610da95750505f908152600460205260409020546001600160a01b03908116911614919050565b5f6a636f6e736f6c652e6c6f6790505f80835160208501845afa505050565b5f8072184f03e93ff9f4daa797ed6e38ed64bf6a1f0160401b831061172d5772184f03e93ff9f4daa797ed6e38ed64bf6a1f0160401b830492506040015b6d04ee2d6d415b85acef81000000008310611759576d04ee2d6d415b85acef8100000000830492506020015b662386f26fc10000831061177757662386f26fc10000830492506010015b6305f5e100831061178f576305f5e100830492506008015b61271083106117a357612710830492506004015b606483106117b5576064830492506002015b600a83106104ef5760010192915050565b6001600160e01b031981168114610e18575f80fd5b5f602082840312156117eb575f80fd5b8135611444816117c6565b5f81518084528060208401602086015e5f602082860101526020601f19601f83011685010191505092915050565b602081525f61144460208301846117f6565b5f60208284031215611846575f80fd5b5035919050565b80356001600160a01b0381168114610cad575f80fd5b5f8060408385031215611874575f80fd5b61187d8361184d565b946020939093013593505050565b5f805f6060848603121561189d575f80fd5b6118a68461184d565b92506118b46020850161184d565b929592945050506040919091013590565b634e487b7160e01b5f52604160045260245ffd5b5f8067ffffffffffffffff8411156118f3576118f36118c5565b50604051601f19601f85018116603f0116810181811067ffffffffffffffff82111715611922576119226118c5565b604052838152905080828401851015611939575f80fd5b838360208301375f60208583010152509392505050565b5f82601f83011261195f575f80fd5b611444838335602085016118d9565b80358015158114610cad575f80fd5b5f805f805f60a08688031215611991575f80fd5b853567ffffffffffffffff8111156119a7575f80fd5b6119b388828901611950565b955050602086013567ffffffffffffffff8111156119cf575f80fd5b6119db88828901611950565b945050604086013567ffffffffffffffff8111156119f7575f80fd5b611a0388828901611950565b935050611a126060870161196e565b949793965091946080013592915050565b5f60208284031215611a33575f80fd5b813567ffffffffffffffff811115611a49575f80fd5b610da984828501611950565b5f8060408385031215611a66575f80fd5b82359150611a766020840161196e565b90509250929050565b5f60208284031215611a8f575f80fd5b6114448261184d565b5f8060408385031215611aa9575f80fd5b611ab28361184d565b9150611a766020840161196e565b5f805f8060808587031215611ad3575f80fd5b611adc8561184d565b9350611aea6020860161184d565b925060408501359150606085013567ffffffffffffffff811115611b0c575f80fd5b8501601f81018713611b1c575f80fd5b611b2b878235602084016118d9565b91505092959194509250565b602081525f825160a06020840152611b5260c08401826117f6565b90506020840151601f19848303016040850152611b6f82826117f6565b9150506040840151601f19848303016060850152611b8d82826117f6565b915050606084015115156080840152608084015160a08401528091505092915050565b5f8060408385031215611bc1575f80fd5b611bca8361184d565b9150611a766020840161184d565b600181811c90821680611bec57607f821691505b602082108103611c0a57634e487b7160e01b5f52602260045260245ffd5b50919050565b601f82111561084e57805f5260205f20601f840160051c81016020851015611c355750805b601f840160051c820191505b818110156113d0575f8155600101611c41565b815167ffffffffffffffff811115611c6e57611c6e6118c5565b611c8281611c7c8454611bd8565b84611c10565b6020601f821160018114611cb4575f8315611c9d5750848201515b5f19600385901b1c1916600184901b1784556113d0565b5f84815260208120601f198516915b82811015611ce35787850151825560209485019460019092019101611cc3565b5084821015611d0057868401515f19600387901b60f8161c191681555b50505050600190811b01905550565b5f60018201611d2c57634e487b7160e01b5f52601160045260245ffd5b5060010190565b5f81518060208401855e5f93019283525090919050565b5f610da9611d588386611d33565b84611d33565b6001600160a01b03858116825284166020820152604081018390526080606082018190525f90611d90908301846117f6565b9695505050505050565b5f60208284031215611daa575f80fd5b8151611444816117c656fea2646970667358221220544831a74c2dedd9a56748ffefa3a8a2a5381bbe46c716c605d4cdf287d3c93c64736f6c634300081a0033a2646970667358221220710276cfc0698694758cd3a4a742f9b1930155cc4c080d3b93bcd7d6a047204064736f6c634300081a0033",
			"opcodes": "PUSH1 0x80 PUSH1 0x40 MSTORE CALLVALUE DUP1 ISZERO PUSH1 0xE JUMPI PUSH0 DUP1 REVERT JUMPDEST POP PUSH2 0x3323 DUP1 PUSH2 0x1C PUSH0 CODECOPY PUSH0 RETURN INVALID PUSH1 0x80 PUSH1 0x40 MSTORE PUSH1 0x4 CALLDATASIZE LT PUSH2 0x54 JUMPI PUSH0 CALLDATALOAD PUSH1 0xE0 SHR DUP1 PUSH4 0x404BE00 EQ PUSH2 0x58 JUMPI DUP1 PUSH4 0x51A6B456 EQ PUSH2 0x62 JUMPI DUP1 PUSH4 0x7FEA0D4B EQ PUSH2 0x6A JUMPI DUP1 PUSH4 0xAB3695C3 EQ PUSH2 0x7E JUMPI DUP1 PUSH4 0xE5CFB19A EQ PUSH2 0x86 JUMPI DUP1 PUSH4 0xFA06B273 EQ PUSH2 0x9A JUMPI JUMPDEST PUSH0 DUP1 REVERT JUMPDEST PUSH2 0x60 PUSH2 0xAE JUMP JUMPDEST STOP JUMPDEST PUSH2 0x60 PUSH2 0x2AA JUMP JUMPDEST CALLVALUE DUP1 ISZERO PUSH2 0x75 JUMPI PUSH0 DUP1 REVERT JUMPDEST POP PUSH2 0x60 PUSH2 0x8F6 JUMP JUMPDEST PUSH2 0x60 PUSH2 0x93D JUMP JUMPDEST CALLVALUE DUP1 ISZERO PUSH2 0x91 JUMPI PUSH0 DUP1 REVERT JUMPDEST POP PUSH2 0x60 PUSH2 0x9D4 JUMP JUMPDEST CALLVALUE DUP1 ISZERO PUSH2 0xA5 JUMPI PUSH0 DUP1 REVERT JUMPDEST POP PUSH2 0x60 PUSH2 0xAC8 JUMP JUMPDEST PUSH0 SLOAD PUSH1 0x40 MLOAD PUSH4 0x16B9C5DF PUSH1 0xE1 SHL DUP2 MSTORE PUSH1 0x1 PUSH1 0x1 PUSH1 0xA0 SHL SUB SWAP1 SWAP2 AND SWAP1 PUSH4 0x2D738BBE SWAP1 PUSH2 0x4E20 SWAP1 PUSH2 0xEB SWAP1 PUSH1 0x1 SWAP1 PUSH7 0xB1A2BC2EC50000 SWAP1 PUSH1 0x4 ADD PUSH2 0xC55 JUMP JUMPDEST PUSH1 0x20 PUSH1 0x40 MLOAD DUP1 DUP4 SUB DUP2 DUP6 DUP9 GAS CALL SWAP4 POP POP POP POP DUP1 ISZERO PUSH2 0x126 JUMPI POP PUSH1 0x40 DUP1 MLOAD PUSH1 0x1F RETURNDATASIZE SWAP1 DUP2 ADD PUSH1 0x1F NOT AND DUP3 ADD SWAP1 SWAP3 MSTORE PUSH2 0x123 SWAP2 DUP2 ADD SWAP1 PUSH2 0xCEA JUMP JUMPDEST PUSH1 0x1 JUMPDEST PUSH2 0x1D8 JUMPI PUSH2 0x132 PUSH2 0xD01 JUMP JUMPDEST DUP1 PUSH4 0x8C379A0 SUB PUSH2 0x1CE JUMPI POP PUSH2 0x146 PUSH2 0xD5B JUMP JUMPDEST DUP1 PUSH2 0x151 JUMPI POP PUSH2 0x1D0 JUMP JUMPDEST PUSH1 0x40 MLOAD PUSH4 0x39DF137F PUSH1 0xE0 SHL DUP2 MSTORE PUSH20 0x0 SWAP1 PUSH4 0x39DF137F SWAP1 PUSH2 0x18B SWAP1 PUSH1 0x1 SWAP1 DUP6 SWAP1 PUSH1 0x4 ADD PUSH2 0xE0D JUMP JUMPDEST PUSH1 0x20 PUSH1 0x40 MLOAD DUP1 DUP4 SUB DUP2 DUP7 GAS DELEGATECALL ISZERO DUP1 ISZERO PUSH2 0x1A6 JUMPI RETURNDATASIZE PUSH0 DUP1 RETURNDATACOPY RETURNDATASIZE PUSH0 REVERT JUMPDEST POP POP POP POP PUSH1 0x40 MLOAD RETURNDATASIZE PUSH1 0x1F NOT PUSH1 0x1F DUP3 ADD AND DUP3 ADD DUP1 PUSH1 0x40 MSTORE POP DUP2 ADD SWAP1 PUSH2 0x1CA SWAP2 SWAP1 PUSH2 0xE43 JUMP JUMPDEST POP POP JUMP JUMPDEST POP JUMPDEST RETURNDATASIZE PUSH0 DUP1 RETURNDATACOPY RETURNDATASIZE PUSH0 REVERT JUMPDEST POP PUSH1 0x40 DUP1 MLOAD PUSH4 0x39DF137F PUSH1 0xE0 SHL DUP2 MSTORE PUSH0 PUSH1 0x4 DUP3 ADD MSTORE PUSH1 0x24 DUP2 ADD SWAP2 SWAP1 SWAP2 MSTORE PUSH1 0x37 PUSH1 0x44 DUP3 ADD MSTORE PUSH32 0x54686973206F7065726174696F6E2073686F756C642068617665206661696C65 PUSH1 0x64 DUP3 ADD MSTORE PUSH32 0x64206F6E20612070617573656420636F6E747261637421000000000000000000 PUSH1 0x84 DUP3 ADD MSTORE PUSH20 0x0 SWAP1 PUSH4 0x39DF137F SWAP1 PUSH1 0xA4 ADD JUMPDEST PUSH1 0x20 PUSH1 0x40 MLOAD DUP1 DUP4 SUB DUP2 DUP7 GAS DELEGATECALL ISZERO DUP1 ISZERO PUSH2 0x283 JUMPI RETURNDATASIZE PUSH0 DUP1 RETURNDATACOPY RETURNDATASIZE PUSH0 REVERT JUMPDEST POP POP POP POP PUSH1 0x40 MLOAD RETURNDATASIZE PUSH1 0x1F NOT PUSH1 0x1F DUP3 ADD AND DUP3 ADD DUP1 PUSH1 0x40 MSTORE POP DUP2 ADD SWAP1 PUSH2 0x2A7 SWAP2 SWAP1 PUSH2 0xE43 JUMP JUMPDEST POP JUMP JUMPDEST PUSH0 SLOAD PUSH1 0x40 MLOAD PUSH4 0x16B9C5DF PUSH1 0xE1 SHL DUP2 MSTORE PUSH1 0x1 PUSH1 0x1 PUSH1 0xA0 SHL SUB SWAP1 SWAP2 AND SWAP1 PUSH4 0x2D738BBE SWAP1 PUSH7 0x470DE4DF820000 SWAP1 PUSH2 0x2EC SWAP1 PUSH1 0x1 SWAP1 PUSH7 0xB1A2BC2EC50000 SWAP1 PUSH1 0x4 ADD PUSH2 0xC55 JUMP JUMPDEST PUSH1 0x20 PUSH1 0x40 MLOAD DUP1 DUP4 SUB DUP2 DUP6 DUP9 GAS CALL SWAP4 POP POP POP POP DUP1 ISZERO PUSH2 0x327 JUMPI POP PUSH1 0x40 DUP1 MLOAD PUSH1 0x1F RETURNDATASIZE SWAP1 DUP2 ADD PUSH1 0x1F NOT AND DUP3 ADD SWAP1 SWAP3 MSTORE PUSH2 0x324 SWAP2 DUP2 ADD SWAP1 PUSH2 0xCEA JUMP JUMPDEST PUSH1 0x1 JUMPDEST PUSH2 0x389 JUMPI PUSH2 0x333 PUSH2 0xD01 JUMP JUMPDEST DUP1 PUSH4 0x8C379A0 SUB PUSH2 0x1CE JUMPI POP PUSH2 0x347 PUSH2 0xD5B JUMP JUMPDEST DUP1 PUSH2 0x352 JUMPI POP PUSH2 0x1D0 JUMP JUMPDEST PUSH1 0x40 MLOAD PUSH4 0x7461658B PUSH1 0xE1 SHL DUP2 MSTORE PUSH20 0x0 SWAP1 PUSH4 0xE8C2CB16 SWAP1 PUSH2 0x18B SWAP1 DUP5 SWAP1 PUSH1 0x4 ADD PUSH2 0xE63 JUMP JUMPDEST PUSH1 0x40 MLOAD PUSH4 0x767392B3 PUSH1 0xE0 SHL DUP2 MSTORE DUP2 ISZERO ISZERO PUSH1 0x4 DUP3 ADD MSTORE PUSH1 0x1 PUSH1 0x24 DUP3 ADD MSTORE PUSH1 0x60 PUSH1 0x44 DUP3 ADD MSTORE PUSH1 0x27 PUSH1 0x64 DUP3 ADD MSTORE PUSH32 0x546F6B656E2049442073686F756C6420626520646966666572656E7420746861 PUSH1 0x84 DUP3 ADD MSTORE PUSH7 0x37103D32B93797 PUSH1 0xC9 SHL PUSH1 0xA4 DUP3 ADD MSTORE PUSH20 0x0 SWAP1 PUSH4 0x767392B3 SWAP1 PUSH1 0xC4 ADD PUSH1 0x20 PUSH1 0x40 MLOAD DUP1 DUP4 SUB DUP2 DUP7 GAS DELEGATECALL ISZERO DUP1 ISZERO PUSH2 0x423 JUMPI RETURNDATASIZE PUSH0 DUP1 RETURNDATACOPY RETURNDATASIZE PUSH0 REVERT JUMPDEST POP POP POP POP PUSH1 0x40 MLOAD RETURNDATASIZE PUSH1 0x1F NOT PUSH1 0x1F DUP3 ADD AND DUP3 ADD DUP1 PUSH1 0x40 MSTORE POP DUP2 ADD SWAP1 PUSH2 0x447 SWAP2 SWAP1 PUSH2 0xE43 JUMP JUMPDEST POP PUSH20 0x0 PUSH4 0xABCD7960 PUSH0 DUP1 SLOAD SWAP1 PUSH2 0x100 EXP SWAP1 DIV PUSH1 0x1 PUSH1 0x1 PUSH1 0xA0 SHL SUB AND PUSH1 0x1 PUSH1 0x1 PUSH1 0xA0 SHL SUB AND PUSH4 0x420E8445 PUSH1 0x40 MLOAD DUP2 PUSH4 0xFFFFFFFF AND PUSH1 0xE0 SHL DUP2 MSTORE PUSH1 0x4 ADD PUSH1 0x20 PUSH1 0x40 MLOAD DUP1 DUP4 SUB DUP2 DUP7 GAS STATICCALL ISZERO DUP1 ISZERO PUSH2 0x4B0 JUMPI RETURNDATASIZE PUSH0 DUP1 RETURNDATACOPY RETURNDATASIZE PUSH0 REVERT JUMPDEST POP POP POP POP PUSH1 0x40 MLOAD RETURNDATASIZE PUSH1 0x1F NOT PUSH1 0x1F DUP3 ADD AND DUP3 ADD DUP1 PUSH1 0x40 MSTORE POP DUP2 ADD SWAP1 PUSH2 0x4D4 SWAP2 SWAP1 PUSH2 0xCEA JUMP JUMPDEST PUSH1 0x40 MLOAD PUSH1 0x1 PUSH1 0x1 PUSH1 0xE0 SHL SUB NOT PUSH1 0xE0 DUP5 SWAP1 SHL AND DUP2 MSTORE PUSH1 0x4 DUP2 ADD SWAP2 SWAP1 SWAP2 MSTORE PUSH1 0x1 PUSH1 0x24 DUP3 ADD MSTORE PUSH1 0x60 PUSH1 0x44 DUP3 ADD MSTORE PUSH1 0x46 PUSH1 0x64 DUP3 ADD MSTORE PUSH32 0x696E697469616C206974656D20636F756E7420646F6573206E6F74206D617463 PUSH1 0x84 DUP3 ADD MSTORE PUSH32 0x68206166746572207075626C697368696E672061206E6577206974656D206173 PUSH1 0xA4 DUP3 ADD MSTORE PUSH6 0x1037BBB732B9 PUSH1 0xD1 SHL PUSH1 0xC4 DUP3 ADD MSTORE PUSH1 0xE4 ADD PUSH1 0x20 PUSH1 0x40 MLOAD DUP1 DUP4 SUB DUP2 DUP7 GAS DELEGATECALL ISZERO DUP1 ISZERO PUSH2 0x57E JUMPI RETURNDATASIZE PUSH0 DUP1 RETURNDATACOPY RETURNDATASIZE PUSH0 REVERT JUMPDEST POP POP POP POP PUSH1 0x40 MLOAD RETURNDATASIZE PUSH1 0x1F NOT PUSH1 0x1F DUP3 ADD AND DUP3 ADD DUP1 PUSH1 0x40 MSTORE POP DUP2 ADD SWAP1 PUSH2 0x5A2 SWAP2 SWAP1 PUSH2 0xE43 JUMP JUMPDEST POP PUSH0 DUP1 SLOAD PUSH1 0x40 MLOAD PUSH4 0xC7BE7A49 PUSH1 0xE0 SHL DUP2 MSTORE PUSH1 0x4 DUP2 ADD DUP5 SWAP1 MSTORE PUSH1 0x1 PUSH1 0x1 PUSH1 0xA0 SHL SUB SWAP1 SWAP2 AND SWAP1 PUSH4 0xC7BE7A49 SWAP1 PUSH1 0x24 ADD PUSH0 PUSH1 0x40 MLOAD DUP1 DUP4 SUB DUP2 DUP7 GAS STATICCALL ISZERO DUP1 ISZERO PUSH2 0x5E9 JUMPI RETURNDATASIZE PUSH0 DUP1 RETURNDATACOPY RETURNDATASIZE PUSH0 REVERT JUMPDEST POP POP POP POP PUSH1 0x40 MLOAD RETURNDATASIZE PUSH0 DUP3 RETURNDATACOPY PUSH1 0x1F RETURNDATASIZE SWAP1 DUP2 ADD PUSH1 0x1F NOT AND DUP3 ADD PUSH1 0x40 MSTORE PUSH2 0x610 SWAP2 SWAP1 DUP2 ADD SWAP1 PUSH2 0xF47 JUMP JUMPDEST DUP1 MLOAD PUSH1 0x40 MLOAD PUSH4 0x7461658B PUSH1 0xE1 SHL DUP2 MSTORE SWAP2 SWAP3 POP PUSH20 0x0 SWAP2 PUSH4 0xE8C2CB16 SWAP2 PUSH2 0x64A SWAP2 PUSH1 0x4 ADD PUSH2 0x1026 JUMP JUMPDEST PUSH1 0x20 PUSH1 0x40 MLOAD DUP1 DUP4 SUB DUP2 DUP7 GAS DELEGATECALL ISZERO DUP1 ISZERO PUSH2 0x665 JUMPI RETURNDATASIZE PUSH0 DUP1 RETURNDATACOPY RETURNDATASIZE PUSH0 REVERT JUMPDEST POP POP POP POP PUSH1 0x40 MLOAD RETURNDATASIZE PUSH1 0x1F NOT PUSH1 0x1F DUP3 ADD AND DUP3 ADD DUP1 PUSH1 0x40 MSTORE POP DUP2 ADD SWAP1 PUSH2 0x689 SWAP2 SWAP1 PUSH2 0xE43 JUMP JUMPDEST POP PUSH1 0x20 DUP2 ADD MLOAD PUSH1 0x40 MLOAD PUSH4 0x7461658B PUSH1 0xE1 SHL DUP2 MSTORE PUSH20 0x0 SWAP2 PUSH4 0xE8C2CB16 SWAP2 PUSH2 0x6C5 SWAP2 SWAP1 PUSH1 0x4 ADD PUSH2 0x1099 JUMP JUMPDEST PUSH1 0x20 PUSH1 0x40 MLOAD DUP1 DUP4 SUB DUP2 DUP7 GAS DELEGATECALL ISZERO DUP1 ISZERO PUSH2 0x6E0 JUMPI RETURNDATASIZE PUSH0 DUP1 RETURNDATACOPY RETURNDATASIZE PUSH0 REVERT JUMPDEST POP POP POP POP PUSH1 0x40 MLOAD RETURNDATASIZE PUSH1 0x1F NOT PUSH1 0x1F DUP3 ADD AND DUP3 ADD DUP1 PUSH1 0x40 MSTORE POP DUP2 ADD SWAP1 PUSH2 0x704 SWAP2 SWAP1 PUSH2 0xE43 JUMP JUMPDEST POP PUSH1 0x40 DUP1 DUP3 ADD MLOAD SWAP1 MLOAD PUSH4 0x7461658B PUSH1 0xE1 SHL DUP2 MSTORE PUSH20 0x0 SWAP2 PUSH4 0xE8C2CB16 SWAP2 PUSH2 0x740 SWAP2 SWAP1 PUSH1 0x4 ADD PUSH2 0x112B JUMP JUMPDEST PUSH1 0x20 PUSH1 0x40 MLOAD DUP1 DUP4 SUB DUP2 DUP7 GAS DELEGATECALL ISZERO DUP1 ISZERO PUSH2 0x75B JUMPI RETURNDATASIZE PUSH0 DUP1 RETURNDATACOPY RETURNDATASIZE PUSH0 REVERT JUMPDEST POP POP POP POP PUSH1 0x40 MLOAD RETURNDATASIZE PUSH1 0x1F NOT PUSH1 0x1F DUP3 ADD AND DUP3 ADD DUP1 PUSH1 0x40 MSTORE POP DUP2 ADD SWAP1 PUSH2 0x77F SWAP2 SWAP1 PUSH2 0xE43 JUMP JUMPDEST POP PUSH1 0x60 DUP2 DUP2 ADD MLOAD PUSH1 0x40 MLOAD PUSH4 0x767392B3 PUSH1 0xE0 SHL DUP2 MSTORE SWAP1 ISZERO ISZERO PUSH1 0x4 DUP3 ADD MSTORE PUSH1 0x1 PUSH1 0x24 DUP3 ADD MSTORE PUSH1 0x44 DUP2 ADD SWAP2 SWAP1 SWAP2 MSTORE PUSH1 0x22 PUSH1 0x64 DUP3 ADD MSTORE PUSH32 0x72657475726E65642073616C6520656E61626C656420697320696E636F727265 PUSH1 0x84 DUP3 ADD MSTORE PUSH2 0x18DD PUSH1 0xF2 SHL PUSH1 0xA4 DUP3 ADD MSTORE PUSH20 0x0 SWAP1 PUSH4 0x767392B3 SWAP1 PUSH1 0xC4 ADD PUSH1 0x20 PUSH1 0x40 MLOAD DUP1 DUP4 SUB DUP2 DUP7 GAS DELEGATECALL ISZERO DUP1 ISZERO PUSH2 0x81C JUMPI RETURNDATASIZE PUSH0 DUP1 RETURNDATACOPY RETURNDATASIZE PUSH0 REVERT JUMPDEST POP POP POP POP PUSH1 0x40 MLOAD RETURNDATASIZE PUSH1 0x1F NOT PUSH1 0x1F DUP3 ADD AND DUP3 ADD DUP1 PUSH1 0x40 MSTORE POP DUP2 ADD SWAP1 PUSH2 0x840 SWAP2 SWAP1 PUSH2 0xE43 JUMP JUMPDEST POP PUSH1 0x80 DUP2 ADD MLOAD PUSH1 0x40 MLOAD PUSH4 0x55E6BCB PUSH1 0xE5 SHL DUP2 MSTORE PUSH1 0x4 DUP2 ADD SWAP2 SWAP1 SWAP2 MSTORE PUSH7 0xB1A2BC2EC50000 PUSH1 0x24 DUP3 ADD MSTORE PUSH1 0x60 PUSH1 0x44 DUP3 ADD MSTORE PUSH1 0x14 PUSH1 0x64 DUP3 ADD MSTORE PUSH20 0x70726963652073686F756C6420626520302E3035 PUSH1 0x60 SHL PUSH1 0x84 DUP3 ADD MSTORE PUSH20 0x0 SWAP1 PUSH4 0xABCD7960 SWAP1 PUSH1 0xA4 ADD PUSH1 0x20 PUSH1 0x40 MLOAD DUP1 DUP4 SUB DUP2 DUP7 GAS DELEGATECALL ISZERO DUP1 ISZERO PUSH2 0x8CD JUMPI RETURNDATASIZE PUSH0 DUP1 RETURNDATACOPY RETURNDATASIZE PUSH0 REVERT JUMPDEST POP POP POP POP PUSH1 0x40 MLOAD RETURNDATASIZE PUSH1 0x1F NOT PUSH1 0x1F DUP3 ADD AND DUP3 ADD DUP1 PUSH1 0x40 MSTORE POP DUP2 ADD SWAP1 PUSH2 0x8F1 SWAP2 SWAP1 PUSH2 0xE43 JUMP JUMPDEST POP POP POP JUMP JUMPDEST PUSH1 0x40 MLOAD PUSH2 0x902 SWAP1 PUSH2 0xC48 JUMP JUMPDEST PUSH1 0x40 MLOAD DUP1 SWAP2 SUB SWAP1 PUSH0 CREATE DUP1 ISZERO DUP1 ISZERO PUSH2 0x91B JUMPI RETURNDATASIZE PUSH0 DUP1 RETURNDATACOPY RETURNDATASIZE PUSH0 REVERT JUMPDEST POP PUSH0 DUP1 SLOAD PUSH1 0x1 PUSH1 0x1 PUSH1 0xA0 SHL SUB NOT AND PUSH1 0x1 PUSH1 0x1 PUSH1 0xA0 SHL SUB SWAP3 SWAP1 SWAP3 AND SWAP2 SWAP1 SWAP2 OR SWAP1 SSTORE JUMP JUMPDEST PUSH0 DUP1 SLOAD PUSH1 0x40 DUP1 MLOAD PUSH4 0x8456CB59 PUSH1 0xE0 SHL DUP2 MSTORE SWAP1 MLOAD PUSH1 0x1 PUSH1 0x1 PUSH1 0xA0 SHL SUB SWAP1 SWAP3 AND SWAP3 PUSH4 0x8456CB59 SWAP3 PUSH1 0x4 DUP1 DUP5 ADD SWAP4 DUP3 SWAP1 SUB ADD DUP2 DUP4 DUP8 DUP1 EXTCODESIZE ISZERO DUP1 ISZERO PUSH2 0x97C JUMPI PUSH0 DUP1 REVERT JUMPDEST POP GAS CALL ISZERO DUP1 ISZERO PUSH2 0x98E JUMPI RETURNDATASIZE PUSH0 DUP1 RETURNDATACOPY RETURNDATASIZE PUSH0 REVERT JUMPDEST POP POP PUSH0 SLOAD PUSH1 0x40 MLOAD PUSH4 0x16B9C5DF PUSH1 0xE1 SHL DUP2 MSTORE PUSH1 0x1 PUSH1 0x1 PUSH1 0xA0 SHL SUB SWAP1 SWAP2 AND SWAP3 POP PUSH4 0x2D738BBE SWAP2 POP PUSH7 0x470DE4DF820000 SWAP1 PUSH2 0xEB SWAP1 PUSH1 0x1 SWAP1 PUSH7 0xB1A2BC2EC50000 SWAP1 PUSH1 0x4 ADD PUSH2 0xC55 JUMP JUMPDEST PUSH20 0x0 PUSH4 0xABCD7960 PUSH0 DUP1 SLOAD SWAP1 PUSH2 0x100 EXP SWAP1 DIV PUSH1 0x1 PUSH1 0x1 PUSH1 0xA0 SHL SUB AND PUSH1 0x1 PUSH1 0x1 PUSH1 0xA0 SHL SUB AND PUSH4 0x420E8445 PUSH1 0x40 MLOAD DUP2 PUSH4 0xFFFFFFFF AND PUSH1 0xE0 SHL DUP2 MSTORE PUSH1 0x4 ADD PUSH1 0x20 PUSH1 0x40 MLOAD DUP1 DUP4 SUB DUP2 DUP7 GAS STATICCALL ISZERO DUP1 ISZERO PUSH2 0xA3C JUMPI RETURNDATASIZE PUSH0 DUP1 RETURNDATACOPY RETURNDATASIZE PUSH0 REVERT JUMPDEST POP POP POP POP PUSH1 0x40 MLOAD RETURNDATASIZE PUSH1 0x1F NOT PUSH1 0x1F DUP3 ADD AND DUP3 ADD DUP1 PUSH1 0x40 MSTORE POP DUP2 ADD SWAP1 PUSH2 0xA60 SWAP2 SWAP1 PUSH2 0xCEA JUMP JUMPDEST PUSH1 0x40 MLOAD PUSH1 0x1 PUSH1 0x1 PUSH1 0xE0 SHL SUB NOT PUSH1 0xE0 DUP5 SWAP1 SHL AND DUP2 MSTORE PUSH1 0x4 DUP2 ADD SWAP2 SWAP1 SWAP2 MSTORE PUSH0 PUSH1 0x24 DUP3 ADD MSTORE PUSH1 0x60 PUSH1 0x44 DUP3 ADD MSTORE PUSH1 0x21 PUSH1 0x64 DUP3 ADD MSTORE PUSH32 0x696E697469616C206974656D20636F756E7420646F6573206E6F74206D617463 PUSH1 0x84 DUP3 ADD MSTORE PUSH1 0xD PUSH1 0xFB SHL PUSH1 0xA4 DUP3 ADD MSTORE PUSH1 0xC4 ADD PUSH2 0x268 JUMP JUMPDEST PUSH0 DUP1 SLOAD PUSH1 0x40 DUP1 MLOAD PUSH4 0x6FDDE03 PUSH1 0xE0 SHL DUP2 MSTORE SWAP1 MLOAD PUSH20 0x0 SWAP4 PUSH4 0xE8C2CB16 SWAP4 PUSH1 0x1 PUSH1 0x1 PUSH1 0xA0 SHL SUB AND SWAP3 PUSH4 0x6FDDE03 SWAP3 PUSH1 0x4 DUP1 DUP4 ADD SWAP4 SWAP3 DUP3 SWAP1 SUB ADD DUP2 DUP7 GAS STATICCALL ISZERO DUP1 ISZERO PUSH2 0xB25 JUMPI RETURNDATASIZE PUSH0 DUP1 RETURNDATACOPY RETURNDATASIZE PUSH0 REVERT JUMPDEST POP POP POP POP PUSH1 0x40 MLOAD RETURNDATASIZE PUSH0 DUP3 RETURNDATACOPY PUSH1 0x1F RETURNDATASIZE SWAP1 DUP2 ADD PUSH1 0x1F NOT AND DUP3 ADD PUSH1 0x40 MSTORE PUSH2 0xB4C SWAP2 SWAP1 DUP2 ADD SWAP1 PUSH2 0x1166 JUMP JUMPDEST PUSH1 0x40 MLOAD DUP3 PUSH4 0xFFFFFFFF AND PUSH1 0xE0 SHL DUP2 MSTORE PUSH1 0x4 ADD PUSH2 0xB68 SWAP2 SWAP1 PUSH2 0x1198 JUMP JUMPDEST PUSH1 0x20 PUSH1 0x40 MLOAD DUP1 DUP4 SUB DUP2 DUP7 GAS DELEGATECALL ISZERO DUP1 ISZERO PUSH2 0xB83 JUMPI RETURNDATASIZE PUSH0 DUP1 RETURNDATACOPY RETURNDATASIZE PUSH0 REVERT JUMPDEST POP POP POP POP PUSH1 0x40 MLOAD RETURNDATASIZE PUSH1 0x1F NOT PUSH1 0x1F DUP3 ADD AND DUP3 ADD DUP1 PUSH1 0x40 MSTORE POP DUP2 ADD SWAP1 PUSH2 0xBA7 SWAP2 SWAP1 PUSH2 0xE43 JUMP JUMPDEST POP PUSH0 DUP1 SLOAD PUSH1 0x40 DUP1 MLOAD PUSH4 0x95D89B41 PUSH1 0xE0 SHL DUP2 MSTORE SWAP1 MLOAD PUSH20 0x0 SWAP4 PUSH4 0xE8C2CB16 SWAP4 PUSH1 0x1 PUSH1 0x1 PUSH1 0xA0 SHL SUB AND SWAP3 PUSH4 0x95D89B41 SWAP3 PUSH1 0x4 DUP1 DUP4 ADD SWAP4 SWAP3 DUP3 SWAP1 SUB ADD DUP2 DUP7 GAS STATICCALL ISZERO DUP1 ISZERO PUSH2 0xC05 JUMPI RETURNDATASIZE PUSH0 DUP1 RETURNDATACOPY RETURNDATASIZE PUSH0 REVERT JUMPDEST POP POP POP POP PUSH1 0x40 MLOAD RETURNDATASIZE PUSH0 DUP3 RETURNDATACOPY PUSH1 0x1F RETURNDATASIZE SWAP1 DUP2 ADD PUSH1 0x1F NOT AND DUP3 ADD PUSH1 0x40 MSTORE PUSH2 0xC2C SWAP2 SWAP1 DUP2 ADD SWAP1 PUSH2 0x1166 JUMP JUMPDEST PUSH1 0x40 MLOAD DUP3 PUSH4 0xFFFFFFFF AND PUSH1 0xE0 SHL DUP2 MSTORE PUSH1 0x4 ADD PUSH2 0x268 SWAP2 SWAP1 PUSH2 0x120F JUMP JUMPDEST PUSH2 0x206E DUP1 PUSH2 0x1280 DUP4 CODECOPY ADD SWAP1 JUMP JUMPDEST PUSH1 0xA0 DUP2 MSTORE PUSH0 PUSH2 0xC78 PUSH1 0xA0 DUP4 ADD PUSH1 0x4 DUP2 MSTORE PUSH4 0x1D195CDD PUSH1 0xE2 SHL PUSH1 0x20 DUP3 ADD MSTORE PUSH1 0x40 ADD SWAP1 JUMP JUMPDEST DUP3 DUP2 SUB PUSH1 0x20 DUP5 ADD MSTORE PUSH2 0xCAE DUP2 PUSH1 0x17 DUP2 MSTORE PUSH23 0x68747470733A2F2F676F6F676C652E636F6D2F696D6731 PUSH1 0x48 SHL PUSH1 0x20 DUP3 ADD MSTORE PUSH1 0x40 ADD SWAP1 JUMP JUMPDEST SWAP1 POP DUP3 DUP2 SUB PUSH1 0x40 DUP5 ADD MSTORE PUSH2 0xCD9 DUP2 PUSH1 0xA DUP2 MSTORE PUSH10 0x3132333435363738393 PUSH1 0xB4 SHL PUSH1 0x20 DUP3 ADD MSTORE PUSH1 0x40 ADD SWAP1 JUMP JUMPDEST SWAP5 ISZERO ISZERO PUSH1 0x60 DUP5 ADD MSTORE POP POP PUSH1 0x80 ADD MSTORE SWAP1 JUMP JUMPDEST PUSH0 PUSH1 0x20 DUP3 DUP5 SUB SLT ISZERO PUSH2 0xCFA JUMPI PUSH0 DUP1 REVERT JUMPDEST POP MLOAD SWAP2 SWAP1 POP JUMP JUMPDEST PUSH0 PUSH1 0x3 RETURNDATASIZE GT ISZERO PUSH2 0xD17 JUMPI PUSH1 0x4 PUSH0 DUP1 RETURNDATACOPY POP PUSH0 MLOAD PUSH1 0xE0 SHR JUMPDEST SWAP1 JUMP JUMPDEST PUSH4 0x4E487B71 PUSH1 0xE0 SHL PUSH0 MSTORE PUSH1 0x41 PUSH1 0x4 MSTORE PUSH1 0x24 PUSH0 REVERT JUMPDEST PUSH1 0x1F DUP3 ADD PUSH1 0x1F NOT AND DUP2 ADD PUSH8 0xFFFFFFFFFFFFFFFF DUP2 GT DUP3 DUP3 LT OR ISZERO PUSH2 0xD54 JUMPI PUSH2 0xD54 PUSH2 0xD1A JUMP JUMPDEST PUSH1 0x40 MSTORE POP POP JUMP JUMPDEST PUSH0 PUSH1 0x44 RETURNDATASIZE LT ISZERO PUSH2 0xD68 JUMPI SWAP1 JUMP JUMPDEST PUSH1 0x40 MLOAD RETURNDATASIZE PUSH1 0x3 NOT ADD PUSH1 0x4 DUP3 RETURNDATACOPY DUP1 MLOAD RETURNDATASIZE PUSH1 0x24 DUP3 ADD GT PUSH8 0xFFFFFFFFFFFFFFFF DUP3 GT OR ISZERO PUSH2 0xD92 JUMPI POP POP SWAP1 JUMP JUMPDEST DUP1 DUP3 ADD DUP1 MLOAD PUSH8 0xFFFFFFFFFFFFFFFF DUP2 GT ISZERO PUSH2 0xDAE JUMPI POP POP POP POP SWAP1 JUMP JUMPDEST RETURNDATASIZE DUP5 ADD PUSH1 0x3 NOT ADD DUP3 DUP3 ADD PUSH1 0x20 ADD GT ISZERO PUSH2 0xDC8 JUMPI POP POP POP POP SWAP1 JUMP JUMPDEST PUSH2 0xDD7 PUSH1 0x20 DUP3 DUP6 ADD ADD DUP6 PUSH2 0xD2E JUMP JUMPDEST POP SWAP4 SWAP3 POP POP POP JUMP JUMPDEST PUSH0 DUP2 MLOAD DUP1 DUP5 MSTORE DUP1 PUSH1 0x20 DUP5 ADD PUSH1 0x20 DUP7 ADD MCOPY PUSH0 PUSH1 0x20 DUP3 DUP7 ADD ADD MSTORE PUSH1 0x20 PUSH1 0x1F NOT PUSH1 0x1F DUP4 ADD AND DUP6 ADD ADD SWAP2 POP POP SWAP3 SWAP2 POP POP JUMP JUMPDEST DUP3 ISZERO ISZERO DUP2 MSTORE PUSH1 0x40 PUSH1 0x20 DUP3 ADD MSTORE PUSH0 PUSH2 0xE27 PUSH1 0x40 DUP4 ADD DUP5 PUSH2 0xDDF JUMP JUMPDEST SWAP5 SWAP4 POP POP POP POP JUMP JUMPDEST DUP1 MLOAD DUP1 ISZERO ISZERO DUP2 EQ PUSH2 0xE3E JUMPI PUSH0 DUP1 REVERT JUMPDEST SWAP2 SWAP1 POP JUMP JUMPDEST PUSH0 PUSH1 0x20 DUP3 DUP5 SUB SLT ISZERO PUSH2 0xE53 JUMPI PUSH0 DUP1 REVERT JUMPDEST PUSH2 0xE5C DUP3 PUSH2 0xE2F JUMP JUMPDEST SWAP4 SWAP3 POP POP POP JUMP JUMPDEST PUSH1 0x60 DUP2 MSTORE PUSH0 PUSH2 0xE75 PUSH1 0x60 DUP4 ADD DUP5 PUSH2 0xDDF JUMP JUMPDEST DUP3 DUP2 SUB DUP1 PUSH1 0x20 DUP6 ADD MSTORE PUSH1 0x1 DUP3 MSTORE PUSH1 0x2D PUSH1 0xF8 SHL PUSH1 0x20 DUP4 ADD MSTORE PUSH1 0x40 DUP2 ADD PUSH1 0x40 DUP6 ADD MSTORE POP PUSH1 0x16 PUSH1 0x40 DUP3 ADD MSTORE PUSH22 0x141D589B1A5CDA1A5B99C81A5D195B4819985A5B1959 PUSH1 0x52 SHL PUSH1 0x60 DUP3 ADD MSTORE PUSH1 0x80 DUP2 ADD SWAP2 POP POP SWAP3 SWAP2 POP POP JUMP JUMPDEST PUSH1 0x40 MLOAD PUSH2 0xD17 PUSH1 0xA0 DUP3 PUSH2 0xD2E JUMP JUMPDEST PUSH0 DUP3 PUSH1 0x1F DUP4 ADD SLT PUSH2 0xEE6 JUMPI PUSH0 DUP1 REVERT JUMPDEST DUP2 MLOAD PUSH8 0xFFFFFFFFFFFFFFFF DUP2 GT ISZERO PUSH2 0xF00 JUMPI PUSH2 0xF00 PUSH2 0xD1A JUMP JUMPDEST PUSH1 0x40 MLOAD PUSH2 0xF17 PUSH1 0x1F DUP4 ADD PUSH1 0x1F NOT AND PUSH1 0x20 ADD DUP3 PUSH2 0xD2E JUMP JUMPDEST DUP2 DUP2 MSTORE DUP5 PUSH1 0x20 DUP4 DUP7 ADD ADD GT ISZERO PUSH2 0xF2B JUMPI PUSH0 DUP1 REVERT JUMPDEST DUP2 PUSH1 0x20 DUP6 ADD PUSH1 0x20 DUP4 ADD MCOPY PUSH0 SWAP2 DUP2 ADD PUSH1 0x20 ADD SWAP2 SWAP1 SWAP2 MSTORE SWAP4 SWAP3 POP POP POP JUMP JUMPDEST PUSH0 PUSH1 0x20 DUP3 DUP5 SUB SLT ISZERO PUSH2 0xF57 JUMPI PUSH0 DUP1 REVERT JUMPDEST DUP2 MLOAD PUSH8 0xFFFFFFFFFFFFFFFF DUP2 GT ISZERO PUSH2 0xF6D JUMPI PUSH0 DUP1 REVERT JUMPDEST DUP3 ADD PUSH1 0xA0 DUP2 DUP6 SUB SLT ISZERO PUSH2 0xF7E JUMPI PUSH0 DUP1 REVERT JUMPDEST PUSH2 0xF86 PUSH2 0xEC9 JUMP JUMPDEST DUP2 MLOAD PUSH8 0xFFFFFFFFFFFFFFFF DUP2 GT ISZERO PUSH2 0xF9C JUMPI PUSH0 DUP1 REVERT JUMPDEST PUSH2 0xFA8 DUP7 DUP3 DUP6 ADD PUSH2 0xED7 JUMP JUMPDEST DUP3 MSTORE POP PUSH1 0x20 DUP3 ADD MLOAD PUSH8 0xFFFFFFFFFFFFFFFF DUP2 GT ISZERO PUSH2 0xFC4 JUMPI PUSH0 DUP1 REVERT JUMPDEST PUSH2 0xFD0 DUP7 DUP3 DUP6 ADD PUSH2 0xED7 JUMP JUMPDEST PUSH1 0x20 DUP4 ADD MSTORE POP PUSH1 0x40 DUP3 ADD MLOAD PUSH8 0xFFFFFFFFFFFFFFFF DUP2 GT ISZERO PUSH2 0xFEF JUMPI PUSH0 DUP1 REVERT JUMPDEST PUSH2 0xFFB DUP7 DUP3 DUP6 ADD PUSH2 0xED7 JUMP JUMPDEST PUSH1 0x40 DUP4 ADD MSTORE POP PUSH2 0x100D PUSH1 0x60 DUP4 ADD PUSH2 0xE2F JUMP JUMPDEST PUSH1 0x60 DUP3 ADD MSTORE PUSH1 0x80 SWAP2 DUP3 ADD MLOAD SWAP2 DUP2 ADD SWAP2 SWAP1 SWAP2 MSTORE SWAP4 SWAP3 POP POP POP JUMP JUMPDEST PUSH1 0x60 DUP2 MSTORE PUSH0 PUSH2 0x1038 PUSH1 0x60 DUP4 ADD DUP5 PUSH2 0xDDF JUMP JUMPDEST DUP3 DUP2 SUB PUSH1 0x20 DUP5 ADD MSTORE PUSH2 0x105B DUP2 PUSH1 0x4 DUP2 MSTORE PUSH4 0x1D195CDD PUSH1 0xE2 SHL PUSH1 0x20 DUP3 ADD MSTORE PUSH1 0x40 ADD SWAP1 JUMP JUMPDEST DUP4 DUP2 SUB PUSH1 0x40 SWAP5 DUP6 ADD MSTORE PUSH1 0x1C DUP2 MSTORE PUSH32 0x72657475726E6564206E616D6520646F6573206E6F74206D6174636800000000 PUSH1 0x20 DUP3 ADD MSTORE SWAP3 SWAP1 SWAP3 ADD SWAP4 SWAP3 POP POP POP JUMP JUMPDEST PUSH1 0x60 DUP2 MSTORE PUSH0 PUSH2 0x10AB PUSH1 0x60 DUP4 ADD DUP5 PUSH2 0xDDF JUMP JUMPDEST DUP3 DUP2 SUB PUSH1 0x20 DUP5 ADD MSTORE PUSH2 0x10E1 DUP2 PUSH1 0x17 DUP2 MSTORE PUSH23 0x68747470733A2F2F676F6F676C652E636F6D2F696D6731 PUSH1 0x48 SHL PUSH1 0x20 DUP3 ADD MSTORE PUSH1 0x40 ADD SWAP1 JUMP JUMPDEST SWAP1 POP DUP3 DUP2 SUB PUSH1 0x40 DUP5 ADD MSTORE PUSH2 0xE27 DUP2 PUSH1 0x23 DUP2 MSTORE PUSH32 0x72657475726E6564206465736372697074696F6E20646F6573206E6F74206D61 PUSH1 0x20 DUP3 ADD MSTORE PUSH3 0xE8C6D PUSH1 0xEB SHL PUSH1 0x40 DUP3 ADD MSTORE PUSH1 0x60 ADD SWAP1 JUMP JUMPDEST PUSH1 0x60 DUP2 MSTORE PUSH0 PUSH2 0x113D PUSH1 0x60 DUP4 ADD DUP5 PUSH2 0xDDF JUMP JUMPDEST DUP3 DUP2 SUB PUSH1 0x20 DUP5 ADD MSTORE PUSH2 0x10E1 DUP2 PUSH1 0xA DUP2 MSTORE PUSH10 0x3132333435363738393 PUSH1 0xB4 SHL PUSH1 0x20 DUP3 ADD MSTORE PUSH1 0x40 ADD SWAP1 JUMP JUMPDEST PUSH0 PUSH1 0x20 DUP3 DUP5 SUB SLT ISZERO PUSH2 0x1176 JUMPI PUSH0 DUP1 REVERT JUMPDEST DUP2 MLOAD PUSH8 0xFFFFFFFFFFFFFFFF DUP2 GT ISZERO PUSH2 0x118C JUMPI PUSH0 DUP1 REVERT JUMPDEST PUSH2 0xE27 DUP5 DUP3 DUP6 ADD PUSH2 0xED7 JUMP JUMPDEST PUSH1 0x60 DUP2 MSTORE PUSH0 PUSH2 0x11AA PUSH1 0x60 DUP4 ADD DUP5 PUSH2 0xDDF JUMP JUMPDEST DUP3 DUP2 SUB DUP1 PUSH1 0x20 DUP6 ADD MSTORE PUSH1 0xB DUP3 MSTORE PUSH11 0x4D61726B6574706C616365 PUSH1 0xA8 SHL PUSH1 0x20 DUP4 ADD MSTORE PUSH1 0x40 DUP2 ADD PUSH1 0x40 DUP6 ADD MSTORE POP PUSH1 0x18 PUSH1 0x40 DUP3 ADD MSTORE PUSH32 0x746F6B656E206E616D6520646964206E6F74206D617463680000000000000000 PUSH1 0x60 DUP3 ADD MSTORE PUSH1 0x80 DUP2 ADD SWAP2 POP POP SWAP3 SWAP2 POP POP JUMP JUMPDEST PUSH1 0x60 DUP2 MSTORE PUSH0 PUSH2 0x1221 PUSH1 0x60 DUP4 ADD DUP5 PUSH2 0xDDF JUMP JUMPDEST DUP3 DUP2 SUB DUP1 PUSH1 0x20 DUP6 ADD MSTORE PUSH1 0x4 DUP3 MSTORE PUSH4 0x4D4B545 PUSH1 0xE4 SHL PUSH1 0x20 DUP4 ADD MSTORE PUSH1 0x40 DUP2 ADD PUSH1 0x40 DUP6 ADD MSTORE POP PUSH1 0x1A PUSH1 0x40 DUP3 ADD MSTORE PUSH32 0x746F6B656E2073796D626F6C20646964206E6F74206D61746368000000000000 PUSH1 0x60 DUP3 ADD MSTORE PUSH1 0x80 DUP2 ADD SWAP2 POP POP SWAP3 SWAP2 POP POP JUMP INVALID PUSH1 0xA0 PUSH1 0x40 MSTORE PUSH0 PUSH1 0x80 SWAP1 DUP2 MSTORE PUSH1 0x8 SWAP1 PUSH2 0x17 SWAP1 DUP3 PUSH2 0x1BC JUMP JUMPDEST POP PUSH7 0x2386F26FC10000 PUSH1 0x9 SSTORE CALLVALUE DUP1 ISZERO PUSH2 0x2E JUMPI PUSH0 DUP1 REVERT JUMPDEST POP CALLER PUSH1 0x40 MLOAD DUP1 PUSH1 0x40 ADD PUSH1 0x40 MSTORE DUP1 PUSH1 0xB DUP2 MSTORE PUSH1 0x20 ADD PUSH11 0x4D61726B6574706C616365 PUSH1 0xA8 SHL DUP2 MSTORE POP PUSH1 0x40 MLOAD DUP1 PUSH1 0x40 ADD PUSH1 0x40 MSTORE DUP1 PUSH1 0x4 DUP2 MSTORE PUSH1 0x20 ADD PUSH4 0x4D4B545 PUSH1 0xE4 SHL DUP2 MSTORE POP DUP2 PUSH0 SWAP1 DUP2 PUSH2 0x7F SWAP2 SWAP1 PUSH2 0x1BC JUMP JUMPDEST POP PUSH1 0x1 PUSH2 0x8C DUP3 DUP3 PUSH2 0x1BC JUMP JUMPDEST POP POP POP PUSH1 0x1 PUSH1 0x1 PUSH1 0xA0 SHL SUB DUP2 AND PUSH2 0xBC JUMPI PUSH1 0x40 MLOAD PUSH4 0x1E4FBDF7 PUSH1 0xE0 SHL DUP2 MSTORE PUSH0 PUSH1 0x4 DUP3 ADD MSTORE PUSH1 0x24 ADD PUSH1 0x40 MLOAD DUP1 SWAP2 SUB SWAP1 REVERT JUMPDEST PUSH2 0xC5 DUP2 PUSH2 0xCB JUMP JUMPDEST POP PUSH2 0x276 JUMP JUMPDEST PUSH1 0x7 DUP1 SLOAD PUSH1 0x1 PUSH1 0x1 PUSH1 0xA0 SHL SUB DUP4 DUP2 AND PUSH2 0x100 DUP2 DUP2 MUL PUSH2 0x100 PUSH1 0x1 PUSH1 0xA8 SHL SUB NOT DUP6 AND OR SWAP1 SWAP5 SSTORE PUSH1 0x40 MLOAD SWAP4 SWAP1 SWAP3 DIV AND SWAP2 DUP3 SWAP1 PUSH32 0x8BE0079C531659141344CD1FD0A4F28419497F9722A3DAAFE3B4186F6B6457E0 SWAP1 PUSH0 SWAP1 LOG3 POP POP JUMP JUMPDEST PUSH4 0x4E487B71 PUSH1 0xE0 SHL PUSH0 MSTORE PUSH1 0x41 PUSH1 0x4 MSTORE PUSH1 0x24 PUSH0 REVERT JUMPDEST PUSH1 0x1 DUP2 DUP2 SHR SWAP1 DUP3 AND DUP1 PUSH2 0x14C JUMPI PUSH1 0x7F DUP3 AND SWAP2 POP JUMPDEST PUSH1 0x20 DUP3 LT DUP2 SUB PUSH2 0x16A JUMPI PUSH4 0x4E487B71 PUSH1 0xE0 SHL PUSH0 MSTORE PUSH1 0x22 PUSH1 0x4 MSTORE PUSH1 0x24 PUSH0 REVERT JUMPDEST POP SWAP2 SWAP1 POP JUMP JUMPDEST PUSH1 0x1F DUP3 GT ISZERO PUSH2 0x1B7 JUMPI DUP1 PUSH0 MSTORE PUSH1 0x20 PUSH0 KECCAK256 PUSH1 0x1F DUP5 ADD PUSH1 0x5 SHR DUP2 ADD PUSH1 0x20 DUP6 LT ISZERO PUSH2 0x195 JUMPI POP DUP1 JUMPDEST PUSH1 0x1F DUP5 ADD PUSH1 0x5 SHR DUP3 ADD SWAP2 POP JUMPDEST DUP2 DUP2 LT ISZERO PUSH2 0x1B4 JUMPI PUSH0 DUP2 SSTORE PUSH1 0x1 ADD PUSH2 0x1A1 JUMP JUMPDEST POP POP JUMPDEST POP POP POP JUMP JUMPDEST DUP2 MLOAD PUSH1 0x1 PUSH1 0x1 PUSH1 0x40 SHL SUB DUP2 GT ISZERO PUSH2 0x1D5 JUMPI PUSH2 0x1D5 PUSH2 0x124 JUMP JUMPDEST PUSH2 0x1E9 DUP2 PUSH2 0x1E3 DUP5 SLOAD PUSH2 0x138 JUMP JUMPDEST DUP5 PUSH2 0x170 JUMP JUMPDEST PUSH1 0x20 PUSH1 0x1F DUP3 GT PUSH1 0x1 DUP2 EQ PUSH2 0x21B JUMPI PUSH0 DUP4 ISZERO PUSH2 0x204 JUMPI POP DUP5 DUP3 ADD MLOAD JUMPDEST PUSH0 NOT PUSH1 0x3 DUP6 SWAP1 SHL SHR NOT AND PUSH1 0x1 DUP5 SWAP1 SHL OR DUP5 SSTORE PUSH2 0x1B4 JUMP JUMPDEST PUSH0 DUP5 DUP2 MSTORE PUSH1 0x20 DUP2 KECCAK256 PUSH1 0x1F NOT DUP6 AND SWAP2 JUMPDEST DUP3 DUP2 LT ISZERO PUSH2 0x24A JUMPI DUP8 DUP6 ADD MLOAD DUP3 SSTORE PUSH1 0x20 SWAP5 DUP6 ADD SWAP5 PUSH1 0x1 SWAP1 SWAP3 ADD SWAP2 ADD PUSH2 0x22A JUMP JUMPDEST POP DUP5 DUP3 LT ISZERO PUSH2 0x267 JUMPI DUP7 DUP5 ADD MLOAD PUSH0 NOT PUSH1 0x3 DUP8 SWAP1 SHL PUSH1 0xF8 AND SHR NOT AND DUP2 SSTORE JUMPDEST POP POP POP POP PUSH1 0x1 SWAP1 DUP2 SHL ADD SWAP1 SSTORE POP JUMP JUMPDEST PUSH2 0x1DEB DUP1 PUSH2 0x283 PUSH0 CODECOPY PUSH0 RETURN INVALID PUSH1 0x80 PUSH1 0x40 MSTORE PUSH1 0x4 CALLDATASIZE LT PUSH2 0x195 JUMPI PUSH0 CALLDATALOAD PUSH1 0xE0 SHR DUP1 PUSH4 0x6352211E GT PUSH2 0xE7 JUMPI DUP1 PUSH4 0x95D89B41 GT PUSH2 0x87 JUMPI DUP1 PUSH4 0xC7BE7A49 GT PUSH2 0x62 JUMPI DUP1 PUSH4 0xC7BE7A49 EQ PUSH2 0x442 JUMPI DUP1 PUSH4 0xC87B56DD EQ PUSH2 0x46E JUMPI DUP1 PUSH4 0xE985E9C5 EQ PUSH2 0x48D JUMPI DUP1 PUSH4 0xF2FDE38B EQ PUSH2 0x4AC JUMPI PUSH0 DUP1 REVERT JUMPDEST DUP1 PUSH4 0x95D89B41 EQ PUSH2 0x3F0 JUMPI DUP1 PUSH4 0xA22CB465 EQ PUSH2 0x404 JUMPI DUP1 PUSH4 0xB88D4FDE EQ PUSH2 0x423 JUMPI PUSH0 DUP1 REVERT JUMPDEST DUP1 PUSH4 0x8422AB59 GT PUSH2 0xC2 JUMPI DUP1 PUSH4 0x8422AB59 EQ PUSH2 0x388 JUMPI DUP1 PUSH4 0x8456CB59 EQ PUSH2 0x3A7 JUMPI DUP1 PUSH4 0x8DA5CB5B EQ PUSH2 0x3BB JUMPI DUP1 PUSH4 0x8DE93222 EQ PUSH2 0x3DD JUMPI PUSH0 DUP1 REVERT JUMPDEST DUP1 PUSH4 0x6352211E EQ PUSH2 0x336 JUMPI DUP1 PUSH4 0x70A08231 EQ PUSH2 0x355 JUMPI DUP1 PUSH4 0x715018A6 EQ PUSH2 0x374 JUMPI PUSH0 DUP1 REVERT JUMPDEST DUP1 PUSH4 0x30176E13 GT PUSH2 0x152 JUMPI DUP1 PUSH4 0x420E8445 GT PUSH2 0x12D JUMPI DUP1 PUSH4 0x420E8445 EQ PUSH2 0x2CD JUMPI DUP1 PUSH4 0x42842E0E EQ PUSH2 0x2E1 JUMPI DUP1 PUSH4 0x48006C33 EQ PUSH2 0x300 JUMPI DUP1 PUSH4 0x5C975ABB EQ PUSH2 0x31F JUMPI PUSH0 DUP1 REVERT JUMPDEST DUP1 PUSH4 0x30176E13 EQ PUSH2 0x286 JUMPI DUP1 PUSH4 0x3DD0A7C6 EQ PUSH2 0x2A5 JUMPI DUP1 PUSH4 0x3F4BA83A EQ PUSH2 0x2B9 JUMPI PUSH0 DUP1 REVERT JUMPDEST DUP1 PUSH4 0x1FFC9A7 EQ PUSH2 0x199 JUMPI DUP1 PUSH4 0x6FDDE03 EQ PUSH2 0x1CD JUMPI DUP1 PUSH4 0x81812FC EQ PUSH2 0x1EE JUMPI DUP1 PUSH4 0x95EA7B3 EQ PUSH2 0x225 JUMPI DUP1 PUSH4 0x23B872DD EQ PUSH2 0x246 JUMPI DUP1 PUSH4 0x2D738BBE EQ PUSH2 0x265 JUMPI JUMPDEST PUSH0 DUP1 REVERT JUMPDEST CALLVALUE DUP1 ISZERO PUSH2 0x1A4 JUMPI PUSH0 DUP1 REVERT JUMPDEST POP PUSH2 0x1B8 PUSH2 0x1B3 CALLDATASIZE PUSH1 0x4 PUSH2 0x17DB JUMP JUMPDEST PUSH2 0x4CB JUMP JUMPDEST PUSH1 0x40 MLOAD SWAP1 ISZERO ISZERO DUP2 MSTORE PUSH1 0x20 ADD JUMPDEST PUSH1 0x40 MLOAD DUP1 SWAP2 SUB SWAP1 RETURN JUMPDEST CALLVALUE DUP1 ISZERO PUSH2 0x1D8 JUMPI PUSH0 DUP1 REVERT JUMPDEST POP PUSH2 0x1E1 PUSH2 0x4F5 JUMP JUMPDEST PUSH1 0x40 MLOAD PUSH2 0x1C4 SWAP2 SWAP1 PUSH2 0x1824 JUMP JUMPDEST CALLVALUE DUP1 ISZERO PUSH2 0x1F9 JUMPI PUSH0 DUP1 REVERT JUMPDEST POP PUSH2 0x20D PUSH2 0x208 CALLDATASIZE PUSH1 0x4 PUSH2 0x1836 JUMP JUMPDEST PUSH2 0x584 JUMP JUMPDEST PUSH1 0x40 MLOAD PUSH1 0x1 PUSH1 0x1 PUSH1 0xA0 SHL SUB SWAP1 SWAP2 AND DUP2 MSTORE PUSH1 0x20 ADD PUSH2 0x1C4 JUMP JUMPDEST CALLVALUE DUP1 ISZERO PUSH2 0x230 JUMPI PUSH0 DUP1 REVERT JUMPDEST POP PUSH2 0x244 PUSH2 0x23F CALLDATASIZE PUSH1 0x4 PUSH2 0x1863 JUMP JUMPDEST PUSH2 0x5AB JUMP JUMPDEST STOP JUMPDEST CALLVALUE DUP1 ISZERO PUSH2 0x251 JUMPI PUSH0 DUP1 REVERT JUMPDEST POP PUSH2 0x244 PUSH2 0x260 CALLDATASIZE PUSH1 0x4 PUSH2 0x188B JUMP JUMPDEST PUSH2 0x5BA JUMP JUMPDEST PUSH2 0x278 PUSH2 0x273 CALLDATASIZE PUSH1 0x4 PUSH2 0x197D JUMP JUMPDEST PUSH2 0x648 JUMP JUMPDEST PUSH1 0x40 MLOAD SWAP1 DUP2 MSTORE PUSH1 0x20 ADD PUSH2 0x1C4 JUMP JUMPDEST CALLVALUE DUP1 ISZERO PUSH2 0x291 JUMPI PUSH0 DUP1 REVERT JUMPDEST POP PUSH2 0x244 PUSH2 0x2A0 CALLDATASIZE PUSH1 0x4 PUSH2 0x1A23 JUMP JUMPDEST PUSH2 0x7FE JUMP JUMPDEST CALLVALUE DUP1 ISZERO PUSH2 0x2B0 JUMPI PUSH0 DUP1 REVERT JUMPDEST POP PUSH1 0x9 SLOAD PUSH2 0x278 JUMP JUMPDEST CALLVALUE DUP1 ISZERO PUSH2 0x2C4 JUMPI PUSH0 DUP1 REVERT JUMPDEST POP PUSH2 0x244 PUSH2 0x812 JUMP JUMPDEST CALLVALUE DUP1 ISZERO PUSH2 0x2D8 JUMPI PUSH0 DUP1 REVERT JUMPDEST POP PUSH2 0x278 PUSH2 0x824 JUMP JUMPDEST CALLVALUE DUP1 ISZERO PUSH2 0x2EC JUMPI PUSH0 DUP1 REVERT JUMPDEST POP PUSH2 0x244 PUSH2 0x2FB CALLDATASIZE PUSH1 0x4 PUSH2 0x188B JUMP JUMPDEST PUSH2 0x834 JUMP JUMPDEST CALLVALUE DUP1 ISZERO PUSH2 0x30B JUMPI PUSH0 DUP1 REVERT JUMPDEST POP PUSH2 0x244 PUSH2 0x31A CALLDATASIZE PUSH1 0x4 PUSH2 0x1A55 JUMP JUMPDEST PUSH2 0x853 JUMP JUMPDEST CALLVALUE DUP1 ISZERO PUSH2 0x32A JUMPI PUSH0 DUP1 REVERT JUMPDEST POP PUSH1 0x7 SLOAD PUSH1 0xFF AND PUSH2 0x1B8 JUMP JUMPDEST CALLVALUE DUP1 ISZERO PUSH2 0x341 JUMPI PUSH0 DUP1 REVERT JUMPDEST POP PUSH2 0x20D PUSH2 0x350 CALLDATASIZE PUSH1 0x4 PUSH2 0x1836 JUMP JUMPDEST PUSH2 0x903 JUMP JUMPDEST CALLVALUE DUP1 ISZERO PUSH2 0x360 JUMPI PUSH0 DUP1 REVERT JUMPDEST POP PUSH2 0x278 PUSH2 0x36F CALLDATASIZE PUSH1 0x4 PUSH2 0x1A7F JUMP JUMPDEST PUSH2 0x90D JUMP JUMPDEST CALLVALUE DUP1 ISZERO PUSH2 0x37F JUMPI PUSH0 DUP1 REVERT JUMPDEST POP PUSH2 0x244 PUSH2 0x952 JUMP JUMPDEST CALLVALUE DUP1 ISZERO PUSH2 0x393 JUMPI PUSH0 DUP1 REVERT JUMPDEST POP PUSH2 0x244 PUSH2 0x3A2 CALLDATASIZE PUSH1 0x4 PUSH2 0x1836 JUMP JUMPDEST PUSH2 0x963 JUMP JUMPDEST CALLVALUE DUP1 ISZERO PUSH2 0x3B2 JUMPI PUSH0 DUP1 REVERT JUMPDEST POP PUSH2 0x244 PUSH2 0x9E2 JUMP JUMPDEST CALLVALUE DUP1 ISZERO PUSH2 0x3C6 JUMPI PUSH0 DUP1 REVERT JUMPDEST POP PUSH1 0x7 SLOAD PUSH2 0x100 SWAP1 DIV PUSH1 0x1 PUSH1 0x1 PUSH1 0xA0 SHL SUB AND PUSH2 0x20D JUMP JUMPDEST PUSH2 0x244 PUSH2 0x3EB CALLDATASIZE PUSH1 0x4 PUSH2 0x1863 JUMP JUMPDEST PUSH2 0x9F2 JUMP JUMPDEST CALLVALUE DUP1 ISZERO PUSH2 0x3FB JUMPI PUSH0 DUP1 REVERT JUMPDEST POP PUSH2 0x1E1 PUSH2 0xA5D JUMP JUMPDEST CALLVALUE DUP1 ISZERO PUSH2 0x40F JUMPI PUSH0 DUP1 REVERT JUMPDEST POP PUSH2 0x244 PUSH2 0x41E CALLDATASIZE PUSH1 0x4 PUSH2 0x1A98 JUMP JUMPDEST PUSH2 0xA6C JUMP JUMPDEST CALLVALUE DUP1 ISZERO PUSH2 0x42E JUMPI PUSH0 DUP1 REVERT JUMPDEST POP PUSH2 0x244 PUSH2 0x43D CALLDATASIZE PUSH1 0x4 PUSH2 0x1AC0 JUMP JUMPDEST PUSH2 0xA77 JUMP JUMPDEST CALLVALUE DUP1 ISZERO PUSH2 0x44D JUMPI PUSH0 DUP1 REVERT JUMPDEST POP PUSH2 0x461 PUSH2 0x45C CALLDATASIZE PUSH1 0x4 PUSH2 0x1836 JUMP JUMPDEST PUSH2 0xA8F JUMP JUMPDEST PUSH1 0x40 MLOAD PUSH2 0x1C4 SWAP2 SWAP1 PUSH2 0x1B37 JUMP JUMPDEST CALLVALUE DUP1 ISZERO PUSH2 0x479 JUMPI PUSH0 DUP1 REVERT JUMPDEST POP PUSH2 0x1E1 PUSH2 0x488 CALLDATASIZE PUSH1 0x4 PUSH2 0x1836 JUMP JUMPDEST PUSH2 0xCB2 JUMP JUMPDEST CALLVALUE DUP1 ISZERO PUSH2 0x498 JUMPI PUSH0 DUP1 REVERT JUMPDEST POP PUSH2 0x1B8 PUSH2 0x4A7 CALLDATASIZE PUSH1 0x4 PUSH2 0x1BB0 JUMP JUMPDEST PUSH2 0xDB1 JUMP JUMPDEST CALLVALUE DUP1 ISZERO PUSH2 0x4B7 JUMPI PUSH0 DUP1 REVERT JUMPDEST POP PUSH2 0x244 PUSH2 0x4C6 CALLDATASIZE PUSH1 0x4 PUSH2 0x1A7F JUMP JUMPDEST PUSH2 0xDDE JUMP JUMPDEST PUSH0 PUSH1 0x1 PUSH1 0x1 PUSH1 0xE0 SHL SUB NOT DUP3 AND PUSH4 0x24832483 PUSH1 0xE1 SHL EQ DUP1 PUSH2 0x4EF JUMPI POP PUSH2 0x4EF DUP3 PUSH2 0xE1B JUMP JUMPDEST SWAP3 SWAP2 POP POP JUMP JUMPDEST PUSH1 0x60 PUSH0 DUP1 SLOAD PUSH2 0x503 SWAP1 PUSH2 0x1BD8 JUMP JUMPDEST DUP1 PUSH1 0x1F ADD PUSH1 0x20 DUP1 SWAP2 DIV MUL PUSH1 0x20 ADD PUSH1 0x40 MLOAD SWAP1 DUP2 ADD PUSH1 0x40 MSTORE DUP1 SWAP3 SWAP2 SWAP1 DUP2 DUP2 MSTORE PUSH1 0x20 ADD DUP3 DUP1 SLOAD PUSH2 0x52F SWAP1 PUSH2 0x1BD8 JUMP JUMPDEST DUP1 ISZERO PUSH2 0x57A JUMPI DUP1 PUSH1 0x1F LT PUSH2 0x551 JUMPI PUSH2 0x100 DUP1 DUP4 SLOAD DIV MUL DUP4 MSTORE SWAP2 PUSH1 0x20 ADD SWAP2 PUSH2 0x57A JUMP JUMPDEST DUP3 ADD SWAP2 SWAP1 PUSH0 MSTORE PUSH1 0x20 PUSH0 KECCAK256 SWAP1 JUMPDEST DUP2 SLOAD DUP2 MSTORE SWAP1 PUSH1 0x1 ADD SWAP1 PUSH1 0x20 ADD DUP1 DUP4 GT PUSH2 0x55D JUMPI DUP3 SWAP1 SUB PUSH1 0x1F AND DUP3 ADD SWAP2 JUMPDEST POP POP POP POP POP SWAP1 POP SWAP1 JUMP JUMPDEST PUSH0 PUSH2 0x58E DUP3 PUSH2 0xE6A JUMP JUMPDEST POP PUSH0 DUP3 DUP2 MSTORE PUSH1 0x4 PUSH1 0x20 MSTORE PUSH1 0x40 SWAP1 KECCAK256 SLOAD PUSH1 0x1 PUSH1 0x1 PUSH1 0xA0 SHL SUB AND PUSH2 0x4EF JUMP JUMPDEST PUSH2 0x5B6 DUP3 DUP3 CALLER PUSH2 0xEA2 JUMP JUMPDEST POP POP JUMP JUMPDEST PUSH1 0x1 PUSH1 0x1 PUSH1 0xA0 SHL SUB DUP3 AND PUSH2 0x5E8 JUMPI PUSH1 0x40 MLOAD PUSH4 0x32505749 PUSH1 0xE1 SHL DUP2 MSTORE PUSH0 PUSH1 0x4 DUP3 ADD MSTORE PUSH1 0x24 ADD JUMPDEST PUSH1 0x40 MLOAD DUP1 SWAP2 SUB SWAP1 REVERT JUMPDEST PUSH0 PUSH2 0x5F4 DUP4 DUP4 CALLER PUSH2 0xEAF JUMP JUMPDEST SWAP1 POP DUP4 PUSH1 0x1 PUSH1 0x1 PUSH1 0xA0 SHL SUB AND DUP2 PUSH1 0x1 PUSH1 0x1 PUSH1 0xA0 SHL SUB AND EQ PUSH2 0x642 JUMPI PUSH1 0x40 MLOAD PUSH4 0x64283D7B PUSH1 0xE0 SHL DUP2 MSTORE PUSH1 0x1 PUSH1 0x1 PUSH1 0xA0 SHL SUB DUP1 DUP7 AND PUSH1 0x4 DUP4 ADD MSTORE PUSH1 0x24 DUP3 ADD DUP5 SWAP1 MSTORE DUP3 AND PUSH1 0x44 DUP3 ADD MSTORE PUSH1 0x64 ADD PUSH2 0x5DF JUMP JUMPDEST POP POP POP POP JUMP JUMPDEST PUSH0 PUSH2 0x651 PUSH2 0xFA1 JUMP JUMPDEST PUSH1 0x9 SLOAD CALLVALUE LT ISZERO PUSH2 0x6A3 JUMPI PUSH1 0x40 MLOAD PUSH3 0x461BCD PUSH1 0xE5 SHL DUP2 MSTORE PUSH1 0x20 PUSH1 0x4 DUP3 ADD MSTORE PUSH1 0x1A PUSH1 0x24 DUP3 ADD MSTORE PUSH32 0x496E73756666696369656E74204554482070726F766964656421000000000000 PUSH1 0x44 DUP3 ADD MSTORE PUSH1 0x64 ADD PUSH2 0x5DF JUMP JUMPDEST PUSH0 PUSH1 0x40 MLOAD DUP1 PUSH1 0xA0 ADD PUSH1 0x40 MSTORE DUP1 DUP9 DUP2 MSTORE PUSH1 0x20 ADD DUP8 DUP2 MSTORE PUSH1 0x20 ADD DUP7 DUP2 MSTORE PUSH1 0x20 ADD DUP6 ISZERO ISZERO DUP2 MSTORE PUSH1 0x20 ADD DUP5 DUP2 MSTORE POP SWAP1 POP PUSH0 TIMESTAMP CALLER PUSH1 0x40 MLOAD PUSH1 0x20 ADD PUSH2 0x6FE SWAP3 SWAP2 SWAP1 SWAP2 DUP3 MSTORE PUSH1 0x60 SHL PUSH12 0xFFFFFFFFFFFFFFFFFFFFFFFF NOT AND PUSH1 0x20 DUP3 ADD MSTORE PUSH1 0x34 ADD SWAP1 JUMP JUMPDEST PUSH1 0x40 MLOAD PUSH1 0x20 DUP2 DUP4 SUB SUB DUP2 MSTORE SWAP1 PUSH1 0x40 MSTORE DUP1 MLOAD SWAP1 PUSH1 0x20 ADD KECCAK256 PUSH0 SHR SWAP1 POP DUP1 PUSH0 SUB PUSH2 0x767 JUMPI PUSH1 0x40 MLOAD PUSH3 0x461BCD PUSH1 0xE5 SHL DUP2 MSTORE PUSH1 0x20 PUSH1 0x4 DUP3 ADD MSTORE PUSH1 0x17 PUSH1 0x24 DUP3 ADD MSTORE PUSH32 0x546F6B656E49442063616E6E6F74206265207A65726F2E000000000000000000 PUSH1 0x44 DUP3 ADD MSTORE PUSH1 0x64 ADD PUSH2 0x5DF JUMP JUMPDEST PUSH2 0x771 CALLER DUP3 PUSH2 0xFC5 JUMP JUMPDEST PUSH0 DUP2 DUP2 MSTORE PUSH1 0xA PUSH1 0x20 MSTORE PUSH1 0x40 SWAP1 KECCAK256 DUP3 MLOAD DUP4 SWAP2 SWAP1 DUP2 SWAP1 PUSH2 0x78F SWAP1 DUP3 PUSH2 0x1C54 JUMP JUMPDEST POP PUSH1 0x20 DUP3 ADD MLOAD PUSH1 0x1 DUP3 ADD SWAP1 PUSH2 0x7A4 SWAP1 DUP3 PUSH2 0x1C54 JUMP JUMPDEST POP PUSH1 0x40 DUP3 ADD MLOAD PUSH1 0x2 DUP3 ADD SWAP1 PUSH2 0x7B9 SWAP1 DUP3 PUSH2 0x1C54 JUMP JUMPDEST POP PUSH1 0x60 DUP3 ADD MLOAD PUSH1 0x3 DUP3 ADD DUP1 SLOAD PUSH1 0xFF NOT AND SWAP2 ISZERO ISZERO SWAP2 SWAP1 SWAP2 OR SWAP1 SSTORE PUSH1 0x80 SWAP1 SWAP2 ADD MLOAD PUSH1 0x4 SWAP1 SWAP2 ADD SSTORE PUSH1 0xB DUP1 SLOAD SWAP1 PUSH0 PUSH2 0x7ED DUP4 PUSH2 0x1D0F JUMP JUMPDEST SWAP1 SWAP2 SSTORE POP SWAP1 SWAP9 SWAP8 POP POP POP POP POP POP POP POP JUMP JUMPDEST PUSH2 0x806 PUSH2 0x1026 JUMP JUMPDEST PUSH1 0x8 PUSH2 0x5B6 DUP3 DUP3 PUSH2 0x1C54 JUMP JUMPDEST PUSH2 0x81A PUSH2 0x1026 JUMP JUMPDEST PUSH2 0x822 PUSH2 0x1059 JUMP JUMPDEST JUMP JUMPDEST PUSH0 PUSH2 0x82D PUSH2 0xFA1 JUMP JUMPDEST POP PUSH1 0xB SLOAD SWAP1 JUMP JUMPDEST PUSH2 0x84E DUP4 DUP4 DUP4 PUSH1 0x40 MLOAD DUP1 PUSH1 0x20 ADD PUSH1 0x40 MSTORE DUP1 PUSH0 DUP2 MSTORE POP PUSH2 0xA77 JUMP JUMPDEST POP POP POP JUMP JUMPDEST PUSH2 0x85B PUSH2 0xFA1 JUMP JUMPDEST CALLER PUSH2 0x865 DUP4 PUSH2 0x903 JUMP JUMPDEST PUSH1 0x1 PUSH1 0x1 PUSH1 0xA0 SHL SUB AND EQ PUSH2 0x8E1 JUMPI PUSH1 0x40 MLOAD PUSH3 0x461BCD PUSH1 0xE5 SHL DUP2 MSTORE PUSH1 0x20 PUSH1 0x4 DUP3 ADD MSTORE PUSH1 0x37 PUSH1 0x24 DUP3 ADD MSTORE PUSH32 0x596F75206D75737420626520746865206F776E6572206F662074686973206974 PUSH1 0x44 DUP3 ADD MSTORE PUSH32 0x656D20666F7220697420746F206265206368616E676564000000000000000000 PUSH1 0x64 DUP3 ADD MSTORE PUSH1 0x84 ADD PUSH2 0x5DF JUMP JUMPDEST PUSH0 SWAP2 DUP3 MSTORE PUSH1 0xA PUSH1 0x20 MSTORE PUSH1 0x40 SWAP1 SWAP2 KECCAK256 PUSH1 0x3 ADD DUP1 SLOAD PUSH1 0xFF NOT AND SWAP2 ISZERO ISZERO SWAP2 SWAP1 SWAP2 OR SWAP1 SSTORE JUMP JUMPDEST PUSH0 PUSH2 0x4EF DUP3 PUSH2 0xE6A JUMP JUMPDEST PUSH0 PUSH1 0x1 PUSH1 0x1 PUSH1 0xA0 SHL SUB DUP3 AND PUSH2 0x937 JUMPI PUSH1 0x40 MLOAD PUSH4 0x22718AD9 PUSH1 0xE2 SHL DUP2 MSTORE PUSH0 PUSH1 0x4 DUP3 ADD MSTORE PUSH1 0x24 ADD PUSH2 0x5DF JUMP JUMPDEST POP PUSH1 0x1 PUSH1 0x1 PUSH1 0xA0 SHL SUB AND PUSH0 SWAP1 DUP2 MSTORE PUSH1 0x3 PUSH1 0x20 MSTORE PUSH1 0x40 SWAP1 KECCAK256 SLOAD SWAP1 JUMP JUMPDEST PUSH2 0x95A PUSH2 0x1026 JUMP JUMPDEST PUSH2 0x822 PUSH0 PUSH2 0x10AB JUMP JUMPDEST PUSH2 0x96B PUSH2 0x1026 JUMP JUMPDEST PUSH2 0x973 PUSH2 0xFA1 JUMP JUMPDEST PUSH0 PUSH1 0x9 SLOAD GT PUSH2 0x9DD JUMPI PUSH1 0x40 MLOAD PUSH3 0x461BCD PUSH1 0xE5 SHL DUP2 MSTORE PUSH1 0x20 PUSH1 0x4 DUP3 ADD MSTORE PUSH1 0x30 PUSH1 0x24 DUP3 ADD MSTORE PUSH32 0x546865207075626C697368696E672070726963652073686F756C642062652067 PUSH1 0x44 DUP3 ADD MSTORE PUSH16 0x726561746572207468616E207A65726F PUSH1 0x80 SHL PUSH1 0x64 DUP3 ADD MSTORE PUSH1 0x84 ADD PUSH2 0x5DF JUMP JUMPDEST PUSH1 0x9 SSTORE JUMP JUMPDEST PUSH2 0x9EA PUSH2 0x1026 JUMP JUMPDEST PUSH2 0x822 PUSH2 0x1104 JUMP JUMPDEST PUSH2 0x9FA PUSH2 0xFA1 JUMP JUMPDEST PUSH2 0xA2B PUSH1 0x40 MLOAD DUP1 PUSH1 0x40 ADD PUSH1 0x40 MSTORE DUP1 PUSH1 0x10 DUP2 MSTORE PUSH1 0x20 ADD PUSH16 0x507572636861736520616E206974656D PUSH1 0x80 SHL DUP2 MSTORE POP PUSH2 0x1141 JUMP JUMPDEST PUSH2 0xA34 DUP3 PUSH2 0x1184 JUMP JUMPDEST PUSH2 0xA3D DUP2 PUSH2 0x11CC JUMP JUMPDEST PUSH0 DUP2 DUP2 MSTORE PUSH1 0x2 PUSH1 0x20 MSTORE PUSH1 0x40 SWAP1 KECCAK256 SLOAD PUSH2 0x5B6 SWAP1 PUSH1 0x1 PUSH1 0x1 PUSH1 0xA0 SHL SUB AND PUSH2 0x1184 JUMP JUMPDEST PUSH1 0x60 PUSH1 0x1 DUP1 SLOAD PUSH2 0x503 SWAP1 PUSH2 0x1BD8 JUMP JUMPDEST PUSH2 0x5B6 CALLER DUP4 DUP4 PUSH2 0x1211 JUMP JUMPDEST PUSH2 0xA82 DUP5 DUP5 DUP5 PUSH2 0x5BA JUMP JUMPDEST PUSH2 0x642 CALLER DUP6 DUP6 DUP6 DUP6 PUSH2 0x12AF JUMP JUMPDEST PUSH2 0xAC1 PUSH1 0x40 MLOAD DUP1 PUSH1 0xA0 ADD PUSH1 0x40 MSTORE DUP1 PUSH1 0x60 DUP2 MSTORE PUSH1 0x20 ADD PUSH1 0x60 DUP2 MSTORE PUSH1 0x20 ADD PUSH1 0x60 DUP2 MSTORE PUSH1 0x20 ADD PUSH0 ISZERO ISZERO DUP2 MSTORE PUSH1 0x20 ADD PUSH0 DUP2 MSTORE POP SWAP1 JUMP JUMPDEST PUSH2 0xAC9 PUSH2 0xFA1 JUMP JUMPDEST PUSH0 DUP3 DUP2 MSTORE PUSH1 0xA PUSH1 0x20 MSTORE PUSH1 0x40 SWAP1 DUP2 SWAP1 KECCAK256 DUP2 MLOAD PUSH1 0xA0 DUP2 ADD SWAP1 SWAP3 MSTORE DUP1 SLOAD DUP3 SWAP1 DUP3 SWAP1 PUSH2 0xAF0 SWAP1 PUSH2 0x1BD8 JUMP JUMPDEST DUP1 PUSH1 0x1F ADD PUSH1 0x20 DUP1 SWAP2 DIV MUL PUSH1 0x20 ADD PUSH1 0x40 MLOAD SWAP1 DUP2 ADD PUSH1 0x40 MSTORE DUP1 SWAP3 SWAP2 SWAP1 DUP2 DUP2 MSTORE PUSH1 0x20 ADD DUP3 DUP1 SLOAD PUSH2 0xB1C SWAP1 PUSH2 0x1BD8 JUMP JUMPDEST DUP1 ISZERO PUSH2 0xB67 JUMPI DUP1 PUSH1 0x1F LT PUSH2 0xB3E JUMPI PUSH2 0x100 DUP1 DUP4 SLOAD DIV MUL DUP4 MSTORE SWAP2 PUSH1 0x20 ADD SWAP2 PUSH2 0xB67 JUMP JUMPDEST DUP3 ADD SWAP2 SWAP1 PUSH0 MSTORE PUSH1 0x20 PUSH0 KECCAK256 SWAP1 JUMPDEST DUP2 SLOAD DUP2 MSTORE SWAP1 PUSH1 0x1 ADD SWAP1 PUSH1 0x20 ADD DUP1 DUP4 GT PUSH2 0xB4A JUMPI DUP3 SWAP1 SUB PUSH1 0x1F AND DUP3 ADD SWAP2 JUMPDEST POP POP POP POP POP DUP2 MSTORE PUSH1 0x20 ADD PUSH1 0x1 DUP3 ADD DUP1 SLOAD PUSH2 0xB80 SWAP1 PUSH2 0x1BD8 JUMP JUMPDEST DUP1 PUSH1 0x1F ADD PUSH1 0x20 DUP1 SWAP2 DIV MUL PUSH1 0x20 ADD PUSH1 0x40 MLOAD SWAP1 DUP2 ADD PUSH1 0x40 MSTORE DUP1 SWAP3 SWAP2 SWAP1 DUP2 DUP2 MSTORE PUSH1 0x20 ADD DUP3 DUP1 SLOAD PUSH2 0xBAC SWAP1 PUSH2 0x1BD8 JUMP JUMPDEST DUP1 ISZERO PUSH2 0xBF7 JUMPI DUP1 PUSH1 0x1F LT PUSH2 0xBCE JUMPI PUSH2 0x100 DUP1 DUP4 SLOAD DIV MUL DUP4 MSTORE SWAP2 PUSH1 0x20 ADD SWAP2 PUSH2 0xBF7 JUMP JUMPDEST DUP3 ADD SWAP2 SWAP1 PUSH0 MSTORE PUSH1 0x20 PUSH0 KECCAK256 SWAP1 JUMPDEST DUP2 SLOAD DUP2 MSTORE SWAP1 PUSH1 0x1 ADD SWAP1 PUSH1 0x20 ADD DUP1 DUP4 GT PUSH2 0xBDA JUMPI DUP3 SWAP1 SUB PUSH1 0x1F AND DUP3 ADD SWAP2 JUMPDEST POP POP POP POP POP DUP2 MSTORE PUSH1 0x20 ADD PUSH1 0x2 DUP3 ADD DUP1 SLOAD PUSH2 0xC10 SWAP1 PUSH2 0x1BD8 JUMP JUMPDEST DUP1 PUSH1 0x1F ADD PUSH1 0x20 DUP1 SWAP2 DIV MUL PUSH1 0x20 ADD PUSH1 0x40 MLOAD SWAP1 DUP2 ADD PUSH1 0x40 MSTORE DUP1 SWAP3 SWAP2 SWAP1 DUP2 DUP2 MSTORE PUSH1 0x20 ADD DUP3 DUP1 SLOAD PUSH2 0xC3C SWAP1 PUSH2 0x1BD8 JUMP JUMPDEST DUP1 ISZERO PUSH2 0xC87 JUMPI DUP1 PUSH1 0x1F LT PUSH2 0xC5E JUMPI PUSH2 0x100 DUP1 DUP4 SLOAD DIV MUL DUP4 MSTORE SWAP2 PUSH1 0x20 ADD SWAP2 PUSH2 0xC87 JUMP JUMPDEST DUP3 ADD SWAP2 SWAP1 PUSH0 MSTORE PUSH1 0x20 PUSH0 KECCAK256 SWAP1 JUMPDEST DUP2 SLOAD DUP2 MSTORE SWAP1 PUSH1 0x1 ADD SWAP1 PUSH1 0x20 ADD DUP1 DUP4 GT PUSH2 0xC6A JUMPI DUP3 SWAP1 SUB PUSH1 0x1F AND DUP3 ADD SWAP2 JUMPDEST POP POP POP SWAP2 DUP4 MSTORE POP POP PUSH1 0x3 DUP3 ADD SLOAD PUSH1 0xFF AND ISZERO ISZERO PUSH1 0x20 DUP3 ADD MSTORE PUSH1 0x4 SWAP1 SWAP2 ADD SLOAD PUSH1 0x40 SWAP1 SWAP2 ADD MSTORE SWAP1 POP JUMPDEST SWAP2 SWAP1 POP JUMP JUMPDEST PUSH1 0x60 PUSH2 0xCBD DUP3 PUSH2 0xE6A JUMP JUMPDEST POP PUSH0 DUP3 DUP2 MSTORE PUSH1 0x6 PUSH1 0x20 MSTORE PUSH1 0x40 DUP2 KECCAK256 DUP1 SLOAD PUSH2 0xCD6 SWAP1 PUSH2 0x1BD8 JUMP JUMPDEST DUP1 PUSH1 0x1F ADD PUSH1 0x20 DUP1 SWAP2 DIV MUL PUSH1 0x20 ADD PUSH1 0x40 MLOAD SWAP1 DUP2 ADD PUSH1 0x40 MSTORE DUP1 SWAP3 SWAP2 SWAP1 DUP2 DUP2 MSTORE PUSH1 0x20 ADD DUP3 DUP1 SLOAD PUSH2 0xD02 SWAP1 PUSH2 0x1BD8 JUMP JUMPDEST DUP1 ISZERO PUSH2 0xD4D JUMPI DUP1 PUSH1 0x1F LT PUSH2 0xD24 JUMPI PUSH2 0x100 DUP1 DUP4 SLOAD DIV MUL DUP4 MSTORE SWAP2 PUSH1 0x20 ADD SWAP2 PUSH2 0xD4D JUMP JUMPDEST DUP3 ADD SWAP2 SWAP1 PUSH0 MSTORE PUSH1 0x20 PUSH0 KECCAK256 SWAP1 JUMPDEST DUP2 SLOAD DUP2 MSTORE SWAP1 PUSH1 0x1 ADD SWAP1 PUSH1 0x20 ADD DUP1 DUP4 GT PUSH2 0xD30 JUMPI DUP3 SWAP1 SUB PUSH1 0x1F AND DUP3 ADD SWAP2 JUMPDEST POP POP POP POP POP SWAP1 POP PUSH0 PUSH2 0xD5D PUSH2 0x13D7 JUMP JUMPDEST SWAP1 POP DUP1 MLOAD PUSH0 SUB PUSH2 0xD6E JUMPI POP SWAP3 SWAP2 POP POP JUMP JUMPDEST DUP2 MLOAD ISZERO PUSH2 0xDA0 JUMPI DUP1 DUP3 PUSH1 0x40 MLOAD PUSH1 0x20 ADD PUSH2 0xD88 SWAP3 SWAP2 SWAP1 PUSH2 0x1D4A JUMP JUMPDEST PUSH1 0x40 MLOAD PUSH1 0x20 DUP2 DUP4 SUB SUB DUP2 MSTORE SWAP1 PUSH1 0x40 MSTORE SWAP3 POP POP POP SWAP2 SWAP1 POP JUMP JUMPDEST PUSH2 0xDA9 DUP5 PUSH2 0x13E6 JUMP JUMPDEST SWAP5 SWAP4 POP POP POP POP JUMP JUMPDEST PUSH1 0x1 PUSH1 0x1 PUSH1 0xA0 SHL SUB SWAP2 DUP3 AND PUSH0 SWAP1 DUP2 MSTORE PUSH1 0x5 PUSH1 0x20 SWAP1 DUP2 MSTORE PUSH1 0x40 DUP1 DUP4 KECCAK256 SWAP4 SWAP1 SWAP5 AND DUP3 MSTORE SWAP2 SWAP1 SWAP2 MSTORE KECCAK256 SLOAD PUSH1 0xFF AND SWAP1 JUMP JUMPDEST PUSH2 0xDE6 PUSH2 0x1026 JUMP JUMPDEST PUSH1 0x1 PUSH1 0x1 PUSH1 0xA0 SHL SUB DUP2 AND PUSH2 0xE0F JUMPI PUSH1 0x40 MLOAD PUSH4 0x1E4FBDF7 PUSH1 0xE0 SHL DUP2 MSTORE PUSH0 PUSH1 0x4 DUP3 ADD MSTORE PUSH1 0x24 ADD PUSH2 0x5DF JUMP JUMPDEST PUSH2 0xE18 DUP2 PUSH2 0x10AB JUMP JUMPDEST POP JUMP JUMPDEST PUSH0 PUSH1 0x1 PUSH1 0x1 PUSH1 0xE0 SHL SUB NOT DUP3 AND PUSH4 0x80AC58CD PUSH1 0xE0 SHL EQ DUP1 PUSH2 0xE4B JUMPI POP PUSH1 0x1 PUSH1 0x1 PUSH1 0xE0 SHL SUB NOT DUP3 AND PUSH4 0x5B5E139F PUSH1 0xE0 SHL EQ JUMPDEST DUP1 PUSH2 0x4EF JUMPI POP PUSH4 0x1FFC9A7 PUSH1 0xE0 SHL PUSH1 0x1 PUSH1 0x1 PUSH1 0xE0 SHL SUB NOT DUP4 AND EQ PUSH2 0x4EF JUMP JUMPDEST PUSH0 DUP2 DUP2 MSTORE PUSH1 0x2 PUSH1 0x20 MSTORE PUSH1 0x40 DUP2 KECCAK256 SLOAD PUSH1 0x1 PUSH1 0x1 PUSH1 0xA0 SHL SUB AND DUP1 PUSH2 0x4EF JUMPI PUSH1 0x40 MLOAD PUSH4 0x7E273289 PUSH1 0xE0 SHL DUP2 MSTORE PUSH1 0x4 DUP2 ADD DUP5 SWAP1 MSTORE PUSH1 0x24 ADD PUSH2 0x5DF JUMP JUMPDEST PUSH2 0x84E DUP4 DUP4 DUP4 PUSH1 0x1 PUSH2 0x144B JUMP JUMPDEST PUSH0 DUP3 DUP2 MSTORE PUSH1 0x2 PUSH1 0x20 MSTORE PUSH1 0x40 DUP2 KECCAK256 SLOAD PUSH1 0x1 PUSH1 0x1 PUSH1 0xA0 SHL SUB SWAP1 DUP2 AND SWAP1 DUP4 AND ISZERO PUSH2 0xEDB JUMPI PUSH2 0xEDB DUP2 DUP5 DUP7 PUSH2 0x154F JUMP JUMPDEST PUSH1 0x1 PUSH1 0x1 PUSH1 0xA0 SHL SUB DUP2 AND ISZERO PUSH2 0xF15 JUMPI PUSH2 0xEF6 PUSH0 DUP6 PUSH0 DUP1 PUSH2 0x144B JUMP JUMPDEST PUSH1 0x1 PUSH1 0x1 PUSH1 0xA0 SHL SUB DUP2 AND PUSH0 SWAP1 DUP2 MSTORE PUSH1 0x3 PUSH1 0x20 MSTORE PUSH1 0x40 SWAP1 KECCAK256 DUP1 SLOAD PUSH0 NOT ADD SWAP1 SSTORE JUMPDEST PUSH1 0x1 PUSH1 0x1 PUSH1 0xA0 SHL SUB DUP6 AND ISZERO PUSH2 0xF43 JUMPI PUSH1 0x1 PUSH1 0x1 PUSH1 0xA0 SHL SUB DUP6 AND PUSH0 SWAP1 DUP2 MSTORE PUSH1 0x3 PUSH1 0x20 MSTORE PUSH1 0x40 SWAP1 KECCAK256 DUP1 SLOAD PUSH1 0x1 ADD SWAP1 SSTORE JUMPDEST PUSH0 DUP5 DUP2 MSTORE PUSH1 0x2 PUSH1 0x20 MSTORE PUSH1 0x40 DUP1 DUP3 KECCAK256 DUP1 SLOAD PUSH1 0x1 PUSH1 0x1 PUSH1 0xA0 SHL SUB NOT AND PUSH1 0x1 PUSH1 0x1 PUSH1 0xA0 SHL SUB DUP10 DUP2 AND SWAP2 DUP3 OR SWAP1 SWAP3 SSTORE SWAP2 MLOAD DUP8 SWAP4 SWAP2 DUP6 AND SWAP2 PUSH32 0xDDF252AD1BE2C89B69C2B068FC378DAA952BA7F163C4A11628F55A4DF523B3EF SWAP2 LOG4 SWAP5 SWAP4 POP POP POP POP JUMP JUMPDEST PUSH1 0x7 SLOAD PUSH1 0xFF AND ISZERO PUSH2 0x822 JUMPI PUSH1 0x40 MLOAD PUSH4 0xD93C0665 PUSH1 0xE0 SHL DUP2 MSTORE PUSH1 0x4 ADD PUSH1 0x40 MLOAD DUP1 SWAP2 SUB SWAP1 REVERT JUMPDEST PUSH1 0x1 PUSH1 0x1 PUSH1 0xA0 SHL SUB DUP3 AND PUSH2 0xFEE JUMPI PUSH1 0x40 MLOAD PUSH4 0x32505749 PUSH1 0xE1 SHL DUP2 MSTORE PUSH0 PUSH1 0x4 DUP3 ADD MSTORE PUSH1 0x24 ADD PUSH2 0x5DF JUMP JUMPDEST PUSH0 PUSH2 0xFFA DUP4 DUP4 PUSH0 PUSH2 0xEAF JUMP JUMPDEST SWAP1 POP PUSH1 0x1 PUSH1 0x1 PUSH1 0xA0 SHL SUB DUP2 AND ISZERO PUSH2 0x84E JUMPI PUSH1 0x40 MLOAD PUSH4 0x39E35637 PUSH1 0xE1 SHL DUP2 MSTORE PUSH0 PUSH1 0x4 DUP3 ADD MSTORE PUSH1 0x24 ADD PUSH2 0x5DF JUMP JUMPDEST PUSH1 0x7 SLOAD PUSH1 0x1 PUSH1 0x1 PUSH1 0xA0 SHL SUB PUSH2 0x100 SWAP1 SWAP2 DIV AND CALLER EQ PUSH2 0x822 JUMPI PUSH1 0x40 MLOAD PUSH4 0x118CDAA7 PUSH1 0xE0 SHL DUP2 MSTORE CALLER PUSH1 0x4 DUP3 ADD MSTORE PUSH1 0x24 ADD PUSH2 0x5DF JUMP JUMPDEST PUSH2 0x1061 PUSH2 0x15B3 JUMP JUMPDEST PUSH1 0x7 DUP1 SLOAD PUSH1 0xFF NOT AND SWAP1 SSTORE PUSH32 0x5DB9EE0A495BF2E6FF9C91A7834C1BA4FDD244A5E8AA4E537BD38AEAE4B073AA CALLER JUMPDEST PUSH1 0x40 MLOAD PUSH1 0x1 PUSH1 0x1 PUSH1 0xA0 SHL SUB SWAP1 SWAP2 AND DUP2 MSTORE PUSH1 0x20 ADD PUSH1 0x40 MLOAD DUP1 SWAP2 SUB SWAP1 LOG1 JUMP JUMPDEST PUSH1 0x7 DUP1 SLOAD PUSH1 0x1 PUSH1 0x1 PUSH1 0xA0 SHL SUB DUP4 DUP2 AND PUSH2 0x100 DUP2 DUP2 MUL PUSH2 0x100 PUSH1 0x1 PUSH1 0xA8 SHL SUB NOT DUP6 AND OR SWAP1 SWAP5 SSTORE PUSH1 0x40 MLOAD SWAP4 SWAP1 SWAP3 DIV AND SWAP2 DUP3 SWAP1 PUSH32 0x8BE0079C531659141344CD1FD0A4F28419497F9722A3DAAFE3B4186F6B6457E0 SWAP1 PUSH0 SWAP1 LOG3 POP POP JUMP JUMPDEST PUSH2 0x110C PUSH2 0xFA1 JUMP JUMPDEST PUSH1 0x7 DUP1 SLOAD PUSH1 0xFF NOT AND PUSH1 0x1 OR SWAP1 SSTORE PUSH32 0x62E78CEA01BEE320CD4E420270B5EA74000D11B0C9F74754EBDBFC544B05A258 PUSH2 0x108E CALLER SWAP1 JUMP JUMPDEST PUSH2 0xE18 DUP2 PUSH1 0x40 MLOAD PUSH1 0x24 ADD PUSH2 0x1155 SWAP2 SWAP1 PUSH2 0x1824 JUMP JUMPDEST PUSH1 0x40 DUP1 MLOAD PUSH1 0x1F NOT DUP2 DUP5 SUB ADD DUP2 MSTORE SWAP2 SWAP1 MSTORE PUSH1 0x20 DUP2 ADD DUP1 MLOAD PUSH1 0x1 PUSH1 0x1 PUSH1 0xE0 SHL SUB AND PUSH4 0x104C13EB PUSH1 0xE2 SHL OR SWAP1 MSTORE PUSH2 0x15D6 JUMP JUMPDEST PUSH1 0x40 MLOAD PUSH1 0x1 PUSH1 0x1 PUSH1 0xA0 SHL SUB DUP3 AND PUSH1 0x24 DUP3 ADD MSTORE PUSH2 0xE18 SWAP1 PUSH1 0x44 ADD PUSH1 0x40 DUP1 MLOAD PUSH1 0x1F NOT DUP2 DUP5 SUB ADD DUP2 MSTORE SWAP2 SWAP1 MSTORE PUSH1 0x20 DUP2 ADD DUP1 MLOAD PUSH1 0x1 PUSH1 0x1 PUSH1 0xE0 SHL SUB AND PUSH4 0x161765E1 PUSH1 0xE1 SHL OR SWAP1 MSTORE PUSH2 0x15D6 JUMP JUMPDEST PUSH2 0xE18 DUP2 PUSH1 0x40 MLOAD PUSH1 0x24 ADD PUSH2 0x11E2 SWAP2 DUP2 MSTORE PUSH1 0x20 ADD SWAP1 JUMP JUMPDEST PUSH1 0x40 DUP1 MLOAD PUSH1 0x1F NOT DUP2 DUP5 SUB ADD DUP2 MSTORE SWAP2 SWAP1 MSTORE PUSH1 0x20 DUP2 ADD DUP1 MLOAD PUSH1 0x1 PUSH1 0x1 PUSH1 0xE0 SHL SUB AND PUSH4 0xF82C50F1 PUSH1 0xE0 SHL OR SWAP1 MSTORE PUSH2 0x15D6 JUMP JUMPDEST PUSH1 0x1 PUSH1 0x1 PUSH1 0xA0 SHL SUB DUP3 AND PUSH2 0x1243 JUMPI PUSH1 0x40 MLOAD PUSH4 0xB611743 PUSH1 0xE3 SHL DUP2 MSTORE PUSH1 0x1 PUSH1 0x1 PUSH1 0xA0 SHL SUB DUP4 AND PUSH1 0x4 DUP3 ADD MSTORE PUSH1 0x24 ADD PUSH2 0x5DF JUMP JUMPDEST PUSH1 0x1 PUSH1 0x1 PUSH1 0xA0 SHL SUB DUP4 DUP2 AND PUSH0 DUP2 DUP2 MSTORE PUSH1 0x5 PUSH1 0x20 SWAP1 DUP2 MSTORE PUSH1 0x40 DUP1 DUP4 KECCAK256 SWAP5 DUP8 AND DUP1 DUP5 MSTORE SWAP5 DUP3 MSTORE SWAP2 DUP3 SWAP1 KECCAK256 DUP1 SLOAD PUSH1 0xFF NOT AND DUP7 ISZERO ISZERO SWAP1 DUP2 OR SWAP1 SWAP2 SSTORE SWAP2 MLOAD SWAP2 DUP3 MSTORE PUSH32 0x17307EAB39AB6107E8899845AD3D59BD9653F200F220920489CA2B5937696C31 SWAP2 ADD PUSH1 0x40 MLOAD DUP1 SWAP2 SUB SWAP1 LOG3 POP POP POP JUMP JUMPDEST PUSH1 0x1 PUSH1 0x1 PUSH1 0xA0 SHL SUB DUP4 AND EXTCODESIZE ISZERO PUSH2 0x13D0 JUMPI PUSH1 0x40 MLOAD PUSH4 0xA85BD01 PUSH1 0xE1 SHL DUP2 MSTORE PUSH1 0x1 PUSH1 0x1 PUSH1 0xA0 SHL SUB DUP5 AND SWAP1 PUSH4 0x150B7A02 SWAP1 PUSH2 0x12F1 SWAP1 DUP9 SWAP1 DUP9 SWAP1 DUP8 SWAP1 DUP8 SWAP1 PUSH1 0x4 ADD PUSH2 0x1D5E JUMP JUMPDEST PUSH1 0x20 PUSH1 0x40 MLOAD DUP1 DUP4 SUB DUP2 PUSH0 DUP8 GAS CALL SWAP3 POP POP POP DUP1 ISZERO PUSH2 0x132B JUMPI POP PUSH1 0x40 DUP1 MLOAD PUSH1 0x1F RETURNDATASIZE SWAP1 DUP2 ADD PUSH1 0x1F NOT AND DUP3 ADD SWAP1 SWAP3 MSTORE PUSH2 0x1328 SWAP2 DUP2 ADD SWAP1 PUSH2 0x1D9A JUMP JUMPDEST PUSH1 0x1 JUMPDEST PUSH2 0x1392 JUMPI RETURNDATASIZE DUP1 DUP1 ISZERO PUSH2 0x1358 JUMPI PUSH1 0x40 MLOAD SWAP2 POP PUSH1 0x1F NOT PUSH1 0x3F RETURNDATASIZE ADD AND DUP3 ADD PUSH1 0x40 MSTORE RETURNDATASIZE DUP3 MSTORE RETURNDATASIZE PUSH0 PUSH1 0x20 DUP5 ADD RETURNDATACOPY PUSH2 0x135D JUMP JUMPDEST PUSH1 0x60 SWAP2 POP JUMPDEST POP DUP1 MLOAD PUSH0 SUB PUSH2 0x138A JUMPI PUSH1 0x40 MLOAD PUSH4 0x32505749 PUSH1 0xE1 SHL DUP2 MSTORE PUSH1 0x1 PUSH1 0x1 PUSH1 0xA0 SHL SUB DUP6 AND PUSH1 0x4 DUP3 ADD MSTORE PUSH1 0x24 ADD PUSH2 0x5DF JUMP JUMPDEST DUP1 MLOAD DUP2 PUSH1 0x20 ADD REVERT JUMPDEST PUSH1 0x1 PUSH1 0x1 PUSH1 0xE0 SHL SUB NOT DUP2 AND PUSH4 0xA85BD01 PUSH1 0xE1 SHL EQ PUSH2 0x13CE JUMPI PUSH1 0x40 MLOAD PUSH4 0x32505749 PUSH1 0xE1 SHL DUP2 MSTORE PUSH1 0x1 PUSH1 0x1 PUSH1 0xA0 SHL SUB DUP6 AND PUSH1 0x4 DUP3 ADD MSTORE PUSH1 0x24 ADD PUSH2 0x5DF JUMP JUMPDEST POP JUMPDEST POP POP POP POP POP JUMP JUMPDEST PUSH1 0x60 PUSH1 0x8 DUP1 SLOAD PUSH2 0x503 SWAP1 PUSH2 0x1BD8 JUMP JUMPDEST PUSH1 0x60 PUSH2 0x13F1 DUP3 PUSH2 0xE6A JUMP JUMPDEST POP PUSH0 PUSH2 0x13FB PUSH2 0x13D7 JUMP JUMPDEST SWAP1 POP PUSH0 DUP2 MLOAD GT PUSH2 0x1419 JUMPI PUSH1 0x40 MLOAD DUP1 PUSH1 0x20 ADD PUSH1 0x40 MSTORE DUP1 PUSH0 DUP2 MSTORE POP PUSH2 0x1444 JUMP JUMPDEST DUP1 PUSH2 0x1423 DUP5 PUSH2 0x15DF JUMP JUMPDEST PUSH1 0x40 MLOAD PUSH1 0x20 ADD PUSH2 0x1434 SWAP3 SWAP2 SWAP1 PUSH2 0x1D4A JUMP JUMPDEST PUSH1 0x40 MLOAD PUSH1 0x20 DUP2 DUP4 SUB SUB DUP2 MSTORE SWAP1 PUSH1 0x40 MSTORE JUMPDEST SWAP4 SWAP3 POP POP POP JUMP JUMPDEST DUP1 DUP1 PUSH2 0x145F JUMPI POP PUSH1 0x1 PUSH1 0x1 PUSH1 0xA0 SHL SUB DUP3 AND ISZERO ISZERO JUMPDEST ISZERO PUSH2 0x1520 JUMPI PUSH0 PUSH2 0x146E DUP5 PUSH2 0xE6A JUMP JUMPDEST SWAP1 POP PUSH1 0x1 PUSH1 0x1 PUSH1 0xA0 SHL SUB DUP4 AND ISZERO DUP1 ISZERO SWAP1 PUSH2 0x149A JUMPI POP DUP3 PUSH1 0x1 PUSH1 0x1 PUSH1 0xA0 SHL SUB AND DUP2 PUSH1 0x1 PUSH1 0x1 PUSH1 0xA0 SHL SUB AND EQ ISZERO JUMPDEST DUP1 ISZERO PUSH2 0x14AD JUMPI POP PUSH2 0x14AB DUP2 DUP5 PUSH2 0xDB1 JUMP JUMPDEST ISZERO JUMPDEST ISZERO PUSH2 0x14D6 JUMPI PUSH1 0x40 MLOAD PUSH4 0xA9FBF51F PUSH1 0xE0 SHL DUP2 MSTORE PUSH1 0x1 PUSH1 0x1 PUSH1 0xA0 SHL SUB DUP5 AND PUSH1 0x4 DUP3 ADD MSTORE PUSH1 0x24 ADD PUSH2 0x5DF JUMP JUMPDEST DUP2 ISZERO PUSH2 0x151E JUMPI DUP4 DUP6 PUSH1 0x1 PUSH1 0x1 PUSH1 0xA0 SHL SUB AND DUP3 PUSH1 0x1 PUSH1 0x1 PUSH1 0xA0 SHL SUB AND PUSH32 0x8C5BE1E5EBEC7D5BD14F71427D1E84F3DD0314C0F7B2291E5B200AC8C7C3B925 PUSH1 0x40 MLOAD PUSH1 0x40 MLOAD DUP1 SWAP2 SUB SWAP1 LOG4 JUMPDEST POP JUMPDEST POP POP PUSH0 SWAP1 DUP2 MSTORE PUSH1 0x4 PUSH1 0x20 MSTORE PUSH1 0x40 SWAP1 KECCAK256 DUP1 SLOAD PUSH1 0x1 PUSH1 0x1 PUSH1 0xA0 SHL SUB NOT AND PUSH1 0x1 PUSH1 0x1 PUSH1 0xA0 SHL SUB SWAP3 SWAP1 SWAP3 AND SWAP2 SWAP1 SWAP2 OR SWAP1 SSTORE JUMP JUMPDEST PUSH2 0x155A DUP4 DUP4 DUP4 PUSH2 0x166F JUMP JUMPDEST PUSH2 0x84E JUMPI PUSH1 0x1 PUSH1 0x1 PUSH1 0xA0 SHL SUB DUP4 AND PUSH2 0x1588 JUMPI PUSH1 0x40 MLOAD PUSH4 0x7E273289 PUSH1 0xE0 SHL DUP2 MSTORE PUSH1 0x4 DUP2 ADD DUP3 SWAP1 MSTORE PUSH1 0x24 ADD PUSH2 0x5DF JUMP JUMPDEST PUSH1 0x40 MLOAD PUSH4 0x177E802F PUSH1 0xE0 SHL DUP2 MSTORE PUSH1 0x1 PUSH1 0x1 PUSH1 0xA0 SHL SUB DUP4 AND PUSH1 0x4 DUP3 ADD MSTORE PUSH1 0x24 DUP2 ADD DUP3 SWAP1 MSTORE PUSH1 0x44 ADD PUSH2 0x5DF JUMP JUMPDEST PUSH1 0x7 SLOAD PUSH1 0xFF AND PUSH2 0x822 JUMPI PUSH1 0x40 MLOAD PUSH4 0x8DFC202B PUSH1 0xE0 SHL DUP2 MSTORE PUSH1 0x4 ADD PUSH1 0x40 MLOAD DUP1 SWAP2 SUB SWAP1 REVERT JUMPDEST PUSH2 0xE18 DUP2 PUSH2 0x16D0 JUMP JUMPDEST PUSH1 0x60 PUSH0 PUSH2 0x15EB DUP4 PUSH2 0x16EF JUMP JUMPDEST PUSH1 0x1 ADD SWAP1 POP PUSH0 DUP2 PUSH8 0xFFFFFFFFFFFFFFFF DUP2 GT ISZERO PUSH2 0x160A JUMPI PUSH2 0x160A PUSH2 0x18C5 JUMP JUMPDEST PUSH1 0x40 MLOAD SWAP1 DUP1 DUP3 MSTORE DUP1 PUSH1 0x1F ADD PUSH1 0x1F NOT AND PUSH1 0x20 ADD DUP3 ADD PUSH1 0x40 MSTORE DUP1 ISZERO PUSH2 0x1634 JUMPI PUSH1 0x20 DUP3 ADD DUP2 DUP1 CALLDATASIZE DUP4 CALLDATACOPY ADD SWAP1 POP JUMPDEST POP SWAP1 POP DUP2 DUP2 ADD PUSH1 0x20 ADD JUMPDEST PUSH0 NOT ADD PUSH16 0x181899199A1A9B1B9C1CB0B131B232B3 PUSH1 0x81 SHL PUSH1 0xA DUP7 MOD BYTE DUP2 MSTORE8 PUSH1 0xA DUP6 DIV SWAP5 POP DUP5 PUSH2 0x163E JUMPI POP SWAP4 SWAP3 POP POP POP JUMP JUMPDEST PUSH0 PUSH1 0x1 PUSH1 0x1 PUSH1 0xA0 SHL SUB DUP4 AND ISZERO DUP1 ISZERO SWAP1 PUSH2 0xDA9 JUMPI POP DUP3 PUSH1 0x1 PUSH1 0x1 PUSH1 0xA0 SHL SUB AND DUP5 PUSH1 0x1 PUSH1 0x1 PUSH1 0xA0 SHL SUB AND EQ DUP1 PUSH2 0x16A8 JUMPI POP PUSH2 0x16A8 DUP5 DUP5 PUSH2 0xDB1 JUMP JUMPDEST DUP1 PUSH2 0xDA9 JUMPI POP POP PUSH0 SWAP1 DUP2 MSTORE PUSH1 0x4 PUSH1 0x20 MSTORE PUSH1 0x40 SWAP1 KECCAK256 SLOAD PUSH1 0x1 PUSH1 0x1 PUSH1 0xA0 SHL SUB SWAP1 DUP2 AND SWAP2 AND EQ SWAP2 SWAP1 POP JUMP JUMPDEST PUSH0 PUSH11 0x636F6E736F6C652E6C6F67 SWAP1 POP PUSH0 DUP1 DUP4 MLOAD PUSH1 0x20 DUP6 ADD DUP5 GAS STATICCALL POP POP POP JUMP JUMPDEST PUSH0 DUP1 PUSH19 0x184F03E93FF9F4DAA797ED6E38ED64BF6A1F01 PUSH1 0x40 SHL DUP4 LT PUSH2 0x172D JUMPI PUSH19 0x184F03E93FF9F4DAA797ED6E38ED64BF6A1F01 PUSH1 0x40 SHL DUP4 DIV SWAP3 POP PUSH1 0x40 ADD JUMPDEST PUSH14 0x4EE2D6D415B85ACEF8100000000 DUP4 LT PUSH2 0x1759 JUMPI PUSH14 0x4EE2D6D415B85ACEF8100000000 DUP4 DIV SWAP3 POP PUSH1 0x20 ADD JUMPDEST PUSH7 0x2386F26FC10000 DUP4 LT PUSH2 0x1777 JUMPI PUSH7 0x2386F26FC10000 DUP4 DIV SWAP3 POP PUSH1 0x10 ADD JUMPDEST PUSH4 0x5F5E100 DUP4 LT PUSH2 0x178F JUMPI PUSH4 0x5F5E100 DUP4 DIV SWAP3 POP PUSH1 0x8 ADD JUMPDEST PUSH2 0x2710 DUP4 LT PUSH2 0x17A3 JUMPI PUSH2 0x2710 DUP4 DIV SWAP3 POP PUSH1 0x4 ADD JUMPDEST PUSH1 0x64 DUP4 LT PUSH2 0x17B5 JUMPI PUSH1 0x64 DUP4 DIV SWAP3 POP PUSH1 0x2 ADD JUMPDEST PUSH1 0xA DUP4 LT PUSH2 0x4EF JUMPI PUSH1 0x1 ADD SWAP3 SWAP2 POP POP JUMP JUMPDEST PUSH1 0x1 PUSH1 0x1 PUSH1 0xE0 SHL SUB NOT DUP2 AND DUP2 EQ PUSH2 0xE18 JUMPI PUSH0 DUP1 REVERT JUMPDEST PUSH0 PUSH1 0x20 DUP3 DUP5 SUB SLT ISZERO PUSH2 0x17EB JUMPI PUSH0 DUP1 REVERT JUMPDEST DUP2 CALLDATALOAD PUSH2 0x1444 DUP2 PUSH2 0x17C6 JUMP JUMPDEST PUSH0 DUP2 MLOAD DUP1 DUP5 MSTORE DUP1 PUSH1 0x20 DUP5 ADD PUSH1 0x20 DUP7 ADD MCOPY PUSH0 PUSH1 0x20 DUP3 DUP7 ADD ADD MSTORE PUSH1 0x20 PUSH1 0x1F NOT PUSH1 0x1F DUP4 ADD AND DUP6 ADD ADD SWAP2 POP POP SWAP3 SWAP2 POP POP JUMP JUMPDEST PUSH1 0x20 DUP2 MSTORE PUSH0 PUSH2 0x1444 PUSH1 0x20 DUP4 ADD DUP5 PUSH2 0x17F6 JUMP JUMPDEST PUSH0 PUSH1 0x20 DUP3 DUP5 SUB SLT ISZERO PUSH2 0x1846 JUMPI PUSH0 DUP1 REVERT JUMPDEST POP CALLDATALOAD SWAP2 SWAP1 POP JUMP JUMPDEST DUP1 CALLDATALOAD PUSH1 0x1 PUSH1 0x1 PUSH1 0xA0 SHL SUB DUP2 AND DUP2 EQ PUSH2 0xCAD JUMPI PUSH0 DUP1 REVERT JUMPDEST PUSH0 DUP1 PUSH1 0x40 DUP4 DUP6 SUB SLT ISZERO PUSH2 0x1874 JUMPI PUSH0 DUP1 REVERT JUMPDEST PUSH2 0x187D DUP4 PUSH2 0x184D JUMP JUMPDEST SWAP5 PUSH1 0x20 SWAP4 SWAP1 SWAP4 ADD CALLDATALOAD SWAP4 POP POP POP JUMP JUMPDEST PUSH0 DUP1 PUSH0 PUSH1 0x60 DUP5 DUP7 SUB SLT ISZERO PUSH2 0x189D JUMPI PUSH0 DUP1 REVERT JUMPDEST PUSH2 0x18A6 DUP5 PUSH2 0x184D JUMP JUMPDEST SWAP3 POP PUSH2 0x18B4 PUSH1 0x20 DUP6 ADD PUSH2 0x184D JUMP JUMPDEST SWAP3 SWAP6 SWAP3 SWAP5 POP POP POP PUSH1 0x40 SWAP2 SWAP1 SWAP2 ADD CALLDATALOAD SWAP1 JUMP JUMPDEST PUSH4 0x4E487B71 PUSH1 0xE0 SHL PUSH0 MSTORE PUSH1 0x41 PUSH1 0x4 MSTORE PUSH1 0x24 PUSH0 REVERT JUMPDEST PUSH0 DUP1 PUSH8 0xFFFFFFFFFFFFFFFF DUP5 GT ISZERO PUSH2 0x18F3 JUMPI PUSH2 0x18F3 PUSH2 0x18C5 JUMP JUMPDEST POP PUSH1 0x40 MLOAD PUSH1 0x1F NOT PUSH1 0x1F DUP6 ADD DUP2 AND PUSH1 0x3F ADD AND DUP2 ADD DUP2 DUP2 LT PUSH8 0xFFFFFFFFFFFFFFFF DUP3 GT OR ISZERO PUSH2 0x1922 JUMPI PUSH2 0x1922 PUSH2 0x18C5 JUMP JUMPDEST PUSH1 0x40 MSTORE DUP4 DUP2 MSTORE SWAP1 POP DUP1 DUP3 DUP5 ADD DUP6 LT ISZERO PUSH2 0x1939 JUMPI PUSH0 DUP1 REVERT JUMPDEST DUP4 DUP4 PUSH1 0x20 DUP4 ADD CALLDATACOPY PUSH0 PUSH1 0x20 DUP6 DUP4 ADD ADD MSTORE POP SWAP4 SWAP3 POP POP POP JUMP JUMPDEST PUSH0 DUP3 PUSH1 0x1F DUP4 ADD SLT PUSH2 0x195F JUMPI PUSH0 DUP1 REVERT JUMPDEST PUSH2 0x1444 DUP4 DUP4 CALLDATALOAD PUSH1 0x20 DUP6 ADD PUSH2 0x18D9 JUMP JUMPDEST DUP1 CALLDATALOAD DUP1 ISZERO ISZERO DUP2 EQ PUSH2 0xCAD JUMPI PUSH0 DUP1 REVERT JUMPDEST PUSH0 DUP1 PUSH0 DUP1 PUSH0 PUSH1 0xA0 DUP7 DUP9 SUB SLT ISZERO PUSH2 0x1991 JUMPI PUSH0 DUP1 REVERT JUMPDEST DUP6 CALLDATALOAD PUSH8 0xFFFFFFFFFFFFFFFF DUP2 GT ISZERO PUSH2 0x19A7 JUMPI PUSH0 DUP1 REVERT JUMPDEST PUSH2 0x19B3 DUP9 DUP3 DUP10 ADD PUSH2 0x1950 JUMP JUMPDEST SWAP6 POP POP PUSH1 0x20 DUP7 ADD CALLDATALOAD PUSH8 0xFFFFFFFFFFFFFFFF DUP2 GT ISZERO PUSH2 0x19CF JUMPI PUSH0 DUP1 REVERT JUMPDEST PUSH2 0x19DB DUP9 DUP3 DUP10 ADD PUSH2 0x1950 JUMP JUMPDEST SWAP5 POP POP PUSH1 0x40 DUP7 ADD CALLDATALOAD PUSH8 0xFFFFFFFFFFFFFFFF DUP2 GT ISZERO PUSH2 0x19F7 JUMPI PUSH0 DUP1 REVERT JUMPDEST PUSH2 0x1A03 DUP9 DUP3 DUP10 ADD PUSH2 0x1950 JUMP JUMPDEST SWAP4 POP POP PUSH2 0x1A12 PUSH1 0x60 DUP8 ADD PUSH2 0x196E JUMP JUMPDEST SWAP5 SWAP8 SWAP4 SWAP7 POP SWAP2 SWAP5 PUSH1 0x80 ADD CALLDATALOAD SWAP3 SWAP2 POP POP JUMP JUMPDEST PUSH0 PUSH1 0x20 DUP3 DUP5 SUB SLT ISZERO PUSH2 0x1A33 JUMPI PUSH0 DUP1 REVERT JUMPDEST DUP2 CALLDATALOAD PUSH8 0xFFFFFFFFFFFFFFFF DUP2 GT ISZERO PUSH2 0x1A49 JUMPI PUSH0 DUP1 REVERT JUMPDEST PUSH2 0xDA9 DUP5 DUP3 DUP6 ADD PUSH2 0x1950 JUMP JUMPDEST PUSH0 DUP1 PUSH1 0x40 DUP4 DUP6 SUB SLT ISZERO PUSH2 0x1A66 JUMPI PUSH0 DUP1 REVERT JUMPDEST DUP3 CALLDATALOAD SWAP2 POP PUSH2 0x1A76 PUSH1 0x20 DUP5 ADD PUSH2 0x196E JUMP JUMPDEST SWAP1 POP SWAP3 POP SWAP3 SWAP1 POP JUMP JUMPDEST PUSH0 PUSH1 0x20 DUP3 DUP5 SUB SLT ISZERO PUSH2 0x1A8F JUMPI PUSH0 DUP1 REVERT JUMPDEST PUSH2 0x1444 DUP3 PUSH2 0x184D JUMP JUMPDEST PUSH0 DUP1 PUSH1 0x40 DUP4 DUP6 SUB SLT ISZERO PUSH2 0x1AA9 JUMPI PUSH0 DUP1 REVERT JUMPDEST PUSH2 0x1AB2 DUP4 PUSH2 0x184D JUMP JUMPDEST SWAP2 POP PUSH2 0x1A76 PUSH1 0x20 DUP5 ADD PUSH2 0x196E JUMP JUMPDEST PUSH0 DUP1 PUSH0 DUP1 PUSH1 0x80 DUP6 DUP8 SUB SLT ISZERO PUSH2 0x1AD3 JUMPI PUSH0 DUP1 REVERT JUMPDEST PUSH2 0x1ADC DUP6 PUSH2 0x184D JUMP JUMPDEST SWAP4 POP PUSH2 0x1AEA PUSH1 0x20 DUP7 ADD PUSH2 0x184D JUMP JUMPDEST SWAP3 POP PUSH1 0x40 DUP6 ADD CALLDATALOAD SWAP2 POP PUSH1 0x60 DUP6 ADD CALLDATALOAD PUSH8 0xFFFFFFFFFFFFFFFF DUP2 GT ISZERO PUSH2 0x1B0C JUMPI PUSH0 DUP1 REVERT JUMPDEST DUP6 ADD PUSH1 0x1F DUP2 ADD DUP8 SGT PUSH2 0x1B1C JUMPI PUSH0 DUP1 REVERT JUMPDEST PUSH2 0x1B2B DUP8 DUP3 CALLDATALOAD PUSH1 0x20 DUP5 ADD PUSH2 0x18D9 JUMP JUMPDEST SWAP2 POP POP SWAP3 SWAP6 SWAP2 SWAP5 POP SWAP3 POP JUMP JUMPDEST PUSH1 0x20 DUP2 MSTORE PUSH0 DUP3 MLOAD PUSH1 0xA0 PUSH1 0x20 DUP5 ADD MSTORE PUSH2 0x1B52 PUSH1 0xC0 DUP5 ADD DUP3 PUSH2 0x17F6 JUMP JUMPDEST SWAP1 POP PUSH1 0x20 DUP5 ADD MLOAD PUSH1 0x1F NOT DUP5 DUP4 SUB ADD PUSH1 0x40 DUP6 ADD MSTORE PUSH2 0x1B6F DUP3 DUP3 PUSH2 0x17F6 JUMP JUMPDEST SWAP2 POP POP PUSH1 0x40 DUP5 ADD MLOAD PUSH1 0x1F NOT DUP5 DUP4 SUB ADD PUSH1 0x60 DUP6 ADD MSTORE PUSH2 0x1B8D DUP3 DUP3 PUSH2 0x17F6 JUMP JUMPDEST SWAP2 POP POP PUSH1 0x60 DUP5 ADD MLOAD ISZERO ISZERO PUSH1 0x80 DUP5 ADD MSTORE PUSH1 0x80 DUP5 ADD MLOAD PUSH1 0xA0 DUP5 ADD MSTORE DUP1 SWAP2 POP POP SWAP3 SWAP2 POP POP JUMP JUMPDEST PUSH0 DUP1 PUSH1 0x40 DUP4 DUP6 SUB SLT ISZERO PUSH2 0x1BC1 JUMPI PUSH0 DUP1 REVERT JUMPDEST PUSH2 0x1BCA DUP4 PUSH2 0x184D JUMP JUMPDEST SWAP2 POP PUSH2 0x1A76 PUSH1 0x20 DUP5 ADD PUSH2 0x184D JUMP JUMPDEST PUSH1 0x1 DUP2 DUP2 SHR SWAP1 DUP3 AND DUP1 PUSH2 0x1BEC JUMPI PUSH1 0x7F DUP3 AND SWAP2 POP JUMPDEST PUSH1 0x20 DUP3 LT DUP2 SUB PUSH2 0x1C0A JUMPI PUSH4 0x4E487B71 PUSH1 0xE0 SHL PUSH0 MSTORE PUSH1 0x22 PUSH1 0x4 MSTORE PUSH1 0x24 PUSH0 REVERT JUMPDEST POP SWAP2 SWAP1 POP JUMP JUMPDEST PUSH1 0x1F DUP3 GT ISZERO PUSH2 0x84E JUMPI DUP1 PUSH0 MSTORE PUSH1 0x20 PUSH0 KECCAK256 PUSH1 0x1F DUP5 ADD PUSH1 0x5 SHR DUP2 ADD PUSH1 0x20 DUP6 LT ISZERO PUSH2 0x1C35 JUMPI POP DUP1 JUMPDEST PUSH1 0x1F DUP5 ADD PUSH1 0x5 SHR DUP3 ADD SWAP2 POP JUMPDEST DUP2 DUP2 LT ISZERO PUSH2 0x13D0 JUMPI PUSH0 DUP2 SSTORE PUSH1 0x1 ADD PUSH2 0x1C41 JUMP JUMPDEST DUP2 MLOAD PUSH8 0xFFFFFFFFFFFFFFFF DUP2 GT ISZERO PUSH2 0x1C6E JUMPI PUSH2 0x1C6E PUSH2 0x18C5 JUMP JUMPDEST PUSH2 0x1C82 DUP2 PUSH2 0x1C7C DUP5 SLOAD PUSH2 0x1BD8 JUMP JUMPDEST DUP5 PUSH2 0x1C10 JUMP JUMPDEST PUSH1 0x20 PUSH1 0x1F DUP3 GT PUSH1 0x1 DUP2 EQ PUSH2 0x1CB4 JUMPI PUSH0 DUP4 ISZERO PUSH2 0x1C9D JUMPI POP DUP5 DUP3 ADD MLOAD JUMPDEST PUSH0 NOT PUSH1 0x3 DUP6 SWAP1 SHL SHR NOT AND PUSH1 0x1 DUP5 SWAP1 SHL OR DUP5 SSTORE PUSH2 0x13D0 JUMP JUMPDEST PUSH0 DUP5 DUP2 MSTORE PUSH1 0x20 DUP2 KECCAK256 PUSH1 0x1F NOT DUP6 AND SWAP2 JUMPDEST DUP3 DUP2 LT ISZERO PUSH2 0x1CE3 JUMPI DUP8 DUP6 ADD MLOAD DUP3 SSTORE PUSH1 0x20 SWAP5 DUP6 ADD SWAP5 PUSH1 0x1 SWAP1 SWAP3 ADD SWAP2 ADD PUSH2 0x1CC3 JUMP JUMPDEST POP DUP5 DUP3 LT ISZERO PUSH2 0x1D00 JUMPI DUP7 DUP5 ADD MLOAD PUSH0 NOT PUSH1 0x3 DUP8 SWAP1 SHL PUSH1 0xF8 AND SHR NOT AND DUP2 SSTORE JUMPDEST POP POP POP POP PUSH1 0x1 SWAP1 DUP2 SHL ADD SWAP1 SSTORE POP JUMP JUMPDEST PUSH0 PUSH1 0x1 DUP3 ADD PUSH2 0x1D2C JUMPI PUSH4 0x4E487B71 PUSH1 0xE0 SHL PUSH0 MSTORE PUSH1 0x11 PUSH1 0x4 MSTORE PUSH1 0x24 PUSH0 REVERT JUMPDEST POP PUSH1 0x1 ADD SWAP1 JUMP JUMPDEST PUSH0 DUP2 MLOAD DUP1 PUSH1 0x20 DUP5 ADD DUP6 MCOPY PUSH0 SWAP4 ADD SWAP3 DUP4 MSTORE POP SWAP1 SWAP2 SWAP1 POP JUMP JUMPDEST PUSH0 PUSH2 0xDA9 PUSH2 0x1D58 DUP4 DUP7 PUSH2 0x1D33 JUMP JUMPDEST DUP5 PUSH2 0x1D33 JUMP JUMPDEST PUSH1 0x1 PUSH1 0x1 PUSH1 0xA0 SHL SUB DUP6 DUP2 AND DUP3 MSTORE DUP5 AND PUSH1 0x20 DUP3 ADD MSTORE PUSH1 0x40 DUP2 ADD DUP4 SWAP1 MSTORE PUSH1 0x80 PUSH1 0x60 DUP3 ADD DUP2 SWAP1 MSTORE PUSH0 SWAP1 PUSH2 0x1D90 SWAP1 DUP4 ADD DUP5 PUSH2 0x17F6 JUMP JUMPDEST SWAP7 SWAP6 POP POP POP POP POP POP JUMP JUMPDEST PUSH0 PUSH1 0x20 DUP3 DUP5 SUB SLT ISZERO PUSH2 0x1DAA JUMPI PUSH0 DUP1 REVERT JUMPDEST DUP2 MLOAD PUSH2 0x1444 DUP2 PUSH2 0x17C6 JUMP INVALID LOG2 PUSH5 0x6970667358 0x22 SLT KECCAK256 SLOAD BASEFEE BALANCE 0xA7 0x4C 0x2D 0xED 0xD9 0xA5 PUSH8 0x48FFEFA3A8A2A538 SHL 0xBE CHAINID 0xC7 AND 0xC6 SDIV 0xD4 0xCD CALLCODE DUP8 0xD3 0xC9 EXTCODECOPY PUSH5 0x736F6C6343 STOP ADDMOD BYTE STOP CALLER LOG2 PUSH5 0x6970667358 0x22 SLT KECCAK256 PUSH18 0x276CFC0698694758CD3A4A742F9B1930155 0xCC 0x4C ADDMOD 0xD EXTCODESIZE SWAP4 0xBC 0xD7 0xD6 LOG0 SELFBALANCE KECCAK256 BLOCKHASH PUSH5 0x736F6C6343 STOP ADDMOD BYTE STOP CALLER "
		},
		"gasEstimates": {
			"creation": {
				"codeDepositCost": "2618200",
				"executionCost": "2837",
				"totalCost": "2621037"
			},
			"external": {
				"beforeAll()": "infinite",
				"test_initial_item_count()": "infinite",
				"test_publish_new_item_as_owner()": "infinite",
				"test_publish_new_item_as_paused()": "infinite",
				"test_publish_new_item_without_enough_credit()": "infinite",
				"test_token_name_and_symbol()": "infinite"
			}
		},
		"methodIdentifiers": {
			"beforeAll()": "7fea0d4b",
			"test_initial_item_count()": "e5cfb19a",
			"test_publish_new_item_as_owner()": "51a6b456",
			"test_publish_new_item_as_paused()": "ab3695c3",
			"test_publish_new_item_without_enough_credit()": "0404be00",
			"test_token_name_and_symbol()": "fa06b273"
		}
	},
	"abi": [
		{
			"inputs": [],
			"name": "beforeAll",
			"outputs": [],
			"stateMutability": "nonpayable",
			"type": "function"
		},
		{
			"inputs": [],
			"name": "test_initial_item_count",
			"outputs": [],
			"stateMutability": "nonpayable",
			"type": "function"
		},
		{
			"inputs": [],
			"name": "test_publish_new_item_as_owner",
			"outputs": [],
			"stateMutability": "payable",
			"type": "function"
		},
		{
			"inputs": [],
			"name": "test_publish_new_item_as_paused",
			"outputs": [],
			"stateMutability": "payable",
			"type": "function"
		},
		{
			"inputs": [],
			"name": "test_publish_new_item_without_enough_credit",
			"outputs": [],
			"stateMutability": "payable",
			"type": "function"
		},
		{
			"inputs": [],
			"name": "test_token_name_and_symbol",
			"outputs": [],
			"stateMutability": "nonpayable",
			"type": "function"
		}
	]
}