{"abi":[{"type":"constructor","inputs":[],"stateMutability":"nonpayable"},{"type":"function","name":"approve","inputs":[{"name":"to","type":"address","internalType":"address"},{"name":"tokenId","type":"uint256","internalType":"uint256"}],"outputs":[],"stateMutability":"nonpayable"},{"type":"function","name":"balanceOf","inputs":[{"name":"owner","type":"address","internalType":"address"}],"outputs":[{"name":"","type":"uint256","internalType":"uint256"}],"stateMutability":"view"},{"type":"function","name":"getApproved","inputs":[{"name":"tokenId","type":"uint256","internalType":"uint256"}],"outputs":[{"name":"","type":"address","internalType":"address"}],"stateMutability":"view"},{"type":"function","name":"isApprovedForAll","inputs":[{"name":"owner","type":"address","internalType":"address"},{"name":"operator","type":"address","internalType":"address"}],"outputs":[{"name":"","type":"bool","internalType":"bool"}],"stateMutability":"view"},{"type":"function","name":"name","inputs":[],"outputs":[{"name":"","type":"string","internalType":"string"}],"stateMutability":"view"},{"type":"function","name":"owner","inputs":[],"outputs":[{"name":"","type":"address","internalType":"address"}],"stateMutability":"view"},{"type":"function","name":"ownerOf","inputs":[{"name":"tokenId","type":"uint256","internalType":"uint256"}],"outputs":[{"name":"","type":"address","internalType":"address"}],"stateMutability":"view"},{"type":"function","name":"publish","inputs":[{"name":"to","type":"address","internalType":"address"},{"name":"tokenUri","type":"string","internalType":"string"}],"outputs":[{"name":"","type":"uint256","internalType":"uint256"}],"stateMutability":"payable"},{"type":"function","name":"renounceOwnership","inputs":[],"outputs":[],"stateMutability":"nonpayable"},{"type":"function","name":"safeTransferFrom","inputs":[{"name":"from","type":"address","internalType":"address"},{"name":"to","type":"address","internalType":"address"},{"name":"tokenId","type":"uint256","internalType":"uint256"}],"outputs":[],"stateMutability":"nonpayable"},{"type":"function","name":"safeTransferFrom","inputs":[{"name":"from","type":"address","internalType":"address"},{"name":"to","type":"address","internalType":"address"},{"name":"tokenId","type":"uint256","internalType":"uint256"},{"name":"data","type":"bytes","internalType":"bytes"}],"outputs":[],"stateMutability":"nonpayable"},{"type":"function","name":"setApprovalForAll","inputs":[{"name":"operator","type":"address","internalType":"address"},{"name":"approved","type":"bool","internalType":"bool"}],"outputs":[],"stateMutability":"nonpayable"},{"type":"function","name":"supportsInterface","inputs":[{"name":"interfaceId","type":"bytes4","internalType":"bytes4"}],"outputs":[{"name":"","type":"bool","internalType":"bool"}],"stateMutability":"view"},{"type":"function","name":"symbol","inputs":[],"outputs":[{"name":"","type":"string","internalType":"string"}],"stateMutability":"view"},{"type":"function","name":"tokenURI","inputs":[{"name":"tokenId","type":"uint256","internalType":"uint256"}],"outputs":[{"name":"","type":"string","internalType":"string"}],"stateMutability":"view"},{"type":"function","name":"transferFrom","inputs":[{"name":"from","type":"address","internalType":"address"},{"name":"to","type":"address","internalType":"address"},{"name":"tokenId","type":"uint256","internalType":"uint256"}],"outputs":[],"stateMutability":"nonpayable"},{"type":"function","name":"transferOwnership","inputs":[{"name":"newOwner","type":"address","internalType":"address"}],"outputs":[],"stateMutability":"nonpayable"},{"type":"event","name":"Approval","inputs":[{"name":"owner","type":"address","indexed":true,"internalType":"address"},{"name":"approved","type":"address","indexed":true,"internalType":"address"},{"name":"tokenId","type":"uint256","indexed":true,"internalType":"uint256"}],"anonymous":false},{"type":"event","name":"ApprovalForAll","inputs":[{"name":"owner","type":"address","indexed":true,"internalType":"address"},{"name":"operator","type":"address","indexed":true,"internalType":"address"},{"name":"approved","type":"bool","indexed":false,"internalType":"bool"}],"anonymous":false},{"type":"event","name":"BatchMetadataUpdate","inputs":[{"name":"_fromTokenId","type":"uint256","indexed":false,"internalType":"uint256"},{"name":"_toTokenId","type":"uint256","indexed":false,"internalType":"uint256"}],"anonymous":false},{"type":"event","name":"MetadataUpdate","inputs":[{"name":"_tokenId","type":"uint256","indexed":false,"internalType":"uint256"}],"anonymous":false},{"type":"event","name":"OwnershipTransferred","inputs":[{"name":"previousOwner","type":"address","indexed":true,"internalType":"address"},{"name":"newOwner","type":"address","indexed":true,"internalType":"address"}],"anonymous":false},{"type":"event","name":"Transfer","inputs":[{"name":"from","type":"address","indexed":true,"internalType":"address"},{"name":"to","type":"address","indexed":true,"internalType":"address"},{"name":"tokenId","type":"uint256","indexed":true,"internalType":"uint256"}],"anonymous":false},{"type":"error","name":"ERC721IncorrectOwner","inputs":[{"name":"sender","type":"address","internalType":"address"},{"name":"tokenId","type":"uint256","internalType":"uint256"},{"name":"owner","type":"address","internalType":"address"}]},{"type":"error","name":"ERC721InsufficientApproval","inputs":[{"name":"operator","type":"address","internalType":"address"},{"name":"tokenId","type":"uint256","internalType":"uint256"}]},{"type":"error","name":"ERC721InvalidApprover","inputs":[{"name":"approver","type":"address","internalType":"address"}]},{"type":"error","name":"ERC721InvalidOperator","inputs":[{"name":"operator","type":"address","internalType":"address"}]},{"type":"error","name":"ERC721InvalidOwner","inputs":[{"name":"owner","type":"address","internalType":"address"}]},{"type":"error","name":"ERC721InvalidReceiver","inputs":[{"name":"receiver","type":"address","internalType":"address"}]},{"type":"error","name":"ERC721InvalidSender","inputs":[{"name":"sender","type":"address","internalType":"address"}]},{"type":"error","name":"ERC721NonexistentToken","inputs":[{"name":"tokenId","type":"uint256","internalType":"uint256"}]},{"type":"error","name":"OwnableInvalidOwner","inputs":[{"name":"owner","type":"address","internalType":"address"}]},{"type":"error","name":"OwnableUnauthorizedAccount","inputs":[{"name":"account","type":"address","internalType":"address"}]}],"bytecode":{"object":"0x6080604052600854600955348015610015575f5ffd5b50336040518060400160405280600b81526020017f4d61726b6574706c6163650000000000000000000000000000000000000000008152506040518060400160405280600481526020017f4d4b545000000000000000000000000000000000000000000000000000000000815250815f90816100919190610429565b5080600190816100a19190610429565b5050505f73ffffffffffffffffffffffffffffffffffffffff168173ffffffffffffffffffffffffffffffffffffffff1603610114575f6040517f1e4fbdf700000000000000000000000000000000000000000000000000000000815260040161010b9190610537565b60405180910390fd5b6101238161012960201b60201c565b50610550565b5f60075f9054906101000a900473ffffffffffffffffffffffffffffffffffffffff1690508160075f6101000a81548173ffffffffffffffffffffffffffffffffffffffff021916908373ffffffffffffffffffffffffffffffffffffffff1602179055508173ffffffffffffffffffffffffffffffffffffffff168173ffffffffffffffffffffffffffffffffffffffff167f8be0079c531659141344cd1fd0a4f28419497f9722a3daafe3b4186f6b6457e060405160405180910390a35050565b5f81519050919050565b7f4e487b71000000000000000000000000000000000000000000000000000000005f52604160045260245ffd5b7f4e487b71000000000000000000000000000000000000000000000000000000005f52602260045260245ffd5b5f600282049050600182168061026757607f821691505b60208210810361027a57610279610223565b5b50919050565b5f819050815f5260205f209050919050565b5f6020601f8301049050919050565b5f82821b905092915050565b5f600883026102dc7fffffffffffffffffffffffffffffffffffffffffffffffffffffffffffffffff826102a1565b6102e686836102a1565b95508019841693508086168417925050509392505050565b5f819050919050565b5f819050919050565b5f61032a610325610320846102fe565b610307565b6102fe565b9050919050565b5f819050919050565b61034383610310565b61035761034f82610331565b8484546102ad565b825550505050565b5f5f905090565b61036e61035f565b61037981848461033a565b505050565b5b8181101561039c576103915f82610366565b60018101905061037f565b5050565b601f8211156103e1576103b281610280565b6103bb84610292565b810160208510156103ca578190505b6103de6103d685610292565b83018261037e565b50505b505050565b5f82821c905092915050565b5f6104015f19846008026103e6565b1980831691505092915050565b5f61041983836103f2565b9150826002028217905092915050565b610432826101ec565b67ffffffffffffffff81111561044b5761044a6101f6565b5b6104558254610250565b6104608282856103a0565b5f60209050601f831160018114610491575f841561047f578287015190505b610489858261040e565b8655506104f0565b601f19841661049f86610280565b5f5b828110156104c6578489015182556001820191506020850194506020810190506104a1565b868310156104e357848901516104df601f8916826103f2565b8355505b6001600288020188555050505b505050505050565b5f73ffffffffffffffffffffffffffffffffffffffff82169050919050565b5f610521826104f8565b9050919050565b61053181610517565b82525050565b5f60208201905061054a5f830184610528565b92915050565b6126b48061055d5f395ff3fe6080604052600436106100fd575f3560e01c8063715018a611610094578063b88d4fde11610063578063b88d4fde14610325578063ba68a2bf1461034d578063c87b56dd1461037d578063e985e9c5146103b9578063f2fde38b146103f5576100fd565b8063715018a6146102935780638da5cb5b146102a957806395d89b41146102d3578063a22cb465146102fd576100fd565b806323b872dd116100d057806323b872dd146101cb57806342842e0e146101f35780636352211e1461021b57806370a0823114610257576100fd565b806301ffc9a71461010157806306fdde031461013d578063081812fc14610167578063095ea7b3146101a3575b5f5ffd5b34801561010c575f5ffd5b5061012760048036038101906101229190611b1c565b61041d565b6040516101349190611b61565b60405180910390f35b348015610148575f5ffd5b5061015161047d565b60405161015e9190611bea565b60405180910390f35b348015610172575f5ffd5b5061018d60048036038101906101889190611c3d565b61050c565b60405161019a9190611ca7565b60405180910390f35b3480156101ae575f5ffd5b506101c960048036038101906101c49190611cea565b610527565b005b3480156101d6575f5ffd5b506101f160048036038101906101ec9190611d28565b61053d565b005b3480156101fe575f5ffd5b5061021960048036038101906102149190611d28565b61063c565b005b348015610226575f5ffd5b50610241600480360381019061023c9190611c3d565b61065b565b60405161024e9190611ca7565b60405180910390f35b348015610262575f5ffd5b5061027d60048036038101906102789190611d78565b61066c565b60405161028a9190611db2565b60405180910390f35b34801561029e575f5ffd5b506102a7610722565b005b3480156102b4575f5ffd5b506102bd610735565b6040516102ca9190611ca7565b60405180910390f35b3480156102de575f5ffd5b506102e761075d565b6040516102f49190611bea565b60405180910390f35b348015610308575f5ffd5b50610323600480360381019061031e9190611df5565b6107ed565b005b348015610330575f5ffd5b5061034b60048036038101906103469190611f5f565b610803565b005b6103676004803603810190610362919061207d565b610828565b6040516103749190611db2565b60405180910390f35b348015610388575f5ffd5b506103a3600480360381019061039e9190611c3d565b6108ae565b6040516103b09190611bea565b60405180910390f35b3480156103c4575f5ffd5b506103df60048036038101906103da91906120d7565b6109b9565b6040516103ec9190611b61565b60405180910390f35b348015610400575f5ffd5b5061041b60048036038101906104169190611d78565b610a47565b005b5f634906490660e01b7bffffffffffffffffffffffffffffffffffffffffffffffffffffffff1916827bffffffffffffffffffffffffffffffffffffffffffffffffffffffff19161480610476575061047582610acb565b5b9050919050565b60605f805461048b90612142565b80601f01602080910402602001604051908101604052809291908181526020018280546104b790612142565b80156105025780601f106104d957610100808354040283529160200191610502565b820191905f5260205f20905b8154815290600101906020018083116104e557829003601f168201915b5050505050905090565b5f61051682610bac565b5061052082610c32565b9050919050565b6105398282610534610c6b565b610c72565b5050565b5f73ffffffffffffffffffffffffffffffffffffffff168273ffffffffffffffffffffffffffffffffffffffff16036105ad575f6040517f64a0ae920000000000000000000000000000000000000000000000000000000081526004016105a49190611ca7565b60405180910390fd5b5f6105c083836105bb610c6b565b610c84565b90508373ffffffffffffffffffffffffffffffffffffffff168173ffffffffffffffffffffffffffffffffffffffff1614610636578382826040517f64283d7b00000000000000000000000000000000000000000000000000000000815260040161062d93929190612172565b60405180910390fd5b50505050565b61065683838360405180602001604052805f815250610803565b505050565b5f61066582610bac565b9050919050565b5f5f73ffffffffffffffffffffffffffffffffffffffff168273ffffffffffffffffffffffffffffffffffffffff16036106dd575f6040517f89c62b640000000000000000000000000000000000000000000000000000000081526004016106d49190611ca7565b60405180910390fd5b60035f8373ffffffffffffffffffffffffffffffffffffffff1673ffffffffffffffffffffffffffffffffffffffff1681526020019081526020015f20549050919050565b61072a610e8f565b6107335f610f16565b565b5f60075f9054906101000a900473ffffffffffffffffffffffffffffffffffffffff16905090565b60606001805461076c90612142565b80601f016020809104026020016040519081016040528092919081815260200182805461079890612142565b80156107e35780601f106107ba576101008083540402835291602001916107e3565b820191905f5260205f20905b8154815290600101906020018083116107c657829003601f168201915b5050505050905090565b6107ff6107f8610c6b565b8383610fd9565b5050565b61080e84848461053d565b610822610819610c6b565b85858585611142565b50505050565b5f66b1a2bc2ec50000341015610873576040517f08c379a000000000000000000000000000000000000000000000000000000000815260040161086a906121f1565b60405180910390fd5b60085f8154809291906108859061223c565b91905055505f600854905061089a84826112ee565b6108a481846113e1565b8091505092915050565b60606108b982610bac565b505f60065f8481526020019081526020015f2080546108d790612142565b80601f016020809104026020016040519081016040528092919081815260200182805461090390612142565b801561094e5780601f106109255761010080835404028352916020019161094e565b820191905f5260205f20905b81548152906001019060200180831161093157829003601f168201915b505050505090505f61095e61143b565b90505f8151036109725781925050506109b4565b5f825111156109a657808260405160200161098e9291906122bd565b604051602081830303815290604052925050506109b4565b6109af84611451565b925050505b919050565b5f60055f8473ffffffffffffffffffffffffffffffffffffffff1673ffffffffffffffffffffffffffffffffffffffff1681526020019081526020015f205f8373ffffffffffffffffffffffffffffffffffffffff1673ffffffffffffffffffffffffffffffffffffffff1681526020019081526020015f205f9054906101000a900460ff16905092915050565b610a4f610e8f565b5f73ffffffffffffffffffffffffffffffffffffffff168173ffffffffffffffffffffffffffffffffffffffff1603610abf575f6040517f1e4fbdf7000000000000000000000000000000000000000000000000000000008152600401610ab69190611ca7565b60405180910390fd5b610ac881610f16565b50565b5f7f80ac58cd000000000000000000000000000000000000000000000000000000007bffffffffffffffffffffffffffffffffffffffffffffffffffffffff1916827bffffffffffffffffffffffffffffffffffffffffffffffffffffffff19161480610b9557507f5b5e139f000000000000000000000000000000000000000000000000000000007bffffffffffffffffffffffffffffffffffffffffffffffffffffffff1916827bffffffffffffffffffffffffffffffffffffffffffffffffffffffff1916145b80610ba55750610ba4826114b7565b5b9050919050565b5f5f610bb783611520565b90505f73ffffffffffffffffffffffffffffffffffffffff168173ffffffffffffffffffffffffffffffffffffffff1603610c2957826040517f7e273289000000000000000000000000000000000000000000000000000000008152600401610c209190611db2565b60405180910390fd5b80915050919050565b5f60045f8381526020019081526020015f205f9054906101000a900473ffffffffffffffffffffffffffffffffffffffff169050919050565b5f33905090565b610c7f8383836001611559565b505050565b5f5f610c8f84611520565b90505f73ffffffffffffffffffffffffffffffffffffffff168373ffffffffffffffffffffffffffffffffffffffff1614610cd057610ccf818486611718565b5b5f73ffffffffffffffffffffffffffffffffffffffff168173ffffffffffffffffffffffffffffffffffffffff1614610d5b57610d0f5f855f5f611559565b600160035f8373ffffffffffffffffffffffffffffffffffffffff1673ffffffffffffffffffffffffffffffffffffffff1681526020019081526020015f205f82825403925050819055505b5f73ffffffffffffffffffffffffffffffffffffffff168573ffffffffffffffffffffffffffffffffffffffff1614610dda57600160035f8773ffffffffffffffffffffffffffffffffffffffff1673ffffffffffffffffffffffffffffffffffffffff1681526020019081526020015f205f82825401925050819055505b8460025f8681526020019081526020015f205f6101000a81548173ffffffffffffffffffffffffffffffffffffffff021916908373ffffffffffffffffffffffffffffffffffffffff160217905550838573ffffffffffffffffffffffffffffffffffffffff168273ffffffffffffffffffffffffffffffffffffffff167fddf252ad1be2c89b69c2b068fc378daa952ba7f163c4a11628f55a4df523b3ef60405160405180910390a4809150509392505050565b610e97610c6b565b73ffffffffffffffffffffffffffffffffffffffff16610eb5610735565b73ffffffffffffffffffffffffffffffffffffffff1614610f1457610ed8610c6b565b6040517f118cdaa7000000000000000000000000000000000000000000000000000000008152600401610f0b9190611ca7565b60405180910390fd5b565b5f60075f9054906101000a900473ffffffffffffffffffffffffffffffffffffffff1690508160075f6101000a81548173ffffffffffffffffffffffffffffffffffffffff021916908373ffffffffffffffffffffffffffffffffffffffff1602179055508173ffffffffffffffffffffffffffffffffffffffff168173ffffffffffffffffffffffffffffffffffffffff167f8be0079c531659141344cd1fd0a4f28419497f9722a3daafe3b4186f6b6457e060405160405180910390a35050565b5f73ffffffffffffffffffffffffffffffffffffffff168273ffffffffffffffffffffffffffffffffffffffff160361104957816040517f5b08ba180000000000000000000000000000000000000000000000000000000081526004016110409190611ca7565b60405180910390fd5b8060055f8573ffffffffffffffffffffffffffffffffffffffff1673ffffffffffffffffffffffffffffffffffffffff1681526020019081526020015f205f8473ffffffffffffffffffffffffffffffffffffffff1673ffffffffffffffffffffffffffffffffffffffff1681526020019081526020015f205f6101000a81548160ff0219169083151502179055508173ffffffffffffffffffffffffffffffffffffffff168373ffffffffffffffffffffffffffffffffffffffff167f17307eab39ab6107e8899845ad3d59bd9653f200f220920489ca2b5937696c31836040516111359190611b61565b60405180910390a3505050565b5f8373ffffffffffffffffffffffffffffffffffffffff163b11156112e7578273ffffffffffffffffffffffffffffffffffffffff1663150b7a02868685856040518563ffffffff1660e01b81526004016111a09493929190612332565b6020604051808303815f875af19250505080156111db57506040513d601f19601f820116820180604052508101906111d89190612390565b60015b61125c573d805f8114611209576040519150601f19603f3d011682016040523d82523d5f602084013e61120e565b606091505b505f81510361125457836040517f64a0ae9200000000000000000000000000000000000000000000000000000000815260040161124b9190611ca7565b60405180910390fd5b805181602001fd5b63150b7a0260e01b7bffffffffffffffffffffffffffffffffffffffffffffffffffffffff1916817bffffffffffffffffffffffffffffffffffffffffffffffffffffffff1916146112e557836040517f64a0ae920000000000000000000000000000000000000000000000000000000081526004016112dc9190611ca7565b60405180910390fd5b505b5050505050565b5f73ffffffffffffffffffffffffffffffffffffffff168273ffffffffffffffffffffffffffffffffffffffff160361135e575f6040517f64a0ae920000000000000000000000000000000000000000000000000000000081526004016113559190611ca7565b60405180910390fd5b5f61136a83835f610c84565b90505f73ffffffffffffffffffffffffffffffffffffffff168173ffffffffffffffffffffffffffffffffffffffff16146113dc575f6040517f73c6ac6e0000000000000000000000000000000000000000000000000000000081526004016113d39190611ca7565b60405180910390fd5b505050565b8060065f8481526020019081526020015f2090816113ff919061255b565b507ff8e1a15aba9398e019f0b49df1a4fde98ee17ae345cb5f6b5e2c27f5033e8ce78260405161142f9190611db2565b60405180910390a15050565b606060405180602001604052805f815250905090565b606061145c82610bac565b505f61146661143b565b90505f8151116114845760405180602001604052805f8152506114af565b8061148e846117db565b60405160200161149f9291906122bd565b6040516020818303038152906040525b915050919050565b5f7f01ffc9a7000000000000000000000000000000000000000000000000000000007bffffffffffffffffffffffffffffffffffffffffffffffffffffffff1916827bffffffffffffffffffffffffffffffffffffffffffffffffffffffff1916149050919050565b5f60025f8381526020019081526020015f205f9054906101000a900473ffffffffffffffffffffffffffffffffffffffff169050919050565b808061159157505f73ffffffffffffffffffffffffffffffffffffffff168273ffffffffffffffffffffffffffffffffffffffff1614155b156116c3575f6115a084610bac565b90505f73ffffffffffffffffffffffffffffffffffffffff168373ffffffffffffffffffffffffffffffffffffffff161415801561160a57508273ffffffffffffffffffffffffffffffffffffffff168173ffffffffffffffffffffffffffffffffffffffff1614155b801561161d575061161b81846109b9565b155b1561165f57826040517fa9fbf51f0000000000000000000000000000000000000000000000000000000081526004016116569190611ca7565b60405180910390fd5b81156116c157838573ffffffffffffffffffffffffffffffffffffffff168273ffffffffffffffffffffffffffffffffffffffff167f8c5be1e5ebec7d5bd14f71427d1e84f3dd0314c0f7b2291e5b200ac8c7c3b92560405160405180910390a45b505b8360045f8581526020019081526020015f205f6101000a81548173ffffffffffffffffffffffffffffffffffffffff021916908373ffffffffffffffffffffffffffffffffffffffff16021790555050505050565b6117238383836118a5565b6117d6575f73ffffffffffffffffffffffffffffffffffffffff168373ffffffffffffffffffffffffffffffffffffffff160361179757806040517f7e27328900000000000000000000000000000000000000000000000000000000815260040161178e9190611db2565b60405180910390fd5b81816040517f177e802f0000000000000000000000000000000000000000000000000000000081526004016117cd92919061262a565b60405180910390fd5b505050565b60605f60016117e984611965565b0190505f8167ffffffffffffffff81111561180757611806611e3b565b5b6040519080825280601f01601f1916602001820160405280156118395781602001600182028036833780820191505090505b5090505f82602001820190505b60011561189a578080600190039150507f3031323334353637383961626364656600000000000000000000000000000000600a86061a8153600a858161188f5761188e612651565b5b0494505f8503611846575b819350505050919050565b5f5f73ffffffffffffffffffffffffffffffffffffffff168373ffffffffffffffffffffffffffffffffffffffff161415801561195c57508273ffffffffffffffffffffffffffffffffffffffff168473ffffffffffffffffffffffffffffffffffffffff16148061191d575061191c84846109b9565b5b8061195b57508273ffffffffffffffffffffffffffffffffffffffff1661194383610c32565b73ffffffffffffffffffffffffffffffffffffffff16145b5b90509392505050565b5f5f5f90507a184f03e93ff9f4daa797ed6e38ed64bf6a1f01000000000000000083106119c1577a184f03e93ff9f4daa797ed6e38ed64bf6a1f01000000000000000083816119b7576119b6612651565b5b0492506040810190505b6d04ee2d6d415b85acef810000000083106119fe576d04ee2d6d415b85acef810000000083816119f4576119f3612651565b5b0492506020810190505b662386f26fc100008310611a2d57662386f26fc100008381611a2357611a22612651565b5b0492506010810190505b6305f5e1008310611a56576305f5e1008381611a4c57611a4b612651565b5b0492506008810190505b6127108310611a7b576127108381611a7157611a70612651565b5b0492506004810190505b60648310611a9e5760648381611a9457611a93612651565b5b0492506002810190505b600a8310611aad576001810190505b80915050919050565b5f604051905090565b5f5ffd5b5f5ffd5b5f7fffffffff0000000000000000000000000000000000000000000000000000000082169050919050565b611afb81611ac7565b8114611b05575f5ffd5b50565b5f81359050611b1681611af2565b92915050565b5f60208284031215611b3157611b30611abf565b5b5f611b3e84828501611b08565b91505092915050565b5f8115159050919050565b611b5b81611b47565b82525050565b5f602082019050611b745f830184611b52565b92915050565b5f81519050919050565b5f82825260208201905092915050565b8281835e5f83830152505050565b5f601f19601f8301169050919050565b5f611bbc82611b7a565b611bc68185611b84565b9350611bd6818560208601611b94565b611bdf81611ba2565b840191505092915050565b5f6020820190508181035f830152611c028184611bb2565b905092915050565b5f819050919050565b611c1c81611c0a565b8114611c26575f5ffd5b50565b5f81359050611c3781611c13565b92915050565b5f60208284031215611c5257611c51611abf565b5b5f611c5f84828501611c29565b91505092915050565b5f73ffffffffffffffffffffffffffffffffffffffff82169050919050565b5f611c9182611c68565b9050919050565b611ca181611c87565b82525050565b5f602082019050611cba5f830184611c98565b92915050565b611cc981611c87565b8114611cd3575f5ffd5b50565b5f81359050611ce481611cc0565b92915050565b5f5f60408385031215611d0057611cff611abf565b5b5f611d0d85828601611cd6565b9250506020611d1e85828601611c29565b9150509250929050565b5f5f5f60608486031215611d3f57611d3e611abf565b5b5f611d4c86828701611cd6565b9350506020611d5d86828701611cd6565b9250506040611d6e86828701611c29565b9150509250925092565b5f60208284031215611d8d57611d8c611abf565b5b5f611d9a84828501611cd6565b91505092915050565b611dac81611c0a565b82525050565b5f602082019050611dc55f830184611da3565b92915050565b611dd481611b47565b8114611dde575f5ffd5b50565b5f81359050611def81611dcb565b92915050565b5f5f60408385031215611e0b57611e0a611abf565b5b5f611e1885828601611cd6565b9250506020611e2985828601611de1565b9150509250929050565b5f5ffd5b5f5ffd5b7f4e487b71000000000000000000000000000000000000000000000000000000005f52604160045260245ffd5b611e7182611ba2565b810181811067ffffffffffffffff82111715611e9057611e8f611e3b565b5b80604052505050565b5f611ea2611ab6565b9050611eae8282611e68565b919050565b5f67ffffffffffffffff821115611ecd57611ecc611e3b565b5b611ed682611ba2565b9050602081019050919050565b828183375f83830152505050565b5f611f03611efe84611eb3565b611e99565b905082815260208101848484011115611f1f57611f1e611e37565b5b611f2a848285611ee3565b509392505050565b5f82601f830112611f4657611f45611e33565b5b8135611f56848260208601611ef1565b91505092915050565b5f5f5f5f60808587031215611f7757611f76611abf565b5b5f611f8487828801611cd6565b9450506020611f9587828801611cd6565b9350506040611fa687828801611c29565b925050606085013567ffffffffffffffff811115611fc757611fc6611ac3565b5b611fd387828801611f32565b91505092959194509250565b5f67ffffffffffffffff821115611ff957611ff8611e3b565b5b61200282611ba2565b9050602081019050919050565b5f61202161201c84611fdf565b611e99565b90508281526020810184848401111561203d5761203c611e37565b5b612048848285611ee3565b509392505050565b5f82601f83011261206457612063611e33565b5b813561207484826020860161200f565b91505092915050565b5f5f6040838503121561209357612092611abf565b5b5f6120a085828601611cd6565b925050602083013567ffffffffffffffff8111156120c1576120c0611ac3565b5b6120cd85828601612050565b9150509250929050565b5f5f604083850312156120ed576120ec611abf565b5b5f6120fa85828601611cd6565b925050602061210b85828601611cd6565b9150509250929050565b7f4e487b71000000000000000000000000000000000000000000000000000000005f52602260045260245ffd5b5f600282049050600182168061215957607f821691505b60208210810361216c5761216b612115565b5b50919050565b5f6060820190506121855f830186611c98565b6121926020830185611da3565b61219f6040830184611c98565b949350505050565b7f496e73756666696369656e7420457468657220616d6f756e74000000000000005f82015250565b5f6121db601983611b84565b91506121e6826121a7565b602082019050919050565b5f6020820190508181035f830152612208816121cf565b9050919050565b7f4e487b71000000000000000000000000000000000000000000000000000000005f52601160045260245ffd5b5f61224682611c0a565b91507fffffffffffffffffffffffffffffffffffffffffffffffffffffffffffffffff82036122785761227761220f565b5b600182019050919050565b5f81905092915050565b5f61229782611b7a565b6122a18185612283565b93506122b1818560208601611b94565b80840191505092915050565b5f6122c8828561228d565b91506122d4828461228d565b91508190509392505050565b5f81519050919050565b5f82825260208201905092915050565b5f612304826122e0565b61230e81856122ea565b935061231e818560208601611b94565b61232781611ba2565b840191505092915050565b5f6080820190506123455f830187611c98565b6123526020830186611c98565b61235f6040830185611da3565b818103606083015261237181846122fa565b905095945050505050565b5f8151905061238a81611af2565b92915050565b5f602082840312156123a5576123a4611abf565b5b5f6123b28482850161237c565b91505092915050565b5f819050815f5260205f209050919050565b5f6020601f8301049050919050565b5f82821b905092915050565b5f600883026124177fffffffffffffffffffffffffffffffffffffffffffffffffffffffffffffffff826123dc565b61242186836123dc565b95508019841693508086168417925050509392505050565b5f819050919050565b5f61245c61245761245284611c0a565b612439565b611c0a565b9050919050565b5f819050919050565b61247583612442565b61248961248182612463565b8484546123e8565b825550505050565b5f5f905090565b6124a0612491565b6124ab81848461246c565b505050565b5b818110156124ce576124c35f82612498565b6001810190506124b1565b5050565b601f821115612513576124e4816123bb565b6124ed846123cd565b810160208510156124fc578190505b612510612508856123cd565b8301826124b0565b50505b505050565b5f82821c905092915050565b5f6125335f1984600802612518565b1980831691505092915050565b5f61254b8383612524565b9150826002028217905092915050565b61256482611b7a565b67ffffffffffffffff81111561257d5761257c611e3b565b5b6125878254612142565b6125928282856124d2565b5f60209050601f8311600181146125c3575f84156125b1578287015190505b6125bb8582612540565b865550612622565b601f1984166125d1866123bb565b5f5b828110156125f8578489015182556001820191506020850194506020810190506125d3565b868310156126155784890151612611601f891682612524565b8355505b6001600288020188555050505b505050505050565b5f60408201905061263d5f830185611c98565b61264a6020830184611da3565b9392505050565b7f4e487b71000000000000000000000000000000000000000000000000000000005f52601260045260245ffdfea26469706673582212208c735084048c980195fb4c0a8a342cad69fcb5a71ce9f422b64450587018066564736f6c634300081c0033","linkReferences":{}},"methodIdentifiers":{"approve(address,uint256)":"095ea7b3","balanceOf(address)":"70a08231","getApproved(uint256)":"081812fc","isApprovedForAll(address,address)":"e985e9c5","name()":"06fdde03","owner()":"8da5cb5b","ownerOf(uint256)":"6352211e","publish(address,string)":"ba68a2bf","renounceOwnership()":"715018a6","safeTransferFrom(address,address,uint256)":"42842e0e","safeTransferFrom(address,address,uint256,bytes)":"b88d4fde","setApprovalForAll(address,bool)":"a22cb465","supportsInterface(bytes4)":"01ffc9a7","symbol()":"95d89b41","tokenURI(uint256)":"c87b56dd","transferFrom(address,address,uint256)":"23b872dd","transferOwnership(address)":"f2fde38b"},"id":1}