{"abi":[{"type":"constructor","inputs":[],"stateMutability":"nonpayable"},{"type":"function","name":"approve","inputs":[{"name":"to","type":"address","internalType":"address"},{"name":"tokenId","type":"uint256","internalType":"uint256"}],"outputs":[],"stateMutability":"nonpayable"},{"type":"function","name":"balanceOf","inputs":[{"name":"owner","type":"address","internalType":"address"}],"outputs":[{"name":"","type":"uint256","internalType":"uint256"}],"stateMutability":"view"},{"type":"function","name":"getApproved","inputs":[{"name":"tokenId","type":"uint256","internalType":"uint256"}],"outputs":[{"name":"","type":"address","internalType":"address"}],"stateMutability":"view"},{"type":"function","name":"getInventoryItemCount","inputs":[],"outputs":[{"name":"","type":"uint256","internalType":"uint256"}],"stateMutability":"view"},{"type":"function","name":"getMarketItem","inputs":[{"name":"_tokenId","type":"uint256","internalType":"uint256"}],"outputs":[{"name":"","type":"tuple","internalType":"struct Marketplace.MarketItem","components":[{"name":"name","type":"string","internalType":"string"},{"name":"imageURI","type":"string","internalType":"string"},{"name":"imageShaSum","type":"string","internalType":"string"},{"name":"saleEnabled","type":"bool","internalType":"bool"},{"name":"sellingPrice","type":"uint256","internalType":"uint256"}]}],"stateMutability":"view"},{"type":"function","name":"getPublishingPrice","inputs":[],"outputs":[{"name":"","type":"uint256","internalType":"uint256"}],"stateMutability":"view"},{"type":"function","name":"isApprovedForAll","inputs":[{"name":"owner","type":"address","internalType":"address"},{"name":"operator","type":"address","internalType":"address"}],"outputs":[{"name":"","type":"bool","internalType":"bool"}],"stateMutability":"view"},{"type":"function","name":"name","inputs":[],"outputs":[{"name":"","type":"string","internalType":"string"}],"stateMutability":"view"},{"type":"function","name":"owner","inputs":[],"outputs":[{"name":"","type":"address","internalType":"address"}],"stateMutability":"view"},{"type":"function","name":"ownerOf","inputs":[{"name":"tokenId","type":"uint256","internalType":"uint256"}],"outputs":[{"name":"","type":"address","internalType":"address"}],"stateMutability":"view"},{"type":"function","name":"pause","inputs":[],"outputs":[],"stateMutability":"nonpayable"},{"type":"function","name":"paused","inputs":[],"outputs":[{"name":"","type":"bool","internalType":"bool"}],"stateMutability":"view"},{"type":"function","name":"publish","inputs":[{"name":"_name","type":"string","internalType":"string"},{"name":"_imageUrl","type":"string","internalType":"string"},{"name":"_imageShaSum","type":"string","internalType":"string"},{"name":"_saleEnabled","type":"bool","internalType":"bool"},{"name":"_sellingPrice","type":"uint256","internalType":"uint256"}],"outputs":[{"name":"","type":"uint256","internalType":"uint256"}],"stateMutability":"payable"},{"type":"function","name":"purchase","inputs":[{"name":"_buyerAddress","type":"address","internalType":"address"},{"name":"_tokenId","type":"uint256","internalType":"uint256"}],"outputs":[],"stateMutability":"payable"},{"type":"function","name":"renounceOwnership","inputs":[],"outputs":[],"stateMutability":"nonpayable"},{"type":"function","name":"safeTransferFrom","inputs":[{"name":"from","type":"address","internalType":"address"},{"name":"to","type":"address","internalType":"address"},{"name":"tokenId","type":"uint256","internalType":"uint256"}],"outputs":[],"stateMutability":"nonpayable"},{"type":"function","name":"safeTransferFrom","inputs":[{"name":"from","type":"address","internalType":"address"},{"name":"to","type":"address","internalType":"address"},{"name":"tokenId","type":"uint256","internalType":"uint256"},{"name":"data","type":"bytes","internalType":"bytes"}],"outputs":[],"stateMutability":"nonpayable"},{"type":"function","name":"setApprovalForAll","inputs":[{"name":"operator","type":"address","internalType":"address"},{"name":"approved","type":"bool","internalType":"bool"}],"outputs":[],"stateMutability":"nonpayable"},{"type":"function","name":"setBaseTokenURI","inputs":[{"name":"_newBaseURI","type":"string","internalType":"string"}],"outputs":[],"stateMutability":"nonpayable"},{"type":"function","name":"setPublishingPrice","inputs":[{"name":"_newPrice","type":"uint256","internalType":"uint256"}],"outputs":[],"stateMutability":"nonpayable"},{"type":"function","name":"setSaleEnabled","inputs":[{"name":"_tokenId","type":"uint256","internalType":"uint256"},{"name":"_saleEnabled","type":"bool","internalType":"bool"}],"outputs":[],"stateMutability":"nonpayable"},{"type":"function","name":"supportsInterface","inputs":[{"name":"interfaceId","type":"bytes4","internalType":"bytes4"}],"outputs":[{"name":"","type":"bool","internalType":"bool"}],"stateMutability":"view"},{"type":"function","name":"symbol","inputs":[],"outputs":[{"name":"","type":"string","internalType":"string"}],"stateMutability":"view"},{"type":"function","name":"tokenURI","inputs":[{"name":"tokenId","type":"uint256","internalType":"uint256"}],"outputs":[{"name":"","type":"string","internalType":"string"}],"stateMutability":"view"},{"type":"function","name":"transferFrom","inputs":[{"name":"from","type":"address","internalType":"address"},{"name":"to","type":"address","internalType":"address"},{"name":"tokenId","type":"uint256","internalType":"uint256"}],"outputs":[],"stateMutability":"nonpayable"},{"type":"function","name":"transferOwnership","inputs":[{"name":"newOwner","type":"address","internalType":"address"}],"outputs":[],"stateMutability":"nonpayable"},{"type":"function","name":"unpause","inputs":[],"outputs":[],"stateMutability":"nonpayable"},{"type":"event","name":"Approval","inputs":[{"name":"owner","type":"address","indexed":true,"internalType":"address"},{"name":"approved","type":"address","indexed":true,"internalType":"address"},{"name":"tokenId","type":"uint256","indexed":true,"internalType":"uint256"}],"anonymous":false},{"type":"event","name":"ApprovalForAll","inputs":[{"name":"owner","type":"address","indexed":true,"internalType":"address"},{"name":"operator","type":"address","indexed":true,"internalType":"address"},{"name":"approved","type":"bool","indexed":false,"internalType":"bool"}],"anonymous":false},{"type":"event","name":"BatchMetadataUpdate","inputs":[{"name":"_fromTokenId","type":"uint256","indexed":false,"internalType":"uint256"},{"name":"_toTokenId","type":"uint256","indexed":false,"internalType":"uint256"}],"anonymous":false},{"type":"event","name":"MetadataUpdate","inputs":[{"name":"_tokenId","type":"uint256","indexed":false,"internalType":"uint256"}],"anonymous":false},{"type":"event","name":"OwnershipTransferred","inputs":[{"name":"previousOwner","type":"address","indexed":true,"internalType":"address"},{"name":"newOwner","type":"address","indexed":true,"internalType":"address"}],"anonymous":false},{"type":"event","name":"Paused","inputs":[{"name":"account","type":"address","indexed":false,"internalType":"address"}],"anonymous":false},{"type":"event","name":"Transfer","inputs":[{"name":"from","type":"address","indexed":true,"internalType":"address"},{"name":"to","type":"address","indexed":true,"internalType":"address"},{"name":"tokenId","type":"uint256","indexed":true,"internalType":"uint256"}],"anonymous":false},{"type":"event","name":"Unpaused","inputs":[{"name":"account","type":"address","indexed":false,"internalType":"address"}],"anonymous":false},{"type":"error","name":"ERC721IncorrectOwner","inputs":[{"name":"sender","type":"address","internalType":"address"},{"name":"tokenId","type":"uint256","internalType":"uint256"},{"name":"owner","type":"address","internalType":"address"}]},{"type":"error","name":"ERC721InsufficientApproval","inputs":[{"name":"operator","type":"address","internalType":"address"},{"name":"tokenId","type":"uint256","internalType":"uint256"}]},{"type":"error","name":"ERC721InvalidApprover","inputs":[{"name":"approver","type":"address","internalType":"address"}]},{"type":"error","name":"ERC721InvalidOperator","inputs":[{"name":"operator","type":"address","internalType":"address"}]},{"type":"error","name":"ERC721InvalidOwner","inputs":[{"name":"owner","type":"address","internalType":"address"}]},{"type":"error","name":"ERC721InvalidReceiver","inputs":[{"name":"receiver","type":"address","internalType":"address"}]},{"type":"error","name":"ERC721InvalidSender","inputs":[{"name":"sender","type":"address","internalType":"address"}]},{"type":"error","name":"ERC721NonexistentToken","inputs":[{"name":"tokenId","type":"uint256","internalType":"uint256"}]},{"type":"error","name":"EnforcedPause","inputs":[]},{"type":"error","name":"ExpectedPause","inputs":[]},{"type":"error","name":"OwnableInvalidOwner","inputs":[{"name":"owner","type":"address","internalType":"address"}]},{"type":"error","name":"OwnableUnauthorizedAccount","inputs":[{"name":"account","type":"address","internalType":"address"}]}],"bytecode":{"object":"0x608060405260405180602001604052805f81525060089081610021919061044e565b50662386f26fc10000600955348015610038575f5ffd5b50336040518060400160405280600b81526020017f4d61726b6574706c6163650000000000000000000000000000000000000000008152506040518060400160405280600481526020017f4d4b545000000000000000000000000000000000000000000000000000000000815250815f90816100b4919061044e565b5080600190816100c4919061044e565b5050505f73ffffffffffffffffffffffffffffffffffffffff168173ffffffffffffffffffffffffffffffffffffffff1603610137575f6040517f1e4fbdf700000000000000000000000000000000000000000000000000000000815260040161012e919061055c565b60405180910390fd5b6101468161014c60201b60201c565b50610575565b5f600760019054906101000a900473ffffffffffffffffffffffffffffffffffffffff16905081600760016101000a81548173ffffffffffffffffffffffffffffffffffffffff021916908373ffffffffffffffffffffffffffffffffffffffff1602179055508173ffffffffffffffffffffffffffffffffffffffff168173ffffffffffffffffffffffffffffffffffffffff167f8be0079c531659141344cd1fd0a4f28419497f9722a3daafe3b4186f6b6457e060405160405180910390a35050565b5f81519050919050565b7f4e487b71000000000000000000000000000000000000000000000000000000005f52604160045260245ffd5b7f4e487b71000000000000000000000000000000000000000000000000000000005f52602260045260245ffd5b5f600282049050600182168061028c57607f821691505b60208210810361029f5761029e610248565b5b50919050565b5f819050815f5260205f209050919050565b5f6020601f8301049050919050565b5f82821b905092915050565b5f600883026103017fffffffffffffffffffffffffffffffffffffffffffffffffffffffffffffffff826102c6565b61030b86836102c6565b95508019841693508086168417925050509392505050565b5f819050919050565b5f819050919050565b5f61034f61034a61034584610323565b61032c565b610323565b9050919050565b5f819050919050565b61036883610335565b61037c61037482610356565b8484546102d2565b825550505050565b5f5f905090565b610393610384565b61039e81848461035f565b505050565b5b818110156103c1576103b65f8261038b565b6001810190506103a4565b5050565b601f821115610406576103d7816102a5565b6103e0846102b7565b810160208510156103ef578190505b6104036103fb856102b7565b8301826103a3565b50505b505050565b5f82821c905092915050565b5f6104265f198460080261040b565b1980831691505092915050565b5f61043e8383610417565b9150826002028217905092915050565b61045782610211565b67ffffffffffffffff8111156104705761046f61021b565b5b61047a8254610275565b6104858282856103c5565b5f60209050601f8311600181146104b6575f84156104a4578287015190505b6104ae8582610433565b865550610515565b601f1984166104c4866102a5565b5f5b828110156104eb578489015182556001820191506020850194506020810190506104c6565b868310156105085784890151610504601f891682610417565b8355505b6001600288020188555050505b505050505050565b5f73ffffffffffffffffffffffffffffffffffffffff82169050919050565b5f6105468261051d565b9050919050565b6105568161053c565b82525050565b5f60208201905061056f5f83018461054d565b92915050565b6135b6806105825f395ff3fe60806040526004361061019b575f3560e01c80636352211e116100eb57806395d89b4111610089578063c7be7a4911610063578063c7be7a4914610559578063c87b56dd14610595578063e985e9c5146105d1578063f2fde38b1461060d5761019b565b806395d89b41146104df578063a22cb46514610509578063b88d4fde146105315761019b565b80638422ab59116100c55780638422ab591461045b5780638456cb59146104835780638da5cb5b146104995780638de93222146104c35761019b565b80636352211e146103cd57806370a0823114610409578063715018a6146104455761019b565b806330176e1311610158578063420e844511610132578063420e84451461032957806342842e0e1461035357806348006c331461037b5780635c975abb146103a35761019b565b806330176e13146102c15780633dd0a7c6146102e95780633f4ba83a146103135761019b565b806301ffc9a71461019f57806306fdde03146101db578063081812fc14610205578063095ea7b31461024157806323b872dd146102695780632d738bbe14610291575b5f5ffd5b3480156101aa575f5ffd5b506101c560048036038101906101c091906125e0565b610635565b6040516101d29190612625565b60405180910390f35b3480156101e6575f5ffd5b506101ef610695565b6040516101fc91906126ae565b60405180910390f35b348015610210575f5ffd5b5061022b60048036038101906102269190612701565b610724565b604051610238919061276b565b60405180910390f35b34801561024c575f5ffd5b50610267600480360381019061026291906127ae565b61073f565b005b348015610274575f5ffd5b5061028f600480360381019061028a91906127ec565b610755565b005b6102ab60048036038101906102a69190612992565b610854565b6040516102b89190612a6c565b60405180910390f35b3480156102cc575f5ffd5b506102e760048036038101906102e29190612a85565b6109eb565b005b3480156102f4575f5ffd5b506102fd610a06565b60405161030a9190612a6c565b60405180910390f35b34801561031e575f5ffd5b50610327610a0f565b005b348015610334575f5ffd5b5061033d610a21565b60405161034a9190612a6c565b60405180910390f35b34801561035e575f5ffd5b50610379600480360381019061037491906127ec565b610a32565b005b348015610386575f5ffd5b506103a1600480360381019061039c9190612acc565b610a51565b005b3480156103ae575f5ffd5b506103b7610afe565b6040516103c49190612625565b60405180910390f35b3480156103d8575f5ffd5b506103f360048036038101906103ee9190612701565b610b13565b604051610400919061276b565b60405180910390f35b348015610414575f5ffd5b5061042f600480360381019061042a9190612b0a565b610b24565b60405161043c9190612a6c565b60405180910390f35b348015610450575f5ffd5b50610459610bda565b005b348015610466575f5ffd5b50610481600480360381019061047c9190612701565b610bed565b005b34801561048e575f5ffd5b50610497610c4b565b005b3480156104a4575f5ffd5b506104ad610c5d565b6040516104ba919061276b565b60405180910390f35b6104dd60048036038101906104d891906127ae565b610c86565b005b3480156104ea575f5ffd5b506104f3610cf3565b60405161050091906126ae565b60405180910390f35b348015610514575f5ffd5b5061052f600480360381019061052a9190612b35565b610d83565b005b34801561053c575f5ffd5b5061055760048036038101906105529190612c11565b610d99565b005b348015610564575f5ffd5b5061057f600480360381019061057a9190612701565b610dbe565b60405161058c9190612d78565b60405180910390f35b3480156105a0575f5ffd5b506105bb60048036038101906105b69190612701565b610fc4565b6040516105c891906126ae565b60405180910390f35b3480156105dc575f5ffd5b506105f760048036038101906105f29190612d98565b6110cf565b6040516106049190612625565b60405180910390f35b348015610618575f5ffd5b50610633600480360381019061062e9190612b0a565b61115d565b005b5f634906490660e01b7bffffffffffffffffffffffffffffffffffffffffffffffffffffffff1916827bffffffffffffffffffffffffffffffffffffffffffffffffffffffff1916148061068e575061068d826111e1565b5b9050919050565b60605f80546106a390612e03565b80601f01602080910402602001604051908101604052809291908181526020018280546106cf90612e03565b801561071a5780601f106106f15761010080835404028352916020019161071a565b820191905f5260205f20905b8154815290600101906020018083116106fd57829003601f168201915b5050505050905090565b5f61072e826112c2565b5061073882611348565b9050919050565b610751828261074c611381565b611388565b5050565b5f73ffffffffffffffffffffffffffffffffffffffff168273ffffffffffffffffffffffffffffffffffffffff16036107c5575f6040517f64a0ae920000000000000000000000000000000000000000000000000000000081526004016107bc919061276b565b60405180910390fd5b5f6107d883836107d3611381565b61139a565b90508373ffffffffffffffffffffffffffffffffffffffff168173ffffffffffffffffffffffffffffffffffffffff161461084e578382826040517f64283d7b00000000000000000000000000000000000000000000000000000000815260040161084593929190612e33565b60405180910390fd5b50505050565b5f61085d6115a5565b6009543410156108a2576040517f08c379a000000000000000000000000000000000000000000000000000000000815260040161089990612eb2565b60405180910390fd5b5f6040518060a0016040528088815260200187815260200186815260200185151581526020018481525090505f42336040516020016108e2929190612f35565b604051602081830303815290604052805190602001205f1c90505f810361093e576040517f08c379a000000000000000000000000000000000000000000000000000000000815260040161093590612faa565b60405180910390fd5b61094833826115e6565b81600a5f8381526020019081526020015f205f820151815f01908161096d9190613168565b5060208201518160010190816109839190613168565b5060408201518160020190816109999190613168565b506060820151816003015f6101000a81548160ff02191690831515021790555060808201518160040155905050600b5f8154809291906109d890613264565b9190505550809250505095945050505050565b6109f36116d9565b8060089081610a029190613168565b5050565b5f600954905090565b610a176116d9565b610a1f611760565b565b5f610a2a6115a5565b600b54905090565b610a4c83838360405180602001604052805f815250610d99565b505050565b610a596115a5565b3373ffffffffffffffffffffffffffffffffffffffff16610a7983610b13565b73ffffffffffffffffffffffffffffffffffffffff1614610acf576040517f08c379a0000000000000000000000000000000000000000000000000000000008152600401610ac69061331b565b60405180910390fd5b80600a5f8481526020019081526020015f206003015f6101000a81548160ff0219169083151502179055505050565b5f60075f9054906101000a900460ff16905090565b5f610b1d826112c2565b9050919050565b5f5f73ffffffffffffffffffffffffffffffffffffffff168273ffffffffffffffffffffffffffffffffffffffff1603610b95575f6040517f89c62b64000000000000000000000000000000000000000000000000000000008152600401610b8c919061276b565b60405180910390fd5b60035f8373ffffffffffffffffffffffffffffffffffffffff1673ffffffffffffffffffffffffffffffffffffffff1681526020019081526020015f20549050919050565b610be26116d9565b610beb5f6117c1565b565b610bf56116d9565b610bfd6115a5565b5f60095411610c41576040517f08c379a0000000000000000000000000000000000000000000000000000000008152600401610c38906133a9565b60405180910390fd5b8060098190555050565b610c536116d9565b610c5b611886565b565b5f600760019054906101000a900473ffffffffffffffffffffffffffffffffffffffff16905090565b610c8e6115a5565b610ccc6040518060400160405280601081526020017f507572636861736520616e206974656d000000000000000000000000000000008152506118e8565b610cd582611981565b610cde81611a1a565b610cef610cea82611ab3565b611981565b5050565b606060018054610d0290612e03565b80601f0160208091040260200160405190810160405280929190818152602001828054610d2e90612e03565b8015610d795780601f10610d5057610100808354040283529160200191610d79565b820191905f5260205f20905b815481529060010190602001808311610d5c57829003601f168201915b5050505050905090565b610d95610d8e611381565b8383611aec565b5050565b610da4848484610755565b610db8610daf611381565b85858585611c55565b50505050565b610dc6612541565b610dce6115a5565b600a5f8381526020019081526020015f206040518060a00160405290815f82018054610df990612e03565b80601f0160208091040260200160405190810160405280929190818152602001828054610e2590612e03565b8015610e705780601f10610e4757610100808354040283529160200191610e70565b820191905f5260205f20905b815481529060010190602001808311610e5357829003601f168201915b50505050508152602001600182018054610e8990612e03565b80601f0160208091040260200160405190810160405280929190818152602001828054610eb590612e03565b8015610f005780601f10610ed757610100808354040283529160200191610f00565b820191905f5260205f20905b815481529060010190602001808311610ee357829003601f168201915b50505050508152602001600282018054610f1990612e03565b80601f0160208091040260200160405190810160405280929190818152602001828054610f4590612e03565b8015610f905780601f10610f6757610100808354040283529160200191610f90565b820191905f5260205f20905b815481529060010190602001808311610f7357829003601f168201915b50505050508152602001600382015f9054906101000a900460ff161515151581526020016004820154815250509050919050565b6060610fcf826112c2565b505f60065f8481526020019081526020015f208054610fed90612e03565b80601f016020809104026020016040519081016040528092919081815260200182805461101990612e03565b80156110645780601f1061103b57610100808354040283529160200191611064565b820191905f5260205f20905b81548152906001019060200180831161104757829003601f168201915b505050505090505f611074611e01565b90505f8151036110885781925050506110ca565b5f825111156110bc5780826040516020016110a4929190613401565b604051602081830303815290604052925050506110ca565b6110c584611e91565b925050505b919050565b5f60055f8473ffffffffffffffffffffffffffffffffffffffff1673ffffffffffffffffffffffffffffffffffffffff1681526020019081526020015f205f8373ffffffffffffffffffffffffffffffffffffffff1673ffffffffffffffffffffffffffffffffffffffff1681526020019081526020015f205f9054906101000a900460ff16905092915050565b6111656116d9565b5f73ffffffffffffffffffffffffffffffffffffffff168173ffffffffffffffffffffffffffffffffffffffff16036111d5575f6040517f1e4fbdf70000000000000000000000000000000000000000000000000000000081526004016111cc919061276b565b60405180910390fd5b6111de816117c1565b50565b5f7f80ac58cd000000000000000000000000000000000000000000000000000000007bffffffffffffffffffffffffffffffffffffffffffffffffffffffff1916827bffffffffffffffffffffffffffffffffffffffffffffffffffffffff191614806112ab57507f5b5e139f000000000000000000000000000000000000000000000000000000007bffffffffffffffffffffffffffffffffffffffffffffffffffffffff1916827bffffffffffffffffffffffffffffffffffffffffffffffffffffffff1916145b806112bb57506112ba82611ef7565b5b9050919050565b5f5f6112cd83611ab3565b90505f73ffffffffffffffffffffffffffffffffffffffff168173ffffffffffffffffffffffffffffffffffffffff160361133f57826040517f7e2732890000000000000000000000000000000000000000000000000000000081526004016113369190612a6c565b60405180910390fd5b80915050919050565b5f60045f8381526020019081526020015f205f9054906101000a900473ffffffffffffffffffffffffffffffffffffffff169050919050565b5f33905090565b6113958383836001611f60565b505050565b5f5f6113a584611ab3565b90505f73ffffffffffffffffffffffffffffffffffffffff168373ffffffffffffffffffffffffffffffffffffffff16146113e6576113e581848661211f565b5b5f73ffffffffffffffffffffffffffffffffffffffff168173ffffffffffffffffffffffffffffffffffffffff1614611471576114255f855f5f611f60565b600160035f8373ffffffffffffffffffffffffffffffffffffffff1673ffffffffffffffffffffffffffffffffffffffff1681526020019081526020015f205f82825403925050819055505b5f73ffffffffffffffffffffffffffffffffffffffff168573ffffffffffffffffffffffffffffffffffffffff16146114f057600160035f8773ffffffffffffffffffffffffffffffffffffffff1673ffffffffffffffffffffffffffffffffffffffff1681526020019081526020015f205f82825401925050819055505b8460025f8681526020019081526020015f205f6101000a81548173ffffffffffffffffffffffffffffffffffffffff021916908373ffffffffffffffffffffffffffffffffffffffff160217905550838573ffffffffffffffffffffffffffffffffffffffff168273ffffffffffffffffffffffffffffffffffffffff167fddf252ad1be2c89b69c2b068fc378daa952ba7f163c4a11628f55a4df523b3ef60405160405180910390a4809150509392505050565b6115ad610afe565b156115e4576040517fd93c066500000000000000000000000000000000000000000000000000000000815260040160405180910390fd5b565b5f73ffffffffffffffffffffffffffffffffffffffff168273ffffffffffffffffffffffffffffffffffffffff1603611656575f6040517f64a0ae9200000000000000000000000000000000000000000000000000000000815260040161164d919061276b565b60405180910390fd5b5f61166283835f61139a565b90505f73ffffffffffffffffffffffffffffffffffffffff168173ffffffffffffffffffffffffffffffffffffffff16146116d4575f6040517f73c6ac6e0000000000000000000000000000000000000000000000000000000081526004016116cb919061276b565b60405180910390fd5b505050565b6116e1611381565b73ffffffffffffffffffffffffffffffffffffffff166116ff610c5d565b73ffffffffffffffffffffffffffffffffffffffff161461175e57611722611381565b6040517f118cdaa7000000000000000000000000000000000000000000000000000000008152600401611755919061276b565b60405180910390fd5b565b6117686121e2565b5f60075f6101000a81548160ff0219169083151502179055507f5db9ee0a495bf2e6ff9c91a7834c1ba4fdd244a5e8aa4e537bd38aeae4b073aa6117aa611381565b6040516117b7919061276b565b60405180910390a1565b5f600760019054906101000a900473ffffffffffffffffffffffffffffffffffffffff16905081600760016101000a81548173ffffffffffffffffffffffffffffffffffffffff021916908373ffffffffffffffffffffffffffffffffffffffff1602179055508173ffffffffffffffffffffffffffffffffffffffff168173ffffffffffffffffffffffffffffffffffffffff167f8be0079c531659141344cd1fd0a4f28419497f9722a3daafe3b4186f6b6457e060405160405180910390a35050565b61188e6115a5565b600160075f6101000a81548160ff0219169083151502179055507f62e78cea01bee320cd4e420270b5ea74000d11b0c9f74754ebdbfc544b05a2586118d1611381565b6040516118de919061276b565b60405180910390a1565b61197e816040516024016118fc91906126ae565b6040516020818303038152906040527f41304fac000000000000000000000000000000000000000000000000000000007bffffffffffffffffffffffffffffffffffffffffffffffffffffffff19166020820180517bffffffffffffffffffffffffffffffffffffffffffffffffffffffff8381831617835250505050612222565b50565b611a1781604051602401611995919061276b565b6040516020818303038152906040527f2c2ecbc2000000000000000000000000000000000000000000000000000000007bffffffffffffffffffffffffffffffffffffffffffffffffffffffff19166020820180517bffffffffffffffffffffffffffffffffffffffffffffffffffffffff8381831617835250505050612222565b50565b611ab081604051602401611a2e9190612a6c565b6040516020818303038152906040527ff82c50f1000000000000000000000000000000000000000000000000000000007bffffffffffffffffffffffffffffffffffffffffffffffffffffffff19166020820180517bffffffffffffffffffffffffffffffffffffffffffffffffffffffff8381831617835250505050612222565b50565b5f60025f8381526020019081526020015f205f9054906101000a900473ffffffffffffffffffffffffffffffffffffffff169050919050565b5f73ffffffffffffffffffffffffffffffffffffffff168273ffffffffffffffffffffffffffffffffffffffff1603611b5c57816040517f5b08ba18000000000000000000000000000000000000000000000000000000008152600401611b53919061276b565b60405180910390fd5b8060055f8573ffffffffffffffffffffffffffffffffffffffff1673ffffffffffffffffffffffffffffffffffffffff1681526020019081526020015f205f8473ffffffffffffffffffffffffffffffffffffffff1673ffffffffffffffffffffffffffffffffffffffff1681526020019081526020015f205f6101000a81548160ff0219169083151502179055508173ffffffffffffffffffffffffffffffffffffffff168373ffffffffffffffffffffffffffffffffffffffff167f17307eab39ab6107e8899845ad3d59bd9653f200f220920489ca2b5937696c3183604051611c489190612625565b60405180910390a3505050565b5f8373ffffffffffffffffffffffffffffffffffffffff163b1115611dfa578273ffffffffffffffffffffffffffffffffffffffff1663150b7a02868685856040518563ffffffff1660e01b8152600401611cb39493929190613476565b6020604051808303815f875af1925050508015611cee57506040513d601f19601f82011682018060405250810190611ceb91906134d4565b60015b611d6f573d805f8114611d1c576040519150601f19603f3d011682016040523d82523d5f602084013e611d21565b606091505b505f815103611d6757836040517f64a0ae92000000000000000000000000000000000000000000000000000000008152600401611d5e919061276b565b60405180910390fd5b805181602001fd5b63150b7a0260e01b7bffffffffffffffffffffffffffffffffffffffffffffffffffffffff1916817bffffffffffffffffffffffffffffffffffffffffffffffffffffffff191614611df857836040517f64a0ae92000000000000000000000000000000000000000000000000000000008152600401611def919061276b565b60405180910390fd5b505b5050505050565b606060088054611e1090612e03565b80601f0160208091040260200160405190810160405280929190818152602001828054611e3c90612e03565b8015611e875780601f10611e5e57610100808354040283529160200191611e87565b820191905f5260205f20905b815481529060010190602001808311611e6a57829003601f168201915b5050505050905090565b6060611e9c826112c2565b505f611ea6611e01565b90505f815111611ec45760405180602001604052805f815250611eef565b80611ece8461223c565b604051602001611edf929190613401565b6040516020818303038152906040525b915050919050565b5f7f01ffc9a7000000000000000000000000000000000000000000000000000000007bffffffffffffffffffffffffffffffffffffffffffffffffffffffff1916827bffffffffffffffffffffffffffffffffffffffffffffffffffffffff1916149050919050565b8080611f9857505f73ffffffffffffffffffffffffffffffffffffffff168273ffffffffffffffffffffffffffffffffffffffff1614155b156120ca575f611fa7846112c2565b90505f73ffffffffffffffffffffffffffffffffffffffff168373ffffffffffffffffffffffffffffffffffffffff161415801561201157508273ffffffffffffffffffffffffffffffffffffffff168173ffffffffffffffffffffffffffffffffffffffff1614155b8015612024575061202281846110cf565b155b1561206657826040517fa9fbf51f00000000000000000000000000000000000000000000000000000000815260040161205d919061276b565b60405180910390fd5b81156120c857838573ffffffffffffffffffffffffffffffffffffffff168273ffffffffffffffffffffffffffffffffffffffff167f8c5be1e5ebec7d5bd14f71427d1e84f3dd0314c0f7b2291e5b200ac8c7c3b92560405160405180910390a45b505b8360045f8581526020019081526020015f205f6101000a81548173ffffffffffffffffffffffffffffffffffffffff021916908373ffffffffffffffffffffffffffffffffffffffff16021790555050505050565b61212a838383612306565b6121dd575f73ffffffffffffffffffffffffffffffffffffffff168373ffffffffffffffffffffffffffffffffffffffff160361219e57806040517f7e2732890000000000000000000000000000000000000000000000000000000081526004016121959190612a6c565b60405180910390fd5b81816040517f177e802f0000000000000000000000000000000000000000000000000000000081526004016121d49291906134ff565b60405180910390fd5b505050565b6121ea610afe565b612220576040517f8dfc202b00000000000000000000000000000000000000000000000000000000815260040160405180910390fd5b565b612239816122316123c66123e5565b63ffffffff16565b50565b60605f600161224a846123f0565b0190505f8167ffffffffffffffff81111561226857612267612844565b5b6040519080825280601f01601f19166020018201604052801561229a5781602001600182028036833780820191505090505b5090505f82602001820190505b6001156122fb578080600190039150507f3031323334353637383961626364656600000000000000000000000000000000600a86061a8153600a85816122f0576122ef613526565b5b0494505f85036122a7575b819350505050919050565b5f5f73ffffffffffffffffffffffffffffffffffffffff168373ffffffffffffffffffffffffffffffffffffffff16141580156123bd57508273ffffffffffffffffffffffffffffffffffffffff168473ffffffffffffffffffffffffffffffffffffffff16148061237e575061237d84846110cf565b5b806123bc57508273ffffffffffffffffffffffffffffffffffffffff166123a483611348565b73ffffffffffffffffffffffffffffffffffffffff16145b5b90509392505050565b5f6a636f6e736f6c652e6c6f6790505f5f835160208501845afa505050565b612570819050919050565b5f5f5f90507a184f03e93ff9f4daa797ed6e38ed64bf6a1f010000000000000000831061244c577a184f03e93ff9f4daa797ed6e38ed64bf6a1f010000000000000000838161244257612441613526565b5b0492506040810190505b6d04ee2d6d415b85acef81000000008310612489576d04ee2d6d415b85acef8100000000838161247f5761247e613526565b5b0492506020810190505b662386f26fc1000083106124b857662386f26fc1000083816124ae576124ad613526565b5b0492506010810190505b6305f5e10083106124e1576305f5e10083816124d7576124d6613526565b5b0492506008810190505b61271083106125065761271083816124fc576124fb613526565b5b0492506004810190505b60648310612529576064838161251f5761251e613526565b5b0492506002810190505b600a8310612538576001810190505b80915050919050565b6040518060a001604052806060815260200160608152602001606081526020015f151581526020015f81525090565b612578613553565b565b5f604051905090565b5f5ffd5b5f5ffd5b5f7fffffffff0000000000000000000000000000000000000000000000000000000082169050919050565b6125bf8161258b565b81146125c9575f5ffd5b50565b5f813590506125da816125b6565b92915050565b5f602082840312156125f5576125f4612583565b5b5f612602848285016125cc565b91505092915050565b5f8115159050919050565b61261f8161260b565b82525050565b5f6020820190506126385f830184612616565b92915050565b5f81519050919050565b5f82825260208201905092915050565b8281835e5f83830152505050565b5f601f19601f8301169050919050565b5f6126808261263e565b61268a8185612648565b935061269a818560208601612658565b6126a381612666565b840191505092915050565b5f6020820190508181035f8301526126c68184612676565b905092915050565b5f819050919050565b6126e0816126ce565b81146126ea575f5ffd5b50565b5f813590506126fb816126d7565b92915050565b5f6020828403121561271657612715612583565b5b5f612723848285016126ed565b91505092915050565b5f73ffffffffffffffffffffffffffffffffffffffff82169050919050565b5f6127558261272c565b9050919050565b6127658161274b565b82525050565b5f60208201905061277e5f83018461275c565b92915050565b61278d8161274b565b8114612797575f5ffd5b50565b5f813590506127a881612784565b92915050565b5f5f604083850312156127c4576127c3612583565b5b5f6127d18582860161279a565b92505060206127e2858286016126ed565b9150509250929050565b5f5f5f6060848603121561280357612802612583565b5b5f6128108682870161279a565b93505060206128218682870161279a565b9250506040612832868287016126ed565b9150509250925092565b5f5ffd5b5f5ffd5b7f4e487b71000000000000000000000000000000000000000000000000000000005f52604160045260245ffd5b61287a82612666565b810181811067ffffffffffffffff8211171561289957612898612844565b5b80604052505050565b5f6128ab61257a565b90506128b78282612871565b919050565b5f67ffffffffffffffff8211156128d6576128d5612844565b5b6128df82612666565b9050602081019050919050565b828183375f83830152505050565b5f61290c612907846128bc565b6128a2565b90508281526020810184848401111561292857612927612840565b5b6129338482856128ec565b509392505050565b5f82601f83011261294f5761294e61283c565b5b813561295f8482602086016128fa565b91505092915050565b6129718161260b565b811461297b575f5ffd5b50565b5f8135905061298c81612968565b92915050565b5f5f5f5f5f60a086880312156129ab576129aa612583565b5b5f86013567ffffffffffffffff8111156129c8576129c7612587565b5b6129d48882890161293b565b955050602086013567ffffffffffffffff8111156129f5576129f4612587565b5b612a018882890161293b565b945050604086013567ffffffffffffffff811115612a2257612a21612587565b5b612a2e8882890161293b565b9350506060612a3f8882890161297e565b9250506080612a50888289016126ed565b9150509295509295909350565b612a66816126ce565b82525050565b5f602082019050612a7f5f830184612a5d565b92915050565b5f60208284031215612a9a57612a99612583565b5b5f82013567ffffffffffffffff811115612ab757612ab6612587565b5b612ac38482850161293b565b91505092915050565b5f5f60408385031215612ae257612ae1612583565b5b5f612aef858286016126ed565b9250506020612b008582860161297e565b9150509250929050565b5f60208284031215612b1f57612b1e612583565b5b5f612b2c8482850161279a565b91505092915050565b5f5f60408385031215612b4b57612b4a612583565b5b5f612b588582860161279a565b9250506020612b698582860161297e565b9150509250929050565b5f67ffffffffffffffff821115612b8d57612b8c612844565b5b612b9682612666565b9050602081019050919050565b5f612bb5612bb084612b73565b6128a2565b905082815260208101848484011115612bd157612bd0612840565b5b612bdc8482856128ec565b509392505050565b5f82601f830112612bf857612bf761283c565b5b8135612c08848260208601612ba3565b91505092915050565b5f5f5f5f60808587031215612c2957612c28612583565b5b5f612c368782880161279a565b9450506020612c478782880161279a565b9350506040612c58878288016126ed565b925050606085013567ffffffffffffffff811115612c7957612c78612587565b5b612c8587828801612be4565b91505092959194509250565b5f82825260208201905092915050565b5f612cab8261263e565b612cb58185612c91565b9350612cc5818560208601612658565b612cce81612666565b840191505092915050565b612ce28161260b565b82525050565b612cf1816126ce565b82525050565b5f60a083015f8301518482035f860152612d118282612ca1565b91505060208301518482036020860152612d2b8282612ca1565b91505060408301518482036040860152612d458282612ca1565b9150506060830151612d5a6060860182612cd9565b506080830151612d6d6080860182612ce8565b508091505092915050565b5f6020820190508181035f830152612d908184612cf7565b905092915050565b5f5f60408385031215612dae57612dad612583565b5b5f612dbb8582860161279a565b9250506020612dcc8582860161279a565b9150509250929050565b7f4e487b71000000000000000000000000000000000000000000000000000000005f52602260045260245ffd5b5f6002820490506001821680612e1a57607f821691505b602082108103612e2d57612e2c612dd6565b5b50919050565b5f606082019050612e465f83018661275c565b612e536020830185612a5d565b612e60604083018461275c565b949350505050565b7f496e73756666696369656e74204554482070726f7669646564210000000000005f82015250565b5f612e9c601a83612648565b9150612ea782612e68565b602082019050919050565b5f6020820190508181035f830152612ec981612e90565b9050919050565b5f819050919050565b612eea612ee5826126ce565b612ed0565b82525050565b5f8160601b9050919050565b5f612f0682612ef0565b9050919050565b5f612f1782612efc565b9050919050565b612f2f612f2a8261274b565b612f0d565b82525050565b5f612f408285612ed9565b602082019150612f508284612f1e565b6014820191508190509392505050565b7f546f6b656e49442063616e6e6f74206265207a65726f2e0000000000000000005f82015250565b5f612f94601783612648565b9150612f9f82612f60565b602082019050919050565b5f6020820190508181035f830152612fc181612f88565b9050919050565b5f819050815f5260205f209050919050565b5f6020601f8301049050919050565b5f82821b905092915050565b5f600883026130247fffffffffffffffffffffffffffffffffffffffffffffffffffffffffffffffff82612fe9565b61302e8683612fe9565b95508019841693508086168417925050509392505050565b5f819050919050565b5f61306961306461305f846126ce565b613046565b6126ce565b9050919050565b5f819050919050565b6130828361304f565b61309661308e82613070565b848454612ff5565b825550505050565b5f5f905090565b6130ad61309e565b6130b8818484613079565b505050565b5b818110156130db576130d05f826130a5565b6001810190506130be565b5050565b601f821115613120576130f181612fc8565b6130fa84612fda565b81016020851015613109578190505b61311d61311585612fda565b8301826130bd565b50505b505050565b5f82821c905092915050565b5f6131405f1984600802613125565b1980831691505092915050565b5f6131588383613131565b9150826002028217905092915050565b6131718261263e565b67ffffffffffffffff81111561318a57613189612844565b5b6131948254612e03565b61319f8282856130df565b5f60209050601f8311600181146131d0575f84156131be578287015190505b6131c8858261314d565b86555061322f565b601f1984166131de86612fc8565b5f5b82811015613205578489015182556001820191506020850194506020810190506131e0565b86831015613222578489015161321e601f891682613131565b8355505b6001600288020188555050505b505050505050565b7f4e487b71000000000000000000000000000000000000000000000000000000005f52601160045260245ffd5b5f61326e826126ce565b91507fffffffffffffffffffffffffffffffffffffffffffffffffffffffffffffffff82036132a05761329f613237565b5b600182019050919050565b7f596f75206d75737420626520746865206f776e6572206f6620746869732069745f8201527f656d20666f7220697420746f206265206368616e676564000000000000000000602082015250565b5f613305603783612648565b9150613310826132ab565b604082019050919050565b5f6020820190508181035f830152613332816132f9565b9050919050565b7f546865207075626c697368696e672070726963652073686f756c6420626520675f8201527f726561746572207468616e207a65726f00000000000000000000000000000000602082015250565b5f613393603083612648565b915061339e82613339565b604082019050919050565b5f6020820190508181035f8301526133c081613387565b9050919050565b5f81905092915050565b5f6133db8261263e565b6133e581856133c7565b93506133f5818560208601612658565b80840191505092915050565b5f61340c82856133d1565b915061341882846133d1565b91508190509392505050565b5f81519050919050565b5f82825260208201905092915050565b5f61344882613424565b613452818561342e565b9350613462818560208601612658565b61346b81612666565b840191505092915050565b5f6080820190506134895f83018761275c565b613496602083018661275c565b6134a36040830185612a5d565b81810360608301526134b5818461343e565b905095945050505050565b5f815190506134ce816125b6565b92915050565b5f602082840312156134e9576134e8612583565b5b5f6134f6848285016134c0565b91505092915050565b5f6040820190506135125f83018561275c565b61351f6020830184612a5d565b9392505050565b7f4e487b71000000000000000000000000000000000000000000000000000000005f52601260045260245ffd5b7f4e487b71000000000000000000000000000000000000000000000000000000005f52605160045260245ffdfea264697066735822122083109a30fc382af6c018bfbe052a13466147f83a4d461546e3e7be6862998cf864736f6c634300081c0033","linkReferences":{}},"methodIdentifiers":{"approve(address,uint256)":"095ea7b3","balanceOf(address)":"70a08231","getApproved(uint256)":"081812fc","getInventoryItemCount()":"420e8445","getMarketItem(uint256)":"c7be7a49","getPublishingPrice()":"3dd0a7c6","isApprovedForAll(address,address)":"e985e9c5","name()":"06fdde03","owner()":"8da5cb5b","ownerOf(uint256)":"6352211e","pause()":"8456cb59","paused()":"5c975abb","publish(string,string,string,bool,uint256)":"2d738bbe","purchase(address,uint256)":"8de93222","renounceOwnership()":"715018a6","safeTransferFrom(address,address,uint256)":"42842e0e","safeTransferFrom(address,address,uint256,bytes)":"b88d4fde","setApprovalForAll(address,bool)":"a22cb465","setBaseTokenURI(string)":"30176e13","setPublishingPrice(uint256)":"8422ab59","setSaleEnabled(uint256,bool)":"48006c33","supportsInterface(bytes4)":"01ffc9a7","symbol()":"95d89b41","tokenURI(uint256)":"c87b56dd","transferFrom(address,address,uint256)":"23b872dd","transferOwnership(address)":"f2fde38b","unpause()":"3f4ba83a"},"id":0}